:020000040800F2
:1000000048080020F1010008D3560008CB50000832
:10001000D15600083D0D0008A5630008000000004F
:10002000000000000000000000000000B3580008BD
:10003000890E000800000000B1580008B5580008FB
:100040000B0200080B0200080B0200080B0200085C
:100050000B0200080B0200080B0200080B0200084C
:100060000B0200080B0200080B020008190E000822
:100070000B0200080B0200080B0200080B0200082C
:100080000B0200080B020008C50700080B0200085D
:100090000B0200080B0200080B0200080B0200080C
:1000A0004D590008595900080B0200080B020008BE
:1000B0000B0200080B0200080B0200080B020008EC
:1000C0000B0200080B0200080B0200080B020008DC
:1000D0000B0200080B0200080B0200080B020008CC
:1000E0008B0E00080B0200080B0200080B02000830
:1000F0000B0200080B0200080B0200080B020008AC
:100100000B0200080B0200080B0200080B0200089B
:100110000B0200080B0200080B0200080B0200088B
:100120000B0200080B0200080B0200080B0200087B
:100130000B0200080B0200080B0200080B0200086B
:100140000B0200080B0200080B0200080B0200085B
:100150000B0200080B0200080B0200080B0200084B
:100160000B0200080B0200080B0200080B0200083B
:100170000B0200080B0200080B0200080B0200082B
:100180000B0200080B0200080B0200080B0200081B
:100190000B020008000000000B0200080B02000820
:1001A0000B0200080B0200080B0200080B020008FB
:1001B0000B0200080B0200080B0200080B020008EB
:1001C0000B0200080B0200080B0200080B020008DB
:1001D0000B0200080B020008DFF810D000F070FAE4
:1001E0000048004745790008AFF300804808002028
:1001F0000648804706480047FEE7FEE7FEE7FEE7C1
:10020000FEE7FEE7FEE7FEE7FEE7FEE73D590008F2
:10021000D90100082DE9F05F0546002092469B4673
:1002200088460646814640241BE02846414647460C
:10023000224600F07CF853465A46C01A914110D32A
:1002400011461846224600F063F82D1A67EB0108A4
:100250004F4622460120002100F05AF817EB000912
:100260004E41201EA4F10104DFDC484631462A46F7
:100270004346BDE8F09F40EA01039B0703D009E035
:1002800008C9121F08C0042AFAD203E011F8013B82
:1002900000F8013B521EF9D27047D2B201E000F8DB
:1002A000012B491EFBD270470022F6E710B513461A
:1002B0000A4604461946FFF7F0FF204610BD00F03D
:1002C000004230F000400AD0C10D01F56071C0F36A
:1002D000160042EA0151C20840071143704700204E
:1002E0000146704730B50B4601460020202201240C
:1002F00009E021FA02F59D4205D303FA02F5491BF4
:1003000004FA02F52844151EA2F10102F1DC30BD09
:10031000202A04DB203A00FA02F1002070479140C5
:10032000C2F1200320FA03F3194390407047202ABA
:1003300004DB203A21FA02F00021704721FA02F38F
:10034000D040C2F1200291400843194670472DE980
:10035000FE4F804681EA0300C00F0C46009021F05A
:10036000004123F00045B8EB0200A94105D2404608
:10037000214690461C460B46024623F0004010439F
:1003800047D0270DC7F30A00C3F30A510290401A61
:10039000019040286BDAC3F3130040F4801B0098EF
:1003A000924620B10023D2EB030A63EB0B0B0198BA
:1003B0005946C0F140025046FFF7AAFF06460D46D7
:1003C00050465946019A00F08DF910EB0800614142
:1003D000002487EA115284EAE7731A4340D0009A56
:1003E00062B3019A012A4FEA075215DC001B61EB48
:1003F00002014FF0004202EA0752CDE90042001C20
:1004000041F5801132462B4600F08DF903B0BDE86E
:10041000F08F40462146F9E7001B61EB0201001C0A
:1004200041F5801300185B412018A2F5001747EB37
:10043000030140EAD570B6196D4111E06D084FEA2D
:10044000360645EAC0754FEA0752001B61EB020110
:10045000001C41F5801149084FEA30000019514154
:1004600032462B4603B0BDE8F04F00F04DB900987E
:10047000012240000023D0EB020263EBE0730098FE
:1004800021464FEAE074B8EB000061EB0401E9E7B4
:1004900083F000435BE781F0004158E72DE9FE4F10
:1004A00081EA030404F0004421F0004100944FF07D
:1004B000000B23F0004350EA01045ED052EA03042B
:1004C0005BD0C3F30A54C1F30A552C44A4F2F334AD
:1004D0000194A0FB0254C1F3130141F48011C3F352
:1004E000130343F4801301FB024400FB034E840A10
:1004F000970A44EA815447EA8357A4FB07680295A8
:100500008D0A05FB07854FEA932C04FB0C54270545
:10051000029D4FEA065847EA1637B5EB08056EEB21
:10052000070C870E920E47EA811742EA8312A7FB57
:100530000201B6EB0B0164EB00042B0D43EA0C3314
:100540005E1844EB1C50DA465146E7FB0201C5F346
:1005500013044FEA0B3343EA14534FEA0432019C6D
:1005600043EA0603A4F10C040294009CCDE900B414
:1005700000F0D9F803B0BDE8F08F00200146F9E79C
:100580002DE9F04D81EA030404F0004B21F0004511
:1005900014464FF0000A23F0004150EA050220D033
:1005A00054EA01021DD0C5F30A570246C5F31303EE
:1005B000C1F31300C1F30A5640F4801543F48013CD
:1005C000A7EB0608101BD64608F2FD3873EB0500B2
:1005D00002D308F1010801E092185B41B8F1000F65
:1005E00003DA00200146BDE8F08D00204FF48011B1
:1005F000064684460EE0171B73EB050705D3121B56
:1006000063EB050306434CEA010C49084FEA30004E
:1006100092185B4150EA0107EDD152EA030012D073
:1006200082EA040083EA0501084305D0101BAB41B0
:1006300006D20122002306E000224FF0004302E030
:100640006FF0010253101AEB06004CEB085110EB4F
:100650000A0041EB0B01BDE8F04D00F055B8C1F3C5
:100660000A52C1F3130140F2FF3341F480119A4260
:1006700002DA00200146704740F233439A42A2F268
:10068000334202DC5242FFF752BEFFF741BE000088
:1006900030B5041E71F1000404DB4FF00044404209
:1006A00064EB0101141E73F1000405DB1C464FF0DE
:1006B0000043524263EB0403994208BF904230BDAD
:1006C000064C074D06E0E06840F0010394E807009F
:1006D00098471034AC42F6D3FFF782FD0C7A00083D
:1006E0002C7A0008202A06DBCB17203A41FA02F0C8
:1006F00043EAE07306E041FA02F3D040C2F120027F
:10070000914008431946704710B5141E73F1000458
:1007100008DA401C41F1000192185B411A4301D1F3
:1007200020F0010010BD2DE9F04D92469B4611B11D
:10073000B1FA81F202E0B0FA80F220329046FFF77F
:10074000E7FD04460F4640EA0A0041EA0B01534622
:100750005A46084313D0114653EA010019D0C8F194
:1007600040025046FFF7E3FD05460E465046594607
:100770004246FFF7CDFD084305D0012004E02046A6
:100780003946BDE8F08D0020054346EAE0762C436B
:1007900037430A986305E40AA0EB08000022FD0A2B
:1007A00044EA47540A3002D500200146E9E7010532
:1007B00010196941DDE9084500196941BDE8F04DAE
:1007C000A2E70000014802F0E5B80000D8030020CD
:1007D0002DE9F041044600270D46006804F08AFC2C
:1007E0000646206804F07EFC30435DD02068C16876
:1007F0002E4E890105D5617F012902D1217F012972
:100800000BD0022D1DD0206804F074FCB8B1206814
:100810008168C1F3400169B111E00125244902E07A
:100820008F4232D27F1C0268D2435206F8D4402154
:100830000160E8E78168314041F010018160012DDD
:1008400011D0206804F04EFC48B120688168C1F3E3
:10085000400121B98168314041F020018160022DC1
:1008600008D0032D04D0042502F090FF064617E0BF
:100870000C25F9E70825F7E702F088FF801B05281B
:100880000ED92068806828420AD0E06D40F0100040
:10089000E065206E40F0010020660120BDE8F08197
:1008A000206880682842E7D10020F7E7C0FFFF7F7B
:1008B000000040A370B50446006881688268C1F3F7
:1008C000400112F0010F28D039BB816801F00D0101
:1008D000012914D18168124A1140891C8160216864
:1008E0000320086002F052FF054612E002F04EFFBE
:1008F000401B02280DD920688068C00709D0E06D30
:1009000040F01000E065206E40F0010020660120FC
:1009100070BD20688068C007E8D1002070BD00006D
:10092000C0FFFF7FF8B50446002000902068816872
:1009300011F0010F4AD18168254A114237D18168EF
:10094000D5432940491C81602068B0F1A04F02D0F6
:100950002049884201D1204800E02048806800F00A
:10096000E07000020DD51E481E490068B0FBF1F092
:10097000401C00EB4000800000E0401E009000287A
:10098000FBD102F003FF06461BE0816811F0010F66
:1009900003D181682940491C816002F0F7FE801B69
:1009A00002280ED920680068C043C00709D0E06D56
:1009B00040F01000E065206E40F00100206601204C
:1009C000F8BD20680168C943C907DED10020F8BD21
:1009D0003F0000800001005000030050000700505D
:1009E00028000020400D03002DE9F04FBDB002F0BB
:1009F000CDFE1C4C2168401A052830D302F0C6FEFB
:100A000020602C2132A8FFF74FFCA82108A8FFF78F
:100A10004BFC32A800F036F808A800F039F83198FD
:100A2000FFF74DFC82468B463098FFF748FC804626
:100A300089462F98FFF743FC06460F462D98FFF78F
:100A40003EFC04460D462C98FFF739FC8DE8F00F6C
:100A500041EC100B04A053EC102B05F0A5FC3DB0AD
:100A6000BDE8F08F18000020252E33662C252E338C
:100A7000662C252E33662C252E33662C252E3366C8
:100A80000D0A00000146014800F0FABAA00000205B
:100A900010B5044606F0D8FC0CB1012010BD0020B2
:100AA00010BD0000014800787047000014000020CD
:100AB00010B5194C2078012811D0022822D0032823
:100AC00023D0042824D0154800F002FE134ABDE8C4
:100AD0001040A2F1440101F1640000F007BB0F488F
:100AE00000F0F6FD002006F0A3FC0C480A4944384B
:100AF00000F038FE20780228E8D10848A83000F03D
:100B000093FCE3E706F05EFDE0E706F09BFDDDE722
:100B100006F0EAFDDAE70000140000208000002063
:100B2000134910B500200870124800F0EDFD11487F
:100B3000443000F0B5FD0F48643000F0B9FA0D48BC
:100B4000903000F0A9F90B48EC3000F05BFC09484C
:100B5000F83000F051FB084800F090FE05484430A2
:100B600000F0B6FDBDE81040002006F061BC0000BA
:100B7000140000203C0000206801002010B5002176
:100B8000274804F04BF80421254804F047F80821D1
:100B9000234804F043F80021214803F095FC042188
:100BA0001F4803F091FC08211D4803F08DFC1C48F0
:100BB00003F07CFD1B4802F0C7F901211A4800F040
:100BC00035FE184801F062FA184801F0EFFA1648AD
:100BD000F83000F025FB164800F052FE1248903025
:100BE00000F0C0F91248403800F01EFC10484038B0
:100BF00000F020FC0C4800219FED0E0A016380EDFF
:100C00000D0A80ED0E0A80ED0F0A443000F060FD01
:100C1000002006F00DFC08490120087010BD0000FE
:100C2000D00200206C0300203C000020D8030020EC
:100C300068010020000000001400002010B506F03C
:100C400053FD164801F05EFB154801F085FB134883
:100C500002F016FA134803F06FFD0021114803F06B
:100C600099FC04210F4803F095FC08210D4803F07E
:100C700091FC00210B4804F05BF80421094804F0C2
:100C800057F80821074804F053F80021064800F0FF
:100C9000CDFD06490020087010BD00006C03002047
:100CA000D8030020D00200203C00002014000020C7
:100CB00070B54FF48045A8421DD102F067FD0E4E7D
:100CC00004463068201AB0F5967F14D329460B48A5
:100CD00002F052FD00280ED13460FFF7E3FE30B180
:100CE000FFF7ACFF06A0BDE8704005F05DBBFFF765
:100CF00045FF09A0F7E770BD2C0000200010004858
:100D00005B4B45595D20417070466F635F53746F54
:100D10007028290D0A0000005B4B45595D20417089
:100D200070466F635F537461727428290D0A000066
:100D300001490020086070472C000020FEE70000F9
:100D400000280BD0B0EE001A80ED000A00EE810AF8
:100D5000DFED030A20EE200A80ED010A7047000053
:100D60003ACD133F70B50D462DED028BF0EE408A63
:100D7000040021D0002D1FD0B0EE680A05F046FD1A
:100D8000F0EE400AB0EE680AB0EE608A05F096FC1C
:100D9000D4ED000A94ED011A60EE800A41EE480A93
:100DA000C5ED000AD4ED000A94ED011A60EE880A40
:100DB00041EE000AC5ED010ABDEC028B70BD70B5B5
:100DC0000D462DED028BF0EE408A040021D0002D5F
:100DD0001FD0B0EE680A05F019FDF0EE400AB0EE43
:100DE000680AB0EE608A05F069FCD4ED000A94ED63
:100DF000011A60EE800A41EE080AC5ED000AD4ED42
:100E0000010A20EE800AD4ED000A00EEC80A85ED42
:100E1000010ABDEC028B70BD014802F0BDBA0000B2
:100E2000100200200D4902688A4201D20C4901E0FB
:100E30000B492031D2B21423083AB2FBF3F2436CCF
:100E400002F01F0223F00303194481640449803136
:100E5000C16401219140016570470000080402400F
:100E6000000802400179074A02EB81024265054A07
:100E70004432491E826501F01F0201219140C16583
:100E800070470000FC08024070474FF4804002F0B9
:100E900043BB72B6FEE7000010B504002DED028BD7
:100EA00020D0F1EE001A9FED118ADFED118AB9EE24
:100EB000001AF0EE480AB0EE680A04F01BFCF1EEEE
:100EC000001AB9EE001AF0EE480AB0EE680A04F112
:100ED0001C0004F00FFCBDEC028B2046BDE8104066
:100EE00000F040B8BDEC028B10BD00000020504562
:100EF000AE47714070B504002DED028B84B04FF009
:100F000000001D461646B0EE408A02900390009005
:100F1000019022D0002920D0103102A891EC030AC0
:100F2000FFF70EFF6946B0EE480A02A8FFF747FF39
:100F30009DED000A84ED100A9DED010A84ED110A71
:100F400084ED168A1EB1DDE90201C6E90001002D1B
:100F500003D0DDE90001C5E9000104B0BDEC028B5E
:100F600070BD000010B504001BD004F0D7FB04F1E5
:100F70001C0004F0D3FB9FED0B0ADFED0B0A84EDA0
:100F80000E0AC4ED0F0A84ED100A84ED110A84EDF7
:100F9000120A84ED130A84ED140A84ED150A84ED17
:100FA000160A10BD00000000CDCC4C3E70B5040008
:100FB0002DED028B86B04FF0000005901D461646C1
:100FC000F0EE408A029003900490009001904CD083
:100FD00000294AD004AB0022B0EE680A2046FFF791
:100FE00089FF9FED240ADFED240A9FED248A84ED1A
:100FF0000E0AC4ED0F0ADDED040AB0EE481A2046D1
:1010000004F096FB8DED000ADDED050A94ED0F0A64
:10101000B0EE481A04F11C0004F08AFB8DED010AC1
:10102000B1EE000A684601A906F066FB02A9B0EE1F
:10103000680A6846FFF796FE9DED000A84ED120AE5
:101040009DED010A84ED130A9DED020A84ED140A58
:10105000DDED030AC4ED150A0EB186ED000A002D80
:1010600003D094ED150A85ED000A06B0BDEC028BA5
:1010700070BD000000000000CDCC4C3E6F128338E4
:1010800070B50E46040000D00EB9002070BD256872
:10109000E807FCD12C2221463046FFF7ECF8206807
:1010A000A842F4D12068C007F1D1012070BD000032
:1010B000002817D000210160017141718171018107
:1010C00041818181C181018241828182C18201830A
:1010D0009FED050A80ED070A80ED080A80ED090AF8
:1010E00080ED0A0A704700000000000010B50028DB
:1010F00039D0002937D0002A35D003685B1C036043
:1011000091F82C40047191F82D404471147F847142
:10111000148A0481548A4481948A8481D48AC48143
:10112000148B0482528B42828A8B8282CA8BC28247
:101130000A8C028391ED040A80ED070A91ED050AFD
:1011400080ED080A91ED060A103180ED090A5B1C5A
:1011500091EC020A30EE200AD1ED020A30EE200AAC
:1011600080ED0A0A036010BDDFED090A094901E0BC
:1011700030EE600A10EE100A8842F9DA02E000BF91
:1011800030EE200AB5EEC00AF1EE10FAF8D370473F
:10119000DB0FC940DB0FC94028B1D0ED040A90ED48
:1011A000050A05F035B99FED010A704700000000FF
:1011B00010B50028029C14D019B190ED000A81ED01
:1011C000000A1AB190ED010A82ED000A1BB190ED00
:1011D000020A83ED000A002C03D090ED030A84ED8F
:1011E000000A10BD10B190ED080A70479FED010A8A
:1011F000704700000000000010B504000DD000F0A2
:101200009BFB9FED060A002084ED080A84ED090A85
:1012100084ED0A0A84F82C00206310BD0000000051
:10122000FFF7EABF10B504002DED028BF0EE418A06
:10123000B1EE001A21EE818A63D0002961D084ECDE
:10124000020AB0EE001A91ED040A84ED020A91ED53
:10125000040AD1ED050A00EE810ADFED2F0A20EE27
:10126000200A84ED030A00F08FFB94ED070ADFEDFE
:101270002B0A2C4930EE200ADFED290A02E000BFDC
:1012800030EE600A10EE100A8842F9DA02E000BF80
:1012900030EE200AB5EEC00AF1EE10FAF8D384ED74
:1012A000080A94ED061A38EEC00A84ED091A1E49A0
:1012B00002E000BF30EE600A10EE100A8842F9DC4E
:1012C0001A4900BF10EE100A884202D930EE200AF7
:1012D000F8E7DFED170A18EE100A20EE200AB0F149
:1012E000824F84ED0A0A14DBB0EEC00A10EE100A39
:1012F000104988420DDA206BB0F5486F04D2401CCB
:101300002063BDEC028B10BD5FF0010084F82C005F
:10131000F7E700202063F9E73ACD133F6F81E43E01
:10132000DB0FC940DB0FC940DB0F4940DB0F49C071
:10133000E12E65420000C8419FED1E1ADFED1E0A36
:10134000002836D090ED010A1C4A10EE101A914286
:101350000BDA30EE010A10EE101A80ED010A91420C
:1013600003DDB2EE040A80ED010A90ED011AF1EE00
:10137000001A90ED020A21EE211ADFED111A114A2E
:1013800021EE201A01EE210A80ED020A02E000BFE0
:1013900030EE600A10EE101A9142F9DA02E000BF56
:1013A00030EE200AB5EEC00AF1EE10FAF8D380ED67
:1013B000020A70472F90A039DB0FC940000020417E
:1013C0006F128338DB0FC9409FED070A40B1D0EDA3
:1013D000010A20EE800AF1EE000A20EE200A704792
:1013E0009FED020A70470000DB0FC94000000000BB
:1013F00010B190ED020A70479FED010A704700009E
:1014000000000000002809D000219FED050A0160BE
:1014100080ED010A9FED030A80ED020A704700008B
:10142000CDCC4C3E00000000002801D0002101601E
:1014300070470000002807D09FED040A80ED010AE4
:101440009FED030A80ED020A70470000CDCC4C3EB0
:101450000000000010B50446084600F039F90022EB
:101460004FF40051034802F08CF9002C01D0042005
:10147000207010BD0008004800281FD0114AC16824
:101480001144B1F5500F18D890ED040A0E49B0EE92
:10149000C00A10EE102A8A420FDC90ED050AB0EE69
:1014A000C00A10EE102A8A4207DC90ED060AB0EE60
:1014B000C00A10EE100A884201DD012070470020AA
:1014C000704700000000E0BE00007041B0EE603ADE
:1014D000FEEE000A10B560EE200A2DED068B0446E4
:1014E000F0EE602ADFED671A11EE100A664943EE4E
:1014F000210A43EE612AB0EE402AF0EE401A8842FB
:1015000001DCB3EE081A002C7ED0F4EEC20AF1EE34
:1015100010FA01DDB0EE602AF4EEC22AF1EE10FA04
:1015200001DDB0EE622AF4EEE10AF1EE10FA01D22A
:10153000F0EE601AF4EEE12AF1EE10FA01D2F0EECC
:10154000621AF0EE403A32EE212AF6EE001A22EE4E
:10155000212A33EEC24AC4EE013A33EEA18A70EE7C
:10156000C23AC3EE810A30EEA19A72EEC20A80EE50
:10157000812A72EE218ADFED450AB5EEC08AB7EE08
:10158000001AF1EE10FA4FF07E5102D2B0EE608AEE
:1015900005E018EE100A884201DDB0EE418AB5EE92
:1015A000C09AF1EE10FA02D2B0EE609A05E019EEA0
:1015B000100A884201DDB0EE419AF5EEC08AF1EEE4
:1015C00010FA02D2F0EE608A05E018EE900A884226
:1015D00001DDF0EE418AF0EE400ADFED2D9A9FED3D
:1015E0002DAAB0EE430A04F013FFB5EEC00AF1EEE7
:1015F00010FA01D230EE290AC0EE0A0ABCEEE00A67
:1016000010EE100A401C00E038E0C0B2062800D9F5
:101610000620DFED219A207084ED018A28EE290A48
:1016200084ED029AC4ED038ABDEEC00A10EE100AE2
:1016300006F095F829EE290A2082BDEEC00A10EEC8
:10164000100A06F08CF828EEA90A6082BDEEC00AE6
:1016500010EE100A06F083F8A0821048218A026872
:1016600051630268618A91630068A18AC163204660
:10167000BDEC068BBDE8104006F07EB8BDEC068BD5
:1016800010BD0000D7B35D3FCDCCCC3D00000000C5
:10169000DB0FC940920A863F00F8A545D002002022
:1016A000002814D001220270B6EE000A80ED010A73
:1016B00080ED020A80ED030A40F65F21018241823B
:1016C00081820023C382038341830277427770477C
:1016D000002816D040F65F210182418281820022DB
:1016E000C2820283418301220277064A136859634A
:1016F0001368418A99631368818AD9631168408BA2
:1017000008647047D0020020002828D0F3EE080AB1
:101710009FED130A002180ED000A80ED010A80EDA3
:10172000020AC0ED030A80ED040A80ED050A80ED8F
:10173000060A8183C183018441848184C184018537
:101740004185012280F82C2080F82D10016380ED66
:101750000D0A80ED0E0A80ED0F0A80F840107047E8
:10176000000000002DE9F0410D46044609212E48F5
:1017700000F074FC1FFA80F840F20F112A4800F0C4
:101780006DFC87B240F21521274800F067FC86B255
:10179000002C46D033463A464146204606F026F80D
:1017A000404606F011F8D4ED0D0A384630EE200A16
:1017B00084ED0D0A06F008F8D4ED0E0A304630EE3E
:1017C000200A84ED0E0A05F0FFFFD4ED0F0A30EE7B
:1017D000200A84ED0F0A206B401C2063B0F5805F67
:1017E0001FD300EE900A94ED0D1A002DF8EE600A5A
:1017F000C1EE201A00EE900AF8EE600AC4ED001A5D
:1018000094ED0E1AC1EE201A00EE900AF8EE600A6E
:1018100080EE201AC4ED011A84ED021A01D00220D4
:101820002870BDE8F0810000D8030020002801D016
:1018300080F840107047002801D080F82C107047C5
:1018400010B5040016D094F8400080B10A4801F0A9
:101850009DF880B205F0B8FFF3EE090A20EE200AE9
:10186000204684ED030ABDE8104005F0E3BFB3EE67
:10187000080AF5E710BD00006C030020AFF30080FC
:10188000002808D00021017041609FED030A8160AB
:1018900080ED030A017470470000000070B5044633
:1018A0002DED028B15460E460846FFF7A1FD002CD4
:1018B00037D0002E35D0002D33D0207C01280BD01E
:1018C00002282ED12846FFF78DFC00BFBDEC028B0D
:1018D000BDE87040FFF748BC2846FFF783FCB0EE38
:1018E000408A3046FFF784FD38EE408A9FED0E0AAD
:1018F0000E4901E038EE408A18EE100A8842F9DC01
:101900000B4900BF18EE100A884202D938EE008A4F
:10191000F8E73046FFF76CFDD4ED030A00EE880AC5
:10192000D4E7BDEC028B70BDDB0FC940DB0F494033
:10193000DB0F49C0FFF7A4BF00281ED09FED0F0AA0
:10194000DFED0F0A80ED000A80ED010A80ED020A4A
:1019500080ED030A80ED040A80ED050A80ED060A99
:1019600080ED070A0748C0ED000A80ED010A80ED0E
:10197000020A80ED030A80ED040A704700000000AF
:101980002497FF3B0000002010B5040006D000F0B3
:1019900007F82046BDE8104003F016BF10BD000058
:1019A00070B5DFED271A294C9FED241A05462DED61
:1019B000068BD0ED000A90ED029AD4ED008A90EDEE
:1019C000010A49EE610A90ED03AADFED1E9ADFEDF0
:1019D0001EAA0AEE610A40EE818AC4ED008A94EDE7
:1019E000018A49EE698A00EE018A28EEA80A84ED90
:1019F000018A0AEE698A08EE080A04F0CFFF10EEA9
:101A0000100A1349884211DDCAEE800A68EEA08AE6
:101A100028EE208AB0EE680A09EE290A84ED000A51
:101A2000B0EE480A0AEE290A84ED010AC5ED048ADF
:101A300085ED058ABDEC068B70BD00006F12833802
:101A400014AE073F52491D3A2497FF3B0000002087
:101A5000BD378635F8B500260446009690F8580044
:101A60000D4601280BD0012084F858002046FEF7CF
:101A700021FF0100E06D04D040F010002AE00220B8
:101A8000F8BD20F4885040F00200E06520688268CC
:101A9000134B1A4005F080431A4342F00042826023
:101AA000104A20680EE0009B5B1C0093934209D310
:101AB000E06D20F0020040F01000E06584F858600E
:101AC0000120F8BD8368DB0FEDD1E06D20F002004E
:101AD00040F00100E06584F858600846F8BD000059
:101AE000C0FFFF3F02DE0400704700002DE9F84F01
:101AF0004FF000090446CDF800900D4694F85820A8
:101B0000DFF8EC8361694F464846012A0AD0012676
:101B1000F84A84F8586041B1296A012905D0A36EBA
:101B2000EBB129E00220BDE8F88F6868092838D1B8
:101B3000A96A4FF4785041B12B6801F07C0100EAAA
:101B400053400843E96A084302E0296800EA51402B
:101B50002368D96C11400143D964606621E0C4E96F
:101B60001971A96A286A31B101F07C01401E08434D
:101B7000E96A084300E0401E29682B79C1F38461BB
:101B800003F01F0399400143A06E401EA066636EE0
:101B900043EA0103636604D12168C86C104018430E
:101BA000C864206803F0A2FA58B995F8250098B1E6
:101BB0002068C16895F8262021F4401141EA42517D
:101BC000C160206803F09AFA8246206803F08EFA1A
:101BD0005AEA00000DD0FCE095F8260095F8241094
:101BE000400540EA01512068C26822F440121143C6
:101BF000E6E7A86A30B1E86A20B195F82500012827
:101C00005ED003E095F82500012804D02068C16863
:101C100021F0007103E02068C16841F00071C160EB
:101C200095F83000012852D02068016921F00201A6
:101C30000161AA6829682068B2F1004F38D003F02A
:101C400078FA2068416921F00041416120686969A2
:101C5000C268C2F3C102520091402A69042A45D0E9
:101C600000EB82002B68026EDFF88CC203F0F843B1
:101C700002EA0C020B431A4342F00041016620685D
:101C80002A69A96900EB8200026E22F080720A4381
:101C90000266297F22682869012924D05FF00001AB
:101CA00002EB8000026E22F000720A43026690E0AE
:101CB000002203F03EFA2068416941F00041C4E788
:101CC000E06D40F02000E0654FF00109A8E7D5E99C
:101CD0000D01084321680A6922F4FF7242F00202F2
:101CE00010430861A5E74FF00071D9E7002103F028
:101CF000F3F9400320684FF0000172D003F0ECF9D3
:101D000090FAA0F0B0FA80F1286842036ED090FA01
:101D1000A0F0B0FA80F0814204D100221146206880
:101D200003F01EFA0121206803F0D6F94003206871
:101D30004FF001015DD003F0CFF990FAA0F0B0FAB6
:101D400080F12868420359D090FAA0F0B0FA80F0F0
:101D5000814204D100220121206803F001FA02210E
:101D6000206803F0B9F9400320684FF0020148D021
:101D700003F0B2F990FAA0F0B0FA80F128684203BB
:101D800044D090FAA0F0B0FA80F0814204D1002251
:101D90000221206803F0E4F90321206803F09CF994
:101DA000400320684FF0030133D003F095F990FA17
:101DB000A0F0B0FA80F1286842032FD090FAA0F08A
:101DC000B0FA80F0814204D100220321206803F0A0
:101DD000C7F92068816811F0010F22D0B5E000E05A
:101DE00004E003F079F9C0F384618DE7C0F3846007
:101DF00091E703F071F9C0F38461A2E7C0F3846056
:101E0000A6E703F069F9C0F38461B7E7C0F3846023
:101E1000BBE703F061F9C0F38461CCE7C0F38460F1
:101E2000D0E72A7B296850F8B03FC1F3120C23EAAF
:101E30000C0302F0180C314A22FA0CF20A40134348
:101E40000360E96841457DD1286841031BD090FAC1
:101E5000A0F1B1FA81F1491C01F01F0109294FEAF3
:101E6000403131D8002911D090FAA0F1B1FA81F1B6
:101E700001F1010101F01F0106FA01F609D100BFCD
:101E8000C0F3846109E0C0F38461E4E7C0F38461D6
:101E9000EEE790FAA0F1B1FA81F101F1010101F050
:101EA0001F0146EA816102D1C0F3846003E090FA29
:101EB000A0F0B0FA80F000F1010000F01F0000EB8C
:101EC000400041EA00513AE000290ED090FAA0F11A
:101ED000B1FA81F101F1010101F01F0106FA01F6E9
:101EE0000ED100BFC0F384610EE0C0F38461F1E75E
:101EF00000007F400040100400F0FF03FFFF0700D8
:101F000090FAA0F1B1FA81F101F1010101F01F0194
:101F100046EA816102D1C0F3846003E090FAA0F048
:101F2000B0FA80F000F1010000F01F003A4A00EB27
:101F3000400002EB005041EA000141F00071AA6844
:101F4000206800E001E003F0F4F834482B68034215
:101F50005ED022684FF0A04C3148324E324D62457F
:101F600001D0AA4201D1014600E031468968DFF87C
:101F7000BC8001F0E071434503D0DFF8B4804345F5
:101F800020D15FEA01281DD4624505D0294B9A4231
:101F90003ED1AA4200D0304641F40001826822F0CE
:101FA000E0720A438260244824490068B0FBF1F0E3
:101FB000801C00EB4000800000E0401E00900028E4
:101FC000FBD125E0DFF8788043450FD15FEAC118E7
:101FD0000CD4AA4202D11B4B9A4219D0624502D0BE
:101FE000AA4200D0304641F080710CE0DFF8588002
:101FF00043450DD14B020BD4AA4209D0624500D013
:10200000304641F48001826822F0E0720A43826027
:1020100084F85870484686E5000020FE00000880DD
:10202000000300500007005000010050000021C3D1
:102030001000C0900006005028000020400D030052
:10204000000052C700050050000084CB02498842BE
:1020500001D1FEF72DBD7047D80300200068A1F51F
:1020600080710F390ED0B1F5837F08D0B1F5037FB1
:1020700002D0D0F880007047D0F88C007047D0F8BC
:1020800088007047D0F88400704770472DE9F04110
:10209000044600684FF0A0453E4FA84201D0B84228
:1020A00001D13D4900E03D49896801F01F0603F078
:1020B0001DF808BB2168C868C96C00F0004011F425
:1020C000C07F00D190B194F85800012814D00120AD
:1020D00084F858002046FEF725FC01004FF000026E
:1020E0000CD084F858200846BDE8F081E06D40F03F
:1020F0002000E0650120F7E70220F5E7E06DC0056C
:1021000004D5206E20F00800206600E02266E06D15
:1021100042F20103984340F48050E0652068204B70
:10212000DFF880C0B84201D1AE4604E0984201D148
:10213000E64600E08646864500D02EB9D4F85CE03D
:102140002EF4801EC4F85CE04FF0600EC0F800E092
:1021500084F858202068B84204D0984201D16546DE
:1021600000E00546854209D046B1062E06D0072E6E
:1021700004D0E06D40F48010E065B4E7C26812F06E
:10218000007FB0D18268084B1A4042F0080282609A
:10219000A9E70000000100500003005000070050B4
:1021A0000005005000040050C0FFFF7F2DE9F04102
:1021B000044600684FF0A0454C4FA84201D0B842F9
:1021C00001D14B4900E04B49896801F01F0602F03C
:1021D0008DFF08BB2168C868C96C00F0004011F48D
:1021E000C07F00D190B194F85800012814D001208C
:1021F00084F858002046FEF795FB01004FF00002DE
:102200000CD084F858200846BDE8F081E06D40F01D
:102210002000E0650120F7E70220F5E7E06DC0054A
:1022200004D5206E20F00800206600E02266E06DF4
:1022300042F20103984340F48050E06520682E4B41
:10224000DFF8B8C0B84201D1AE4604E0984201D1EF
:10225000E64600E08646864500D02EB9D4F85CE01C
:102260002EF4801EC4F85CE04FF0600EC0F800E071
:1022700084F858202068C268920203D5426842F46C
:1022800080624260A06908282068426807D022F076
:10229000400242602068426842F0200206E022F0DC
:1022A000200242602068426842F04002426020689A
:1022B000B84204D0984201D1654600E00546854207
:1022C00009D046B1062E06D0072E04D0E06D40F4AA
:1022D0008010E06597E7C26812F0007F93D18268B2
:1022E000074B1A4042F0080282608CE70001005060
:1022F000000300500007005000050050000400508B
:10230000C0FFFF7F70B5044690F85800012809D03F
:10231000012084F8580002212046FEF759FA0500F2
:1023200002D014E0022070BD206802F0E7FE18B170
:10233000E06D20F4805009E02046FEF7BBFA05006E
:1023400005D1E06D20F4885040F00100E0650020E8
:1023500084F85800284670BD70B5044690F85800BF
:10236000012809D0012084F8580002212046FEF7F8
:102370002FFA050002D019E0022070BD20684168E4
:1023800021F48C614160206802F0B8FE18B1E06D64
:1023900020F4805009E02046FEF78CFA050005D1B4
:1023A000E06D20F4885040F00100E065002084F8E2
:1023B0005800284670BD7047704700002DE9F04F67
:1023C000044690F858009BB00F464FF0000B0128D0
:1023D00012D0012084F8580000261796189620681D
:1023E0004FF0A048DFF81C91DFF81CA1474D404595
:1023F00006D12846009508E002201BB0BDE8F08F0A
:1024000048450AD15046CDF800A002F077FE009072
:10241000206802F073FE40B109E0E06D40F020005A
:10242000E06584F858600120E7E7009850B1E06D5E
:1024300040F02000E0654FF0010B00BF84F85860C9
:102440005846DAE720684146884201D0A84201D1C7
:102450002F4800E02F48D7F800C02F4B40F61F72DE
:10246000BCF1000F2DD0D0F808C094F838802CF4BF
:10247000604C4CEA483CD7F804804CEA080CC0F8A1
:1024800008C0D4F800C08C4501D0AC4504D189689F
:10249000AB6801F0010109E0D9F80810DAF808503A
:1024A00001F0010105F001059B68294303F00103D8
:1024B0001943C3D1BB6839681943836893431943EF
:1024C0001DE0876827F46047876027688F4201D046
:1024D000AF4204D18968AB6801F0010109E0D9F885
:1024E0000810DAF8085001F0010105F001059B68B9
:1024F000294303F001031943A0D18168914381600E
:102500009CE700000004005000050050000100504E
:102510000003005000070050000600502DE9F84F5E
:1025200000270446009790F85800DFF81C840D46F9
:10253000B946012811D0012684F85860206802F0BD
:10254000D9FD60B1E06D40F02000E0655FF001076B
:1025500084F858903846BDE8F88F0220FBE7D5E9AB
:1025600000210C23206803EA91131844036B01F047
:102570001F014FF01F0C0CFA01FCC2F3846223EA26
:102580000C038A4013430363206802F0B3FD8246C4
:10259000206802F0A7FD5AEA00003CD1AA68296829
:1025A0002068B2F1004F37D002F0B4FD20684169D5
:1025B00021F00041416120686969C268C2F3C1022B
:1025C000520091402A69042A31D000EB82002B6826
:1025D000026EDFF878C303F0F84302EA0C020B4303
:1025E0001A4342F00041016622682869A96902EB9A
:1025F0008000026E22F080720A430266297F226800
:102600002869012910D0002102EB8000026E22F01F
:1026100000720A4302667DE0002202F07BFD206822
:10262000416941F00041C5E74FF00071ECE700213E
:1026300002F04CFD400320684FF0000172D002F020
:1026400045FD90FAA0F0B0FA80F1286842036ED000
:1026500090FAA0F0B0FA80F0814204D10022114635
:10266000206802F075FD0121206802F02FFD400373
:1026700020684FF001015DD002F028FD90FAA0F033
:10268000B0FA80F12868420359D090FAA0F0B0FA6D
:1026900080F0814204D100220121206802F058FD1F
:1026A0000221206802F012FD400320684FF0020171
:1026B00048D002F00BFD90FAA0F0B0FA80F1286843
:1026C000420344D090FAA0F0B0FA80F0814204D1E5
:1026D00000220221206802F03BFD0321206802F065
:1026E000F5FC400320684FF0030133D002F0EEFC0C
:1026F00090FAA0F0B0FA80F1286842032FD090FA47
:10270000A0F0B0FA80F0814204D1002203212068B9
:1027100002F01EFD2068816811F0010F22D0ACE0AC
:1027200000E004E002F0D2FCC0F384618DE7C0F366
:10273000846091E702F0CAFCC0F38461A2E7C0F3B1
:102740008460A6E702F0C2FCC0F38461B7E7C0F37F
:102750008460BBE702F0BAFCC0F38461CCE7C0F34D
:102760008460D0E72A7B296850F8B03FC1F3120C8F
:1027700023EA0C0302F0180C754A22FA0CF20A4004
:1027800013430360E968414577D1286841031CD0B1
:1027900090FAA0F1B1FA81F1491C01F01F01092959
:1027A0004FEA403132D8002912D000BF90FAA0F190
:1027B000B1FA81F101F1010101F01F0106FA01F600
:1027C00009D100BFC0F3846109E0C0F38461E3E78D
:1027D000C0F38461EEE790FAA0F1B1FA81F101F162
:1027E000010101F01F0146EA816102D1C0F384605A
:1027F00003E090FAA0F0B0FA80F000F1010000F0E0
:102800001F0000EB400041EA005132E000290ED0E9
:1028100090FAA0F1B1FA81F101F1010101F01F017B
:1028200006FA01F606D100BFC0F3846106E0C0F3EA
:102830008461F1E790FAA0F1B1FA81F101F10101AF
:1028400001F01F0146EA816102D1C0F3846003E018
:1028500090FAA0F0B0FA80F000F1010000F01F0043
:102860003C4A00EB400002EB005041EA000141F01D
:102870000071AA68206802F04DFC37482B680342BB
:102880003FF466AE21684FF0A04C3448344E354DCD
:10289000614501D0A94201D1024600E0324692686A
:1028A000DFF8C48002F0E072434503D0DFF8BC805B
:1028B000434521D15FEA02281ED4614506D02C4B46
:1028C00099427FF445AEA94200D0304642F400015F
:1028D000826822F0E0720A43826026482649006836
:1028E000B0FBF1F0401C00EB4000800000E0401E17
:1028F00000900028FBD12BE6DFF8808043450FD104
:102900005FEAC2180CD4A94202D11D4B9942F2D001
:10291000614502D0A94200D0304642F080710CE0FF
:10292000DFF860804345E6D15302E4D4A942E2D007
:10293000614500D0304642F48001826822F0E072A6
:102940000A43826004E6000000007F4000F0FF03BD
:10295000FFFF0700000020FE000008800003005079
:102960000007005000010050000021C31000C0907B
:102970000006005028000020400D0300000052C750
:1029800000050050000084CB704770470068006C61
:10299000704700002DE9F84F044600680668456856
:1029A0004FF0A048DFF89092404501D0484501D152
:1029B000A24800E0A248806800F01F07B0070ED5CB
:1029C000A8070CD5E06DC00603D4E06D40F40060AC
:1029D000E0652046FFF788F8216802200860DFF8EC
:1029E00064B2DFF864A2700701D5680703D430072A
:1029F0003FD528073DD5E06DC00603D4E06D40F417
:102A00000070E065206802F07DFB60B320684845F7
:102A100001D1424604E0584501D1524600E0024649
:102A2000824208D03FB1052F05D0092F03D0484579
:102A300003D1414606E0C16805E0584501D1514641
:102A400000E00146C96889040DD4016809070AD568
:102A500002F050FB58B3E06D40F01000E065206ECE
:102A600040F0010020662046FFF78EFF21680C2011
:102A70000860B00601D5A80603D470065FD56806C5
:102A80005DD5E06DC00603D4E06D40F40050E06514
:102A90002068C16C11F4C07F1AD00021009102F0AF
:102AA00031FB02462068484514D1434617E02068B0
:102AB000416821F00C014160E06D20F48070E06518
:102AC000E06DC004CFD4E06D40F00100E065CAE7DE
:102AD0000121E3E7584501D1534600E00346834214
:102AE00008D03FB1062F05D0072F03D0484503D1AA
:102AF000414606E0C16805E0584501D1514600E075
:102B00000146C968009BA3B18B0102D58AB18A0432
:102B10000FD4026852060CD589020AD402F0E2FAF8
:102B2000F0B3E06D40F01000E065206E40F0010071
:102B300020662046FFF78AFA216860200860300688
:102B40000BD5280609D5E06D40F48030E0652046BD
:102B500000F094F9216880200860F0050CD5E805A4
:102B60000AD5E06D40F40030E0652046FFF723FC15
:102B700021684FF480700860B0050CD5A8050AD50F
:102B8000E06D40F48020E0652046FFF715FC2168E9
:102B90004FF400700860F00631D5E8062FD500E04C
:102BA00009E0E06BE8B12068EFB3404501D048454B
:102BB00012D1224811E02068416821F06001416093
:102BC000E06D20F48050E065E06DC005B1D4E06DAB
:102BD00040F00100E065ACE71948806800F460400F
:102BE00050B1E06D40F48060E065206E40F002007E
:102BF00020662046FFF7C9FE216810200860700596
:102C000017D5680515D5E06D40F48040E065206E6D
:102C100040F00800206621684FF48060086020467C
:102C2000BDE8F84F00E001E0FFF72FBAC068C00729
:102C3000D6E7BDE8F88F0000000100500003005007
:102C4000000700500005005000040050F8B54FF098
:102C5000000504002E46009502D0E06D10B107E09B
:102C60000120F8BD204600F00BF9266684F8586074
:102C700020688168C1F3407119B18168734A1140BD
:102C8000816020688168C1F3007189B98168704AE8
:102C9000114041F0805181606E486F490068B0FB7F
:102CA000F1F04000801C00E0401E00900028FBD1A5
:102CB00020688168C1F3007141B9E16D41F01001F4
:102CC000E165216E41F001012166012502F012FA51
:102CD000E16DC90600D430B1E06D40F01000E06550
:102CE00001252846F8BDE06D20F4807040F0020018
:102CF000E0652068816811F0010F27D14FF0A043F3
:102D0000564A984201D0904204D19968966801F0E1
:102D100001010AE052498968524E01F00101B6688A
:102D200006F001063143504EB66806F00106314305
:102D30000CD1984201D0904201D14C4800E04C485F
:102D40006168826822F47C120A438260E168E06B69
:102D5000627F0843A16841EA4231084394F8241095
:102D600040EA0140012904D1218D424A02EB414150
:102D70000843E16A29B101F47871226B014342EA08
:102D800001002268D1683C4B19400143D1602068A2
:102D90000169626B21F0406111430161206802F01A
:102DA000A1F970BB207F94F838102268800340EAB4
:102DB0004100D16844F2020399430143D160206984
:102DC0000028206801690AD041F48031016120683F
:102DD00050F8C01F22696FF30D01114307E021F481
:102DE00080310161206850F8C01F6FF30D01016050
:102DF00094F8400001280CD02068016921F00101FD
:102E00000161606901282068016B21F00F0111D078
:102E100013E0D4E911010843D4E913121143084324
:102E200021680A6940F2FC739A43104340F00100A4
:102E30000861E6E7226A521E11430163E06D20F04B
:102E4000020040F00100E0654BE70000C0FFFF5FBB
:102E5000C0FFFF7F28000020400D0300000100504C
:102E60000004005000050050000600500003005010
:102E7000000700500000FEFF0740F0FF7047000011
:102E800070B59CB00546142115A8FDF70DFA542124
:102E90006846FDF709FA28684FF0A046B04202D014
:102EA0002549884245D12549254C0868401C0860C1
:102EB000012811D1C003009040031190684600F032
:102EC00067FD08B1FDF7E5FFE06C40F40050E064F9
:102ED000E06C00F400501A90E06C40F00400E064F4
:102EE000E06C00F004001A90E06C40F00100E06437
:102EF000E06C032100F001001A902A680020B24221
:102F000007D1CDE916100822159215A94FF090406F
:102F100005E0CDE916100E22159215A9094800F01A
:102F200007FB00220221122000F09AFC122000F080
:102F300089FC1CB070BD0000000100503000002072
:102F400000100240000800482DE9F04104460068E6
:102F50004FF0A045444FA84201D0B84201D14349A7
:102F600000E04349896801F01F0602F0C3F818B178
:102F700002210846BDE8F08194F8580001280CD0E1
:102F8000012084F858002046FDF7CCFC01004FF0EA
:102F9000000204D084F85820EBE70220EAE7E06D55
:102FA00040F60163984340F48070E0652068314B3F
:102FB000DFF8C4C0B84201D1AE4604E0984201D166
:102FC000E64600E08646864500D02EB9D4F85CE09F
:102FD0002EF4801EC4F85CE0D4F85CE05FEACE4ECC
:102FE00006D5D4F860E02EF0060EC4F860E000E0EC
:102FF00022664FF01C0EC0F800E084F858202068CC
:10300000B84201D12A4604E0984201D1624600E06C
:10301000024682420ED06EB1052E0BD0092E09D089
:10302000E26D42F48012E265B84213D0984210D1AA
:1030300065460FE0C268920105D5E26D22F40052A8
:1030400042F48052E26582680C4B1A40121D826085
:103050008FE70546E86880018BD5E06D20F40050CD
:1030600040F48050E06584E7000100500003005008
:10307000000700500005005000040050C0FFFF7F13
:1030800010B5044690F85800012808D0012084F8B3
:10309000580003212046FDF79BFB10B10BE00220F6
:1030A00010BD2046FDF706FC28B9E16D21F48851DA
:1030B00041F00101E165002184F8581010BD70B5A0
:1030C000040004D094F82100002510B106E001208E
:1030D00070BD84F82050204600F00CF865626560F1
:1030E000A560E56025610120656184F8210000206C
:1030F00070BD000008B500680649884208D106483E
:10310000816C41F008018164806C00F0080000903F
:1031100008BD0000000C0240001002402DE9F047FD
:1031200090460D4604004FF0000A0FD075B160794B
:1031300001280ED04FF0010984F80590022020717B
:10314000A96808F01006042905D04AE00120BDE86E
:10315000F0870220FBE700F019FB07465FEA080052
:103160004FF0030809D022E000F010FBC01B01283B
:1031700003D92068406B000411D42068406B000420
:10318000F2D42168686A086418E000BF00F0FEFA13
:10319000C01B01280BD92068406B002807DA206982
:1031A00040F00800206184F804800320CFE7206805
:1031B000406B0028EADB2168686A48642068816CFB
:1031C00040F2FF32B2409143AA6AB2401143816497
:1031D0002068C16CFF22B2409143EA6AB2401143B9
:1031E000C164E869012808D12268916B1F20B040B2
:1031F0008143286AB040084390632068C06B072170
:10320000B1408843A969012903D0022957D06969CF
:10321000F1B300216B69AA681A430A434FF4807125
:1032200001FA06F398432B79012B00D000211143BA
:103230004FF4007202FA06F398436B79012B00D029
:10324000002220F44047286842EA0108022838D0CA
:1032500057EA0007216808FA06F03843C863206877
:1032600001684FF48042B2409143016022681168C6
:1032700040F6FE70B0408143E868B04008431060FB
:1032800020680168C022B24091430160287B00E0C1
:1032900015E0297CC0F3830001F03C0140EA811075
:1032A00021680A6E40F60F73B3409A43B040024360
:1032B0000A6684F8049000206071504647E70121B7
:1032C000A8E700F0D3FD0649884202D947F4004739
:1032D000C0E704498842BDD947F48047BAE70000F7
:1032E0000068890900B4C40470B5040003D02079D3
:1032F000002510B105E0012070BD6571204600F089
:1033000007F802202071256101202071002070BD86
:1033100030B587B0044614216846FCF7C5FF246821
:103320001A4D00221A4903234FF09040AC4211D1AC
:10333000CC6C44F48034CC64CC6C04F480340594BC
:10334000CC6C44F00104CC64C96C01F0010105911E
:10335000102113E00F4DAC4216D1CC6C44F4003474
:10336000CC64CC6C04F400340594CC6C44F00104BF
:10337000CC64C96C01F0010105914021CDE9001335
:103380000292694600F0D4F807B030BD0008005042
:1033900000100240000C0050F0B4016C0C68016891
:1033A0000D6890F8442002F01F06042202FA06F38A
:1033B000234211D06B070FD50B689B0603D40B6813
:1033C00023F004030B6090F8441001F01F018A40C1
:1033D000016C4A60016B1DE0022303FA06F72742E5
:1033E0004FF0000C4FF0010218D0AF0716D50C6853
:1033F000A40605D40C6824F00A040C6080F825208B
:1034000090F8441001F01F018B40016C4B6080F874
:1034100024C0C16A00291AD0F0BC08470823B34071
:10342000234214D02B0712D50B6823F00E030B6038
:1034300090F84410036C01F01F0102FA01F1596089
:10344000C26380F8252080F824C0416BE2E7F0BC1D
:103450007047000070B504000CD02B4A216814207E
:10346000914209D2294A0A44B2FBF0F0800060641C
:1034700027480AE0012070BD234A52420A44B2FBA9
:10348000F0F080006064204808382064022084F84E
:1034900025000A6847F6F0708243D4E90203184316
:1034A000D4E904352B431843A3691843E36918434F
:1034B000236A1843104308602046FDF7B3FCA06858
:1034C0000025B0F5804F00D16560A16C20790860BF
:1034D000D4E9130141606068401E032808D82046E3
:1034E000FDF7C0FC606D0560D4E91601416002E0A3
:1034F0006565A565E565E563012084F8250084F828
:103500002450002070BD000008040240F8FFFDBFF9
:1035100000000240FDF7CCBB044910B50A68024226
:1035200002D00860FFF7F6FF10BD00001404014050
:103530002DE9F04FDFF82092002301260324A9F1A2
:10354000040B85B00F2709F1040AABF1040EFAE071
:1035500006FA03F52A407CD091F804C00CF0030C65
:10356000BCF1010F02D0BCF1020F26D1D0F808C087
:10357000CDF800C04FEA430C04FA0CF8CDF810C0A7
:10358000DDF800C02CEA080CCDF800C0D1F80C80A2
:10359000DDF810C008FA0CF8DDF800C048EA0C08A5
:1035A000C0F80880D0F804C02CEA050C0D79C5F3EA
:1035B00000159D4045EA0C0545600D79ED43AD07CA
:1035C0000ED0C5684FEA430804FA08FC25EA0C054A
:1035D000D1F808C00CFA08FC4CEA050CC0F80CC085
:1035E0000D7905F00305022D16D1DD0800EB850CE1
:1035F000CDF808C0DCF820805D074FEAD56C07FAEB
:103600000CF528EA05080D6905FA0CF5DDF808C087
:1036100045EA0805CCF8205005684FEA430CCDF880
:1036200008C004FA0CFC25EA0C0591F804C00CF063
:103630000308DDF808C008FA0CF848EA0508C0F8E5
:1036400000804D6815F4403F7CD0444DD5F860C0F3
:1036500000E077E04CF0010CC5F860C02D6E23F05F
:10366000030C05F0010500953D4D65440295AD68DC
:103670004FEA837C4FEA1C7807FA08FC25EA0C0520
:10368000B0F1904F06D0DFF8DCC0604505D14FF0B7
:10369000010C20E04FF0000C1DE0DFF8CCC06045CD
:1036A00002D14FF0020C16E0DFF8C0C0604502D135
:1036B0004FF0030C0FE0DFF8B8C0604502D14FF0C7
:1036C000040C08E0DFF8ACC0604502D14FF0050CF7
:1036D00001E04FF0060C0CFA08FC4CEA050C029DC8
:1036E000C5F808C0D9F80050CC46D1F804809543FD
:1036F0005FEAC82800D51543CCF80050DAF800502E
:10370000D446D1F8048095435FEA882800D5154354
:10371000CCF80050DBF80050DC46D1F8048095432B
:103720005FEA883800D51543CCF80050DEF8005029
:10373000F446D1F8048095435FEAC83800D51543B4
:10374000CCF800505B1C0A6832FA03F57FF400AF36
:1037500005B0BDE8F08F00000804014000100240F1
:10376000000001400004004800080048000C004828
:1037700000100048001400480069084000D00120F3
:1037800070470AB181617047816270470148806863
:10379000704700001C000020024881684268114404
:1037A000816070471C00002010B50024032000F049
:1037B00077F8042000F008F808B1012401E000F0D7
:1037C00025F8204610BD000070B50E4E05460024B9
:1037D000706898B14FF47A71B1FBF0F00A4909684A
:1037E000B1FBF0F000F0A4FD40B9102D06D200228C
:1037F0002946501E00F034F8356000E001242046D0
:1038000070BD00001C000020280000200C4808B5F6
:10381000016E41F001010166016E01F001010091AC
:10382000816D41F080518165806D00F08050009085
:10383000042000F035F8BDE8084000F0A1B8000011
:1038400000100240002809DB00F01F020121914016
:103850004009800000F1E020C0F80011704700002E
:10386000F0B40E4B1B680C46C3F30223C3F10705EB
:10387000042D00D90425191D072901D2002300E0D9
:10388000DB1E012606FA05F1491E214099409E40A3
:10389000761E16403143F0BC02F0A9BD0CED00E0ED
:1038A000064900F0070208684FF6FF03184040EA97
:1038B0000220034A10430860704700000CED00E04E
:1038C0000000FA052B492C4B0A6832214A432B4948
:1038D00040B1B0F5007F086829D020F4C06040F402
:1038E00080602CE00868C0F34120022804D051F821
:1038F000800F20F4807022E0D1F8800020F48070E6
:10390000C1F88000086820F4C06040F400700860CE
:10391000B2FBF3F0401C00E0401E4A69520501D59D
:103920000028F9D1486940050AD503207047C0F343
:103930004120022806D051F8800F40F480700860C2
:1039400000207047D1F8800040F48070C1F88000FA
:10395000086820F4C06040F400700860B2FBF3F027
:10396000401C00E0401E4A695205DBD50028F9D111
:10397000D8E700002800002040420F0000700040FF
:103980000248816841F480418160704700700040C6
:103990002DE9F843044600680026BB4D00035ED5C0
:1039A000A86D0027C00008D4A86D40F08050A8651D
:1039B000A86D012700F080500090DFF8D092D9F870
:1039C000001041F48071C9F80010FFF7DFFE804657
:1039D00006E000BFFFF7DAFEA0EB080002282BD8B4
:1039E000D9F80000C005F5D5D5F8900010F4407066
:1039F00014D0216D814211D0D5F89000D5F89010E7
:103A000020F4407041F48031C5F89010D5F8901042
:103A100021F48031C5F89010C5F89000C00711D08E
:103A2000FFF7B4FE804641F2883907E0FFF7AEFEAB
:103A3000A0EB0801494501D903260BE0D5F8900019
:103A40008007F3D5D5F89000216D20F4407008432D
:103A5000C5F890001FB1A86D20F08050A8652078AF
:103A6000C00707D0D5F88800616820F0030008433C
:103A7000C5F888002078800707D5D5F88800A168A8
:103A800020F00C000843C5F888002078400707D5CF
:103A9000D5F88800E16820F030000843C5F88800B8
:103AA0002078000707D5D5F88800216920F0C000EC
:103AB0000843C5F888002078C00607D5D5F88800E7
:103AC000616920F440700843C5F8880020788006BA
:103AD00007D5D5F88800A16920F440600843C5F8EF
:103AE00088002078400607D5D5F88800E16920F4E1
:103AF00040500843C5F888002078000607D5D5F85F
:103B00008800216A20F440400843C5F888002088D6
:103B1000C00507D5D5F88800616A20F44030084315
:103B2000C5F888002068800307D5D5F89C00A16AF5
:103B300020F003000843C5F89C002088800507D5C5
:103B4000D5F88800E16A20F440200843C5F88800D1
:103B5000208840050FD5D5F88800216B20F440104F
:103B60000843C5F88800206BB0F5801F03D1E868D2
:103B700040F48010E860208800050FD5D5F8880053
:103B8000616B20F440000843C5F88800606BB0F515
:103B9000800F03D1E86840F48010E8602088C004FA
:103BA0000FD5D5F88800A16B20F040700843C5F808
:103BB0008800A06BB0F1807F03D1E86840F48010EA
:103BC000E86020884FF0006180040ED5D5F88800A9
:103BD000E26B20F040601043C5F88800E06B88423B
:103BE00003D1E86840F48010E860208840040ED5D6
:103BF000D5F88800226C20F040601043C5F888009A
:103C0000206C884203D1E86840F48010E860208886
:103C100000040FD5D5F88800616C20F040500843AF
:103C2000C5F88800606CB0F1805F03D1E86840F4AB
:103C30008030E8602068C0030FD5D5F88800A16CFB
:103C400020F040400843C5F88800A06CB0F1804FD8
:103C500003D1E86840F48030E860206840030FD565
:103C6000D5F89C00E16C20F440100843C5F89C0096
:103C7000E06CB0F5001F03D1E86840F48010E86004
:103C80003046BDE8F883000000100240007000409C
:103C90002DE9F0470E4605004FF0000725D0DFF86C
:103CA000AC81D8F8000000F00F00B0420CD2D8F878
:103CB000001021F00F013143C8F80010D8F80000BF
:103CC00000F00F00B04210D12968614CC80741F2E2
:103CD000883A5AD06868DFF87C91032808D0022817
:103CE00020682DD0400500282CDB0120BDE8F0879E
:103CF00020688001F9D5E06800F00302E068C0F3B5
:103D00000310401C032A19D0534A00BFB2FBF0F045
:103D1000E268C2F306225043E268C2F34162521CD9
:103D20005200B0FBF2F0484517D9A06810F0F00F30
:103D30000CD0880711D5A86840B10EE0474AE5E7E6
:103D40008003D0E700F0BCF8484506D9A06820F011
:103D5000F00040F08000A0608027A068696820F033
:103D600003000843A060FFF711FD814606E000BF95
:103D7000FFF70CFDA0EB090151453AD8A06869682E
:103D800000F00C00B0EB810FF2D12868810714D548
:103D9000400703D5A06840F4E060A06028780007E1
:103DA00005D5A06820F4605040F4E060A060A068F1
:103DB000A96820F0F000084304E0802F03D1A06838
:103DC00020F0F000A060D8F80010404601F00F018C
:103DD000B14216D9016821F00F0131430160FFF7AC
:103DE000D5FC074607E000BFFFF7D0FCC11B5145DB
:103DF00001D903207AE7D8F8000000F00F00B042A4
:103E0000F2D12878400705D5A068E96820F4E06081
:103E10000843A0602878000706D5A068296920F427
:103E2000605040EAC100A06000F04AF8A1680C4A66
:103E3000C1F30311515C01F01F01C840094908603A
:103E400009480068BDE8F047FFF7BEBC002002400B
:103E50000010024000B4C4040024F40000127A00F0
:103E6000D4790008280000201C00002001480068C8
:103E7000704700002800002005480649006889684E
:103E8000054AC1F30221515C01F01F01C84070478F
:103E90002800002000100240E47900080548064987
:103EA00000688968054AC1F3C221515C01F01F0115
:103EB000C84070472800002000100240E479000844
:103EC000184910B58868C0F381021748012A0BD041
:103ED0008A684310C2F38102022A06D08A68C2F3BC
:103EE0008102032A03D0002010BD184610BDCA6805
:103EF00002F00304CA68C2F30312521C032C02D05E
:103F0000B0FBF2F001E0B3FBF2F0CA68C968C2F39B
:103F100006225043C1F34161491C4900B0FBF1F056
:103F200010BD0000001002400024F4002DE9F84309
:103F300004007AD02078F84DC00747D0A868E96817
:103F400000F00C0001F003010C2802D0082817D063
:103F500001E0032914D06068B0F5803F17D0B0F5B8
:103F6000A02F286817D020F480302860286820F41B
:103F7000802028606068E0B1FFF708FC064614E086
:103F80002868800322D560680028D2D01EE0286807
:103F900040F48030EDE740F480202860F7E700BF70
:103FA000FFF7F4FB801B642870D828688003F7D5DE
:103FB0000CE0FFF7EBFB064605E000BFFFF7E6FB72
:103FC000801B6428F0D828688003F7D42078800705
:103FD0004CD5A868E96800F00C0001F003010C283A
:103FE00002D004280DD001E002290AD0E0680028A0
:103FF00028682BD040F480702860FFF7C7FB064686
:1040000019E02868400502D5E068002891D068686A
:10401000217C20F0FE4040EA01606860BF480068F3
:10402000FFF7D2FB002800D120E072E1FFF7AEFBE2
:10403000801B0228B8D828684005F7D56868217C1D
:1040400020F0FE4040EA016068600FE020F48070DC
:104050002860FFF79BFB064605E000BFFFF796FBD5
:10406000801B0228A0D828684005F7D420780007D4
:1040700029D560690028D5F8940013D040F00100DC
:10408000C5F89400FFF782FB064606E090E000BF0B
:10409000FFF77CFB801B022886D8D5F894008007A8
:1040A000F6D510E020F00100C5F89400FFF76EFB94
:1040B000064604E0FFF76AFB801B022878D8D5F893
:1040C00094008007F6D42078400761D5A86D0026BB
:1040D000C00008D4A86D40F08050A865A86D0126E6
:1040E00000F0805000908E480168C90511D4016825
:1040F000804641F480710160FFF748FB074604E009
:10410000FFF744FBC01B022852D8D8F80000C005B6
:10411000F6D5A068012815D00528D5F8900016D04E
:1041200020F00100C5F89000D5F8900020F00400C0
:10413000C5F89000A06841F28838B8B1FFF726FBB7
:1041400007460EE0D5F8900040F00100F0E740F09F
:104150000400C5F89000F5E7FFF718FBC11B4145C7
:1041600026D8D5F890008007F6D50CE0FFF70EFBB7
:10417000074604E0FFF70AFBC11B414518D8D5F8F4
:1041800090008007F6D41EB1A86D20F08050A8657D
:104190002078800629D5A0690028D5F8980013D08A
:1041A00040F00100C5F89800FFF7F0FA064606E077
:1041B00075E000BFFFF7EAFA801B02286FD8D5F838
:1041C00098008007F6D510E020F00100C5F89800AF
:1041D000FFF7DCFA064604E0FFF7D8FA801B022856
:1041E0005DD8D5F898008007F6D4E069F0B3A968E7
:1041F000C1F3810103295DD00228286820F0807076
:10420000286003D0FFF7C2FA04464BE0FFF7BEFA7E
:10421000064604E0FFF7BAFA801B02283FD8286858
:104220008001F7D4F4E908016FF00F0202EB0111ED
:104230000843218A5204490802EB4151A26841EA2D
:1042400002210843217D4FF07E42490802EB416183
:104250000843217B40EAC160E968324A11400843C3
:10426000E860286840F08070286000E05EE0E86860
:1042700040F08070E860FFF789FA044605E000BF6F
:10428000FFF784FA001B022809D828688001F7D5B7
:104290004CE000BFFFF77AFA001B022802D9032086
:1042A000BDE8F88328688001F4D4E8681E49084016
:1042B000E8603BE00128F3D0E868226A00F00301DF
:1042C000914226D1616A00F0F00209011039914251
:1042D0001FD1A26A00F4FE41B1EB022F19D194F86C
:1042E0002C2000F07841B1EBC26F12D1218E00F486
:1042F000C00249084905A1F50011914209D194F87D
:10430000341000F0C06049084906A1F100718142F3
:104310000CD00120C4E70000001002401C00002067
:10432000007000400C809F01FCFFEEFE0020B7E70C
:1043300010B5401EB0F1807F01D3012010BD4FF0B9
:10434000E02460610F21601702F051F80020A061A5
:1043500007202061002010BD7047704770470000A3
:1043600030B590F83C20012A45D0012280F83C204D
:10437000CA688B6822F440721A434B6822F4806248
:104380001A430B6822F400621A430B6922F480522C
:104390001A434B6922F400521A430B6B22F48042F9
:1043A0001A430B8B22F4702242EA0342CB6922F0BB
:1043B00080521A43114D03680024AB4205D0104DC2
:1043C000AB4202D00F4DAB4210D10D8D22F47002E2
:1043D00042EA05520D6A22F080722A434D6A22F0A9
:1043E00000722A43C96A22F000520A435A6480F8D4
:1043F0003C40002030BD022030BD0000002C0140B8
:104400000034014000500140704770477047000081
:10441000F0B590F83C20012A43D0012580F83C50AB
:10442000022280F83D2003685A689C681E4E1F4F88
:10443000DFF87CC0B34203D0BB4201D0634504D156
:1044400022F4700E4A6842EA0E02DFF868E002EADF
:104450000E02D1F800E04EEA020EC3F804E0026852
:10446000B24212D0B2F1804F0FD0134B9A420CD00F
:10447000124B9A4209D0124B9A4206D0BA4204D04B
:10448000104B9A4201D0624504D1896824F0800320
:104490001943916080F83D50002180F83C10084697
:1044A000F0BD0220F0BD0000002C014000340140AE
:1044B000005001408FFFFFFD000400400008004055
:1044C000000C00400040014010B50446022249B1F2
:1044D00004290ED0082913D094F84700012816D0DB
:1044E000012010BD94F844000128F9D184F844203B
:1044F0000FE094F845000128F2D184F8452008E047
:1045000094F846000128EBD184F8462001E084F8B5
:1045100047200422206801F0A4FA2068416C41F48D
:104520000041416413492068884214D0B0F1804FA3
:1045300011D0114988420ED0104988420BD0104941
:10454000884208D00F49884205D00F49884202D0DE
:104550000E49884207D181680D4A1140062906D0CC
:10456000B1F5803F03D0016841F0010101600020F6
:1045700010BD0000002C0140000400400008004075
:10458000000C004000340140004001400050014058
:104590000700010070B504460D460068002201F0D6
:1045A00060FA2068036A41F211110B4244F244425E
:1045B00006D1036A134203D1436C23F400434364DE
:1045C0002068036A0B4206D1016A114203D10168D7
:1045D00021F00101016001203DB1042D08D0082D1A
:1045E00009D084F84700002070BD84F84400FAE741
:1045F00084F84500F7E784F84600F4E7704710B503
:10460000040003D094F83D0010B107E0012010BD74
:10461000002084F83C00204600F022F8022084F8B4
:104620003D00211D206801F09DF9012084F848001B
:1046300084F83E0084F83F0084F8400084F841008C
:1046400084F8420084F8430084F8440084F845006C
:1046500084F8460084F8470084F83D00002010BD2F
:1046600008B500680F4988421AD10F48016E41F41D
:1046700000610166006E012200F4006000900421D8
:104680001820FFF7EDF81820FFF7DCF8002211469C
:104690001920FFF7E5F8BDE808401920FFF7D2B868
:1046A00008BD0000002C01400010024090F83D10B1
:1046B000012901D001207047022180F83D100168D6
:1046C000CA6842F00102CA6000681349884214D0E7
:1046D000B0F1804F11D0114988420ED01049884264
:1046E0000BD01049884208D00F49884205D00F49A5
:1046F000884202D00E49884207D181680D4A114094
:10470000062906D0B1F5803F03D0016841F00101D0
:104710000160002070470000002C014000040040B0
:1047200000080040000C00400034014000400140FF
:1047300000500140070001000168CA6822F0010230
:10474000CA6001680A6A41F211131A4207D10A6A63
:104750009B001A4203D10A6822F001020A6001217B
:1047600080F83D100020704770B5044690F83C007A
:10477000002501281CD0012684F83C60022084F822
:104780003D0022689068334B184020F47F409060D1
:104790000868B0F5005F2ED016DC402849D009DC4F
:1047A000D0B1102818D0202816D0302849D113E0D5
:1047B000022070BD50282AD0602830D070280FD039
:1047C000B0F5805F3DD13DE010F00F0F39D1011100
:1047D000A1F58031072934D822680146104625E02A
:1047E000CB68D1E90121206801F048F9206881688F
:1047F00041F0770109E0CB68D1E90121206801F09F
:104800003DF92068816841F4804181601AE0CA68FE
:104810004968206801F006FB5021206806E0CA685C
:104820004968206801F00FFB6021206801F030F931
:1048300008E0CA684968206801F0F4FA402120685D
:10484000F4E7012584F83D60002084F83C00284608
:1048500070BD000088FFCEFF70472DE9F04104468F
:104860000068C66805694FF00007A90713D5B107AE
:1048700011D5F91E01610120207720688069800729
:10488000204602D0FFF7E8FF04E000F001F92046DF
:1048900000F0C3F92777680716D5700714D521688B
:1048A0006FF004000861022020772068806910F40E
:1048B000407F204602D0FFF7CFFF04E000F0E8F889
:1048C000204600F0AAF92777280715D5300713D519
:1048D00021686FF008000861042020772068C06913
:1048E0008007204602D0FFF7B7FF04E000F0D0F8C1
:1048F000204600F092F92777E80616D5F00614D581
:1049000021686FF010000861082020772068C069D6
:1049100010F4407F204602D0FFF79EFF04E000F035
:10492000B7F8204600F079F92777E80708D0F007B4
:1049300006D021686FF001000861204600F054FAAB
:10494000280601D4A80408D5300606D521686FF4DE
:10495000025008612046FFF700FDE80508D5300643
:1049600006D521686FF4807008612046FFF7F4FCDB
:10497000680608D5700606D521686FF0400008610A
:10498000204600F032FAA80608D5B00606D5216800
:104990006FF0200008612046FFF7E0FCE80208D530
:1049A000F00206D521686FF4801008612046FFF7F9
:1049B0002CFDA80208D5B00206D521686FF40010BE
:1049C00008612046FFF720FD680208D5700206D571
:1049D00021686FF4800008612046FFF717FD280268
:1049E0000AD5300208D521686FF40000086120461E
:1049F000BDE8F041FFF702BEBDE8F08170B586B0BA
:104A0000044614216846FBF74FFC1E492068884283
:104A100035D11D48C16C41F00201C164C16C01F087
:104A200002010591C16C41F00101C164C06C022416
:104A300000F0010005904FF4C040CDE90004134E92
:104A40000625029469463046CDE90345FEF770FD20
:104A5000A003CDE9000404200294CDE90340694697
:104A60003046FEF765FD4FF4E060CDE900040294A6
:104A700069464FF09040CDE90345FEF759FD06B079
:104A800070BD0000002C01400010024000040048EE
:104A9000704770B5044690F83C0000260D4601288A
:104AA0000BD0012084F83C000C2A4AD007DC82B1EC
:104AB000042A20D0082A06D131E0022070BD102A35
:104AC00053D0142A63D00126002084F83C003046DD
:104AD00070BD206800F0E6FF2068816941F00801A0
:104AE00081612068816921F0040181612068816908
:104AF0002A69114311E0206801F02AF820688169D1
:104B000041F4006181612068816921F480618161E3
:104B1000206881692A6941EA02218161D4E720681D
:104B200001F066F82068C16941F00801C1612068A0
:104B3000C16921F00401C1612068C1692A6911437A
:104B400011E0206801F0A4F82068C16941F4006117
:104B5000C1612068C16921F48061C1612068C169B7
:104B60002A6941EA0221C161AEE7206801F0E0F85C
:104B70002068016D41F0080101652068016D21F098
:104B8000040101652068016D2A69114311E0206864
:104B900001F00AF92068016D41F4006101652068A7
:104BA000016D21F4806101652068016D2A6941EA87
:104BB0000221016588E710B5040003D094F83D0098
:104BC00010B107E0012010BD002084F83C00204611
:104BD00000F022F8022084F83D00211D206800F03A
:104BE000C1FE012084F8480084F83E0084F83F00AC
:104BF00084F8400084F8410084F8420084F84300BF
:104C000084F8440084F8450084F8460084F847009E
:104C100084F83D00002010BD7047704770B5044611
:104C2000022269B1042912D0082917D00C291CD0FE
:104C3000102921D094F84300012824D0012070BD10
:104C400094F83E000128F9D184F83E201DE094F844
:104C50003F000128F2D184F83F2016E094F840008C
:104C60000128EBD184F840200FE094F8410001289E
:104C7000E4D184F8412008E094F842000128DDD115
:104C800084F8422001E084F843200122206800F0EB
:104C9000DBFE1D4920681D4A1D4B1E4D88420BD06E
:104CA000904209D0984207D01B4EB04204D01B4E10
:104CB000B04201D0A84203D1466C46F40046466497
:104CC0002068884211D0B0F1804F0ED0144988423C
:104CD0000BD01449884208D01349884205D090422D
:104CE00003D0984201D0A84207D181680F4A1140F1
:104CF000062906D0B1F5803F03D0016841F00101DB
:104D00000160002070BD0000002C01400034014013
:104D10000040014000500140004401400048014073
:104D20000004004000080040000C004007000100A3
:104D300030B504460D460068002200F085FE244B85
:104D400041F2111120688A0098420ED0214B9842FE
:104D50000BD0214B984208D0204B984205D0204BD5
:104D6000984202D01F4B984209D1036A0B4206D1E8
:104D7000036A134203D1436C23F400434364206865
:104D8000036A0B4206D1016A114203D1016821F086
:104D90000101016001205DB1042D0CD0082D0DD062
:104DA0000C2D0ED0102D0FD084F84300002030BD04
:104DB00084F83E00FAE784F83F00F7E784F8400003
:104DC000F4E784F84100F1E784F84200EEE70000E0
:104DD000002C0140003401400040014000440140EB
:104DE00000480140005001407047704790F884101F
:104DF000012918D0012180F884102421C0F88810DE
:104E000001680A680B6823F001030B6022F000516F
:104E100000224266036819602021C0F8881080F8DB
:104E20008420104670470220704770B5044690F801
:104E3000840001281DD0012084F884002420C4F8B7
:104E4000880020680568026822F00102026020687C
:104E5000826822F060620A438260204601F006F810
:104E6000206805602020C4F88800002084F88400B1
:104E700070BD022070BD70B5044690F88400012812
:104E80001DD0012084F884002420C4F88800206804
:104E90000568026822F0010202602068826822F040
:104EA00060420A438260204600F0E0FF206805600F
:104EB0002020C4F88800002084F8840070BD0220FF
:104EC00070BD10B5040003D0D4F8880010B107E01D
:104ED000012010BD002084F88400204600F026F850
:104EE0002420C4F888002068016821F001010160D5
:104EF000A06A10B1204600F0DBFF204601F0BCF8AC
:104F00000128E6D02068416821F490414160206882
:104F1000816821F02A0181602068016841F0010167
:104F200001602046BDE8104001F026B8F0B59BB006
:104F30000646142115A8FBF7B7F954216846FBF77C
:104F4000B3F93149306888425CD101200024CDE9B1
:104F500000046846FEF71CFD08B1FBF79AFF2B48DA
:104F6000016E41F480410166016E01F480411A91A5
:104F7000C16C41F00201C164C06C15A900F00200CF
:104F80001A90C02015900220CDE916040720CDE923
:104F900018401F48FEF7CCFA1F4D1E488027286096
:104FA0001820C5E90104C5E903476C61AC61EC61F7
:104FB00028462C62FEF74EFA08B1FBF76AFFC6F8E6
:104FC0008050AE62144D13486035143028601920AB
:104FD000686005F10801102081E891006C61AC6106
:104FE000EC6128462C62FEF735FA08B1FBF751FF59
:104FF000F567012203212520AE62FEF731FC252052
:10500000FEF720FC1BB0F0BD00380140001002404C
:105010000004004808000240100200202DE9F84377
:105020000446D0F88800984616460D46202802D03F
:105030000220BDE8F883A5B19EB10020C4F890001D
:105040002120C4F888001834FEF7A0FBA68781460B
:10505000E68754F8100C2027183CB0F5805F02D08A
:1050600003E00120E5E7206910B12E46002510E09D
:1050700000260EE08021204601F04AF9C0B9DEB1D9
:1050800016F8010B21688862B4F85600401EA4F897
:105090005600B4F856004B464FF00002CDF80080A1
:1050A0000028E7D14FF04001204601F031F940B12E
:1050B000C4F888700320BCE735F8020BC0F3080081
:1050C000E0E7C4F888700020B3E7FEE700EB81005A
:1050D000006E00F0F840704700EB8100006E00F0B9
:1050E000F84070478068C0F3C00070478068C0F324
:1050F000C00070478068C0F3800070478068C0F3CC
:1051000080007047C06810F4406F01D000207047E5
:1051100001207047042303EAD15310B518444369B2
:10512000C1F3045107248C40A3438A4013434361D5
:1051300010BD042303EAD15310B518444369C1F3E9
:10514000045107248C40A3438A401343436110BD9C
:1051500000EB8100016E21F00041114301667047B0
:1051600000EB8100016E21F00041114301667047A0
:1051700070B59AB000241794189420210FA81994A0
:10518000FBF792F83C216846FBF78EF835484FF064
:10519000A041042501604FF44031C0E9011485614C
:1051A0000121C460C0E9044104774177016280F8BD
:1051B0002440C462046380F838400903C16380F866
:1051C0004040FDF743FD08B1FBF763FE7F21254812
:1051D000FCF740FC08B1FBF75CFE17A921481794C7
:1051E000FDF7ECF808B1FBF754FE1F480F900620BE
:1051F000109007207F26CDE91106CDE913540FA9A1
:105200001848FDF78BF908B1FBF743FE17480090EB
:10521000092001900220CDE90206CDE9045408904E
:1052200080208DF824408DF825400A900B908DF851
:1052300026408DF8304069460A48FCF757FC08B113
:10524000FBF727FE0A48009040F20F1001906946D4
:105250000448FCF74BFC002801D0FBF71AFE1AB0FB
:1052600070BD00006C0300201000C0108000501DB5
:105270000001802130B58FB03C216846FBF714F85F
:1052800030482F49002401604FF44031C0E9011437
:10529000042585610121C460C0E904410477447795
:1052A000016280F82440C462046380F83840C4631B
:1052B00080F84040FDF7CAFC08B1FBF7EAFD7F210A
:1052C0002048FCF7C7FB08B1FBF7E3FD1E48009040
:1052D00009200190022002907F200594CDE903056A
:1052E0000320089080208DF824408DF825400A90F6
:1052F0000B908DF826408DF8304069461148FCF738
:10530000F5FB08B1FBF7C5FD1048009040F20F1007
:10531000019069460B48FCF7E9FB08B1FBF7B9FDC2
:105320000B48009040F21520019069460548FCF7B3
:10533000DDFB002801D0FBF7ACFD0FB030BD000055
:1053400000010050D80300208000501D0001802182
:105350000002B025074910B5054808600846FDF76A
:10536000AEFE002803D0BDE81040FBF792BD10BD93
:10537000000C02404403002000B58DB03021684687
:10538000FAF792FF1149104808600846FDF7ACFF94
:1053900008B1FBF77EFD0220009000208DF804008C
:1053A0008DF805000290039001210490CDE90501DC
:1053B0000246079069460548FDF7B0FE002801D077
:1053C000FBF767FD0DB000BD000800501C03002076
:1053D00000B58DB030216846FAF766FF11491048D4
:1053E00008600846FDF780FF08B1FBF752FD022078
:1053F000009000208DF804008DF8050002900390C5
:1054000001210490CDE9050102460790694605484F
:10541000FDF784FE002801D0FBF73BFD0DB000BD79
:10542000000C0050300300200D4808B5816C41F09D
:1054300004018164816C01F004010091816C41F0F0
:1054400001018164806C002200F0010000900321C2
:105450000B20FEF705FABDE808400B20FEF7F2B975
:10546000001002402DE9F04186B014216846FAF799
:105470001BFF3048C16C41F00401C164C16C01F0F4
:1054800004010591C16C41F02001C164C16C01F0BF
:1054900020010591C16C41F00101C164C16C01F0B2
:1054A00001010591C16C41F01001C164C16C01F0B2
:1054B00010010591C16C41F00201C164C06C1E4F26
:1054C00000F002004FF400540590002221463846B7
:1054D000FEF757F90122DFF8648016033146404693
:1054E000FEF74FF90125CDE90045002402946946F5
:1054F00038460394FEF71CF80096CDE9015469463E
:1055000040460394FEF714F8A80300904FF40410EB
:10551000CDE9010569460A48FEF70AF80022032191
:105520002820FEF79DF92820FEF78CF906B0BDE88B
:10553000F08100000010024000080048000400480C
:105540000010004830B59BB0002419941A941794A9
:105550001894149415941C2168461694FAF7A4FE26
:10556000342107A8FAF7A0FE3E483D49C0E90014DF
:105570002021816041F2BF41C1604FF4807101611F
:105580000121C0E90514FFF73AF808B1FBF781FCE7
:105590004FF48050179017A93248FFF7E5F808B18B
:1055A000FBF777FC2F48FFF706FB08B1FBF771FC10
:1055B0007025CDE9145414A92A481694FEF728FF43
:1055C00008B1FBF766FC6020009040F65F20CDE953
:1055D000010403940494059400226946214806942A
:1055E000FFF757FA08B1FBF754FC042269461D483F
:1055F000FFF74FFA08B1FBF74CFC0822694619483F
:10560000FFF747FA08B1FBF744FC0C22694615483E
:105610000095FFF73EFA08B1FBF73BFC4FF4006042
:1056200007904010CDE908045520CDE90A044FF455
:105630000050CDE90C0400030E94CDE90F40032087
:10564000CDE9110407A907481394FEF789FE08B1B4
:10565000FBF71FFC0348FFF7D1F91BB030BD00007A
:10566000002C0140D0020020184810B516490160F6
:105670004FF4E1314160002181600C22C160C0E93A
:1056800004128161C161016241628162FFF719FC0C
:1056900008B1FBF7FEFB00210C48FFF7ECFB08B15B
:1056A000FBF7F7FB00210948FFF7BFFB08B1FBF749
:1056B000F0FB0648FFF79AFB002803D0BDE8104036
:1056C000FBF7E7BB10BD0000003801407C01002063
:1056D000FEE7FEE7B4EEC10AF1EE10FA02DDB0EE2D
:1056E000410A7047B4EEE00AF1EE10FAF9D2B0EEDA
:1056F000600A704700280DD080EC020A9FED060A70
:1057000080ED020A80ED031AC0ED041A80ED051A3F
:10571000C0ED061A7047000000000000002803D00A
:105720009FED020A80ED020A7047000000000000B1
:1057300010B504002DED048B41D030EE608A94ED5D
:10574000000AD4ED010A60EE088A60EE880A94ED42
:10575000020A00EE810A94ED041AD4ED030AFFF761
:10576000B9FFB0EE409A94ED061A78EE898AD4ED2E
:10577000050AB0EE680AFFF7ADFFF4EE408AF1EEDD
:1057800010FA17D0D4ED060AF4EEE80AF1EE10FA9A
:1057900004D2B5EEC08AF1EE10FA0BD3D4ED050AAF
:1057A000F4EEE80AF1EE10FA06DDB5EEC08AF1EE8D
:1057B00010FA01DD84ED029ABDEC048B10BD9FED63
:1057C000010AF9E70000000070B5364C05462DEDE2
:1057D000068BDFED308A9FED30AADFED30AA9FED1A
:1057E000308A94ED020A01F011F8F0EE400A94EDCF
:1057F000020AB0EE609A00F061FFF0EE400A95ED0B
:10580000040AF0EE609AD5ED050A20EE000A00EEDB
:10581000A00A01F0C3F8D5ED050A10EE100A2249DE
:1058200020EEA91AD5ED040A884200EEC91A03DD5C
:10583000C1EE000AB0EE601AD4ED040A21EE2A0A85
:105840001A4940EE280AC4ED040A41EE0A0AC4EDE2
:10585000030A94ED020A00EEA80A84ED020A01E0B0
:1058600030EE480A10EE100A8842F9DA84ED020A96
:1058700002E000BF30EE080AB5EEC00AF1EE10FA01
:10588000F8D384ED020AC5ED060A85ED070ABDECE2
:10589000068B70BD6F12833800007A4300803B4650
:1058A000DB0FC94000000020BD378635DB0FC94043
:1058B00070477047FDF770BF10B5A8B03821684633
:1058C000FAF7F2FC142123A8FAF7EEFC54210EA8F3
:1058D000FAF7EAFC0020FDF7F5FF01200090000434
:1058E000019002200324CDE907045521CDE90901E7
:1058F0000821CDE90B100D906846FEF717FB08B1A3
:1059000072B6FEE70F20CDE92304002025902690F3
:105910002790042123A8FEF7BBF908B172B6FEE771
:105920004FF400400E9040031F900EA8FEF730F891
:10593000002801D072B6FEE728B010BD0248016809
:1059400041F470010160704788ED00E00148FEF706
:1059500084BF0000D00200200148FEF77EBF000097
:10596000D00200202DE9F04F02682E4B2E4E2F4F13
:10597000DFF8BCC02F4C304D4FF0804B98420BD01D
:10598000584509D0B04207D0B84205D0604503D091
:10599000A04201D0A84204D122F070084A6842EA2D
:1059A0000802DFF89880DFF89890DFF898A0984216
:1059B00011D058450FD0B0420DD0B8420BD0604541
:1059C00009D0A04207D0404505D0484503D05045F6
:1059D00001D0A84203D122F44076CA6832434E690E
:1059E00022F08002324302608A68C2620A688262E0
:1059F000984209D0A04207D0404505D0484503D081
:105A0000504501D0A84201D10969016301214161DA
:105A10000169C90703D0016921F001010161BDE8F5
:105A2000F08F0000002C01400004004000080040FE
:105A3000000C004000340140005001400040014093
:105A4000004401400048014010B501F01F0301214E
:105A5000046A99408C430462016A9A4011430162CE
:105A600010BD10B501F00F030421046A99408C4366
:105A70000462016A9A401143016210BD10B5846846
:105A800042EA032224F47F440A432243826010BD89
:105A90008268034B1A400A4342F007018160704755
:105AA0008FFFCFFF2DE9F047056A026A22F001025D
:105AB0000262436882691F4C25F0020522400C688F
:105AC00022F0030214438A681C4E2A431A4D1C4FCD
:105AD000DFF870C0DFF87090DFF870A0A84209D03E
