:020000040800F2
:10000000402F0020B10200084B5D0008B7570008E0
:10001000495D00085D0C0008F56A0008000000005A
:10002000000000000000000000000000F1010008D6
:10003000910D0008000000004D020008D55F000887
:10004000CB020008CB020008CB020008CB0200085C
:10005000CB020008CB020008CB020008CB0200084C
:10006000CB020008CB020008CB020008210D0008DB
:10007000CB020008CB020008CB020008CB0200082C
:10008000CB020008CB020008E1030008CB02000805
:10009000CB020008CB020008CB020008CB0200080C
:1000A000816000088D600008CB020008CB020008C8
:1000B000CB020008CB020008CB020008CB020008EC
:1000C000CB020008CB020008CB020008CB020008DC
:1000D000CB020008E96A0008CB020008CB02000846
:1000E000A90D0008CB020008CB020008CB020008D3
:1000F000CB020008CB020008CB020008CB020008AC
:10010000CB020008CB020008CB020008CB0200089B
:10011000CB020008CB020008CB020008CB0200088B
:10012000CB020008CB020008CB020008CB0200087B
:10013000CB020008CB020008CB020008CB0200086B
:10014000CB020008CB020008CB020008CB0200085B
:10015000CB020008CB020008CB020008CB0200084B
:10016000CB020008CB020008CB020008CB0200083B
:10017000CB020008CB020008CB020008CB0200082B
:10018000CB020008CB020008CB020008CB0200081B
:10019000CB02000800000000CB020008CB020008E0
:1001A000CB020008CB020008CB020008CB020008FB
:1001B000CB020008CB020008CB020008CB020008EB
:1001C000CB020008CB020008CB020008CB020008DB
:1001D000CB020008CB020008DFF810D000F0EEF8E8
:1001E0000048004711880008AFF30080402F00202E
:1001F0002C4B19680868B0E8F04F80F30988BFF30A
:100200006F8F4FF0000080F31188704700000000EE
:1002100008480068006880F308884FF0000080F309
:10022000148862B661B6BFF34F8FBFF36F8F00DFE4
:1002300000BF00BF08ED00E0DFF80C00016841F4EA
:1002400070010160704700BF88ED00E0EFF30980A6
:10025000BFF36F8F134B1A681EF0100F08BF20ED0D
:10026000108A20E9F04F106009B44FF0500080F37D
:100270001188BFF34F8FBFF36F8F08F0C5FC4FF0AD
:10028000000080F3118809BC19680868B0E8F04FD5
:100290001EF0100F08BFB0EC108A80F30988BFF37E
:1002A0006F8F704750000020EFF30580704700000B
:1002B0000648804706480047FEE7FEE7FEE7FEE700
:1002C000FEE7FEE7FEE7FEE7FEE7FEE771600008F7
:1002D000D90100082DE9F05F0546002092469B46B3
:1002E00088460646814640241BE02846414647464C
:1002F000224600F053F853465A46C01A914110D393
:1003000011461846224600F03AF82D1A67EB01080C
:100310004F4622460120002100F031F817EB00097A
:100320004E41201EA4F10104DFDC484631462A4636
:100330004346BDE8F09F40EA01039B0703D009E074
:1003400008C9121F08C0042AFAD203E011F8013BC1
:1003500000F8013B521EF9D27047D2B201E000F81A
:10036000012B491EFBD270470022F6E710B5134659
:100370000A4604461946FFF7F0FF204610BD202A22
:1003800004DB203A00FA02F1002070479140C2F1EC
:10039000200320FA03F3194390407047202A04DB1E
:1003A000203A21FA02F00021704721FA02F3D040EE
:1003B000C2F120029140084319467047064C074D90
:1003C00006E0E06840F0010394E807009847103425
:1003D000AC42F6D3FFF704FF50900008709000087D
:1003E000014802F0CFBD0000100100202DE9F041CE
:1003F000044600270D46006805F008FA0646206806
:1004000005F0FCF930435DD02068C1682E4E8901AB
:1004100005D5617F012902D1217F01290BD0022D51
:100420001DD0206805F0F2F9B8B120688168C1F3E9
:10043000400169B111E00125244902E08F4232D226
:100440007F1C0268D2435206F8D440210160E8E7DD
:100450008168314041F010018160012D11D0206888
:1004600005F0CCF948B120688168C1F3400121B999
:100470008168314041F020018160022D08D0032DB8
:1004800004D0042503F0ACFB064617E00C25F9E781
:100490000825F7E703F0A4FB801B05280ED9206888
:1004A000806828420AD0E06D40F01000E065206EC0
:1004B00040F0010020660120BDE8F08120688068DE
:1004C0002842E7D10020F7E7C0FFFF7F000040A3EC
:1004D00070B50446006881688268C1F3400112F07B
:1004E000010F28D039BB816801F00D01012914D119
:1004F0008168124A1140891C8160216803200860CC
:1005000003F06EFB054612E003F06AFB401B022875
:100510000DD920688068C00709D0E06D40F0100058
:10052000E065206E40F001002066012070BD20686B
:100530008068C007E8D1002070BD0000C0FFFF7FC9
:10054000F8B50446002000902068816811F0010F82
:100550004AD18168254A114237D18168D543294063
:10056000491C81602068B0F1A04F02D02049884228
:1005700001D1204800E02048806800F0E0700002CF
:100580000DD51E481E490068B0FBF1F0401C00EB81
:100590004000800000E0401E00900028FBD103F0E6
:1005A0001FFB06461BE0816811F0010F03D1816833
:1005B0002940491C816003F013FB801B02280ED9DF
:1005C00020680068C043C00709D0E06D40F010000B
:1005D000E065206E40F0010020660120F8BD206833
:1005E0000168C943C907DED10020F8BD3F00008083
:1005F00000010050000300500007005000000020E0
:10060000400D03007047000001484068704700003B
:10061000001000E00648016841F080710160054863
:1006200000214160016841F00101016000F004B85F
:10063000FCED00E0001000E00E4A10B51068401C10
:1006400010600D4801210170002343608360C36086
:100650000361436109490A4C0968B1FBF4F101B92E
:100660000121322461438161C3611068401C106024
:1006700010BD000034000020DC0600200000002037
:1006800040420F001A4A10B51168491C11601949FF
:1006900088604B6873B1CB68834200D9C8600B692E
:1006A000834200D208614B69984207D3C41A03EB16
:1006B000141306E0C8600861486103E01C1AA3EB4C
:1006C00014134B614B685B1C02D04B685B1C4B6086
:1006D0008B6943B18B69834205D2C869401C02D043
:1006E000C869401CC8611068401C106010BD000043
:1006F00034000020DC06002001480078704700002C
:100700001400002038B5FFF77FFF04461D4801782C
:1007100006292AD2DFE801F029031B1E21240078D4
:100720008DF80000184801F09BFB06F0E5FD002065
:1007300006F098FE14486946543800F01FFE9DF8F4
:100740000000022816D111490120087012E007F0BC
:10075000C7F90FE007F026FA0CE007F079FA09E094
:1007600006F0CAFD06F08AFE04E0074801F078FBB7
:1007700006F0C2FDFFF748FF001BBDE83840FFF759
:1007800081BF000014000020B803002050050020A5
:1007900070B5204D00242C70FFF73CFF1E4800F080
:1007A00095FD1D48543001F02DFB1B48803000F0B2
:1007B00001FB1A4801F0B4F918480C3000F0C4FFEE
:1007C00016484C3000F068FE1448843001F060F8A0
:1007D00007F03CF906F0C2FD10489FED110AE83021
:1007E00004704470446080ED020AC46010306C6094
:1007F0000470EC6006F0F0FD6C70AC6007F082FAFB
:100800000548543001F02CFBBDE87040002006F094
:1008100029BE0000140000206403002068040020AA
:100820000000000010B503F0DBF90B49CA68821A1A
:1008300010D000EE102ADFED090AB8EE400A20EED3
:10084000200A81ED040AC86007F002F8BDE81040F4
:1008500007F058BA10BD0000140000206F12833A50
:10086000DFED0A0A20EE200AB5EEC00AF1EE10FA1A
:1008700002D29FED070A06E010EE100A05498842F1
:1008800001DD9FED050A054801F066B8DB0FC940A0
:10089000000000000000914300009143EC040020A0
:1008A00070B500212DED028B394804F0EFFB0421D7
:1008B000374804F0EBFB0821354804F0E7FB002142
:1008C000334804F043F80421314804F03FF808218C
:1008D0002F4804F03BF82E4804F02AF92D4802F086
:1008E0002BFE01212C4800F0A9FD2A4801F0C6FE8C
:1008F0002A4801F053FF2A4800F034FF28484030CE
:1009000000F0CCFD2448803000F0B4FA24480C38C4
:1009100001F018F922480C3801F01AF91E48002499
:100920009FED208A046480ED118A80ED128A80EDAB
:10093000138A00F007FD07F089F806F00FFD18484C
:10094000194DDC3004704470446080ED028AC4604C
:1009500010306C600470FFF76FFE1148B0EE480A6B
:10096000783000F0DAFF06F037FD6C7003F038F9EC
:10097000E8600948543001F073FA002006F072FD77
:1009800001202870BDEC028BBDE8704007F0BAB9B9
:100990007C010020A400002064030020100100203E
:1009A00074040020000000001400002010B507F0BF
:1009B0009DF91A4801F09EFF194801F0C5FF17483C
:1009C00002F056FE174804F0F3F80021154804F031
:1009D00023F80421134804F01FF80821114804F0FB
:1009E0001BF800210F4804F0DBFB04210D4804F044
:1009F000D7FB08210B4804F0D3FB00210A4800F084
:100A00001DFD0A4800210170416007F01FF806F043
:100A1000A5FCBDE8104007F075B90000A400002057
:100A2000100100207C01002064030020140000203D
:100A30000EB5144A062002F154018DE80700C201E8
:100A4000002311A1134808F053F9134A032002F1BF
:100A500054018DE8070000234FF480720FA1104865
:100A600008F046F90F4A012002F154018DE8070011
:100A7000820200230CA10E4808F03AF9BDE80E40AE
:100A800008F088B8FC060020466F634D6564697500
:100A90006D00000029200008501300204B657900EC
:100AA000B9570008A417002044656275670000006C
:100AB000930D000872B60349087800220A7062B6E6
:100AC000704700000800002070B54FF48045A84230
:100AD00011D103F085F8084E04467068201AB0F56D
:100AE000967F08D32946054803F070F8002802D104
:100AF00001207460307070BD0800002000100048B4
:100B000070B50D462DED028BB0EE608AF0EE408A96
:100B1000044603F065F80022A5B12578184B0121A1
:100B2000C5B162781AB3E168411A78290FD3E06041
:100B300093ED020A30EE080ABDEC028BBDE870406E
:100B400000F036B822706270C4E90102E260BDECC8
:100B5000028B70BD6568451B142DF8D3217062703F
:100B6000A060E06093ED020A30EE280AE4E7A26894
:100B7000821AB2F5FA7FEAD36170E060E7E700001D
:100B80000800002070B5074B074C0020586047CC88
:100B9000064DB2EE080A47C517CC85E8170083ED6D
:100BA000020A70BD08000020E88F00081C03002026
:100BB00010B59FED061ADFED060A07F005FA0548A5
:100BC00080ED020ABDE81040FFF74ABEA69E3842FB
:100BD000045685410800002010B59FED051ADFED91
:100BE000050A07F0F1F9044880ED020A10BD000083
:100BF000A69E3842045685410800002070B5134D6A
:100C00004FF48051284602F0E1FFD8B15FF00004B4
:100C10004FF40051284602F0D9FFA8B10025DFEDBE
:100C20000C0AB6EE000A21460A48FFF769FF29467A
:100C3000BDE870400748DFED080ABEEE000A10303C
:100C4000FFF75EBF0124E3E70125E8E70010004855
:100C5000CDCC4C3E1C030020CDCC4CBEFEE70000AA
:100C600000280BD0B0EE001A80ED000A00EE810AD9
:100C7000DFED030A20EE200A80ED010A7047000034
:100C80003ACD133F7CB50D46040021D0002D1FD076
:100C900001A9684600F004FD94ED000ADDED010AAB
:100CA0009DED001A20EE200AD4ED010A00EEC10AE3
:100CB00085ED000A94ED000ADDED000A9DED011AB4
:100CC00020EE200AD4ED010A00EE810A85ED010A2A
:100CD0007CBD7CB50D46040021D0002D1FD001A99C
:100CE000684600F0DDFC94ED000ADDED010A9DEDA3
:100CF000001A20EE200AD4ED010A00EE810A85EDEB
:100D0000000A94ED010ADDED010A9DED001A20EEC6
:100D1000200AD4ED000A00EEC10A85ED010A7CBD6F
:100D2000014802F064BD00005C0200200D49026829
:100D30008A4201D20C4901E00B492031D2B214237E
:100D4000083AB2FBF3F2436C02F01F0223F00303F4
:100D50001944816404498031C164012191400165D5
:100D60007047000008040240000802400179074A69
:100D700002EB81024265054A4432491E826501F058
:100D80001F0201219140C16570470000FC0802402C
:100D9000704708B507F0FEFF0090FFF733FC142101
:100DA000684607F0BDFFF8E74FF4804002F0DEBD73
:100DB00072B6FEE710B504001AD0F2EE0B1ABAEEC6
:100DC0000B1ADFED0C0A9FED0C0A04F0CFFFF2EED8
:100DD0000B1ABAEE0B1ADFED090A9FED090A04F1AE
:100DE0001C0004F0C3FF2046BDE8104000F042B8EC
:100DF00010BD000000802644AE47F13F0020504562
:100E0000AE47714070B504002DED028B84B04FF0F9
:100E100000001D461646B0EE408A029003900090F6
:100E2000019022D0002920D0103102A891EC030AB1
:100E3000FFF716FF6946B0EE480A02A8FFF749FF20
:100E40009DED000A84ED100A9DED010A84ED110A62
:100E500084ED208A1EB1DDE90201C6E90001002D02
:100E600003D0DDE90001C5E9000104B0BDEC028B4F
:100E700070BD000010B504002DED028B22D004F0EF
:100E800089FF04F11C0004F085FF9FED108AB7EE86
:100E9000000A84ED0E8A84ED0F0A84ED108A84ED39
:100EA000118A84ED128A84ED138A204607F0BCF87B
:100EB00084ED1C8A84ED1D8A84ED1E8A84ED1F8AD0
:100EC00084ED208ABDEC028B10BD00000000000004
:100ED000F0B504002DED068B87B04FF000001D46E5
:100EE00005901646F0EE428AF0EE419AB0EE60AA06
:100EF000F0EE40AA02900390049000909FED4B9A70
:100F0000B0EE618A01907DD000297BD0B5EEC08A19
:100F1000F1EE10FA02D2B0EE498A06E018EE100A9D
:100F2000B0F17E5F01DDB7EE008A04AB0022B0EEC7
:100F30006A0A2046FFF766FF84ED0EAAC4ED0F9AF9
:100F4000B0EE680A204607F0CDF804F11C00B2EEBE
:100F50000B0A074607F0C6F8DFED359AB5EEC08AF2
:100F6000F1EE10FA03D8204604F014FF0AE0DDED9C
:100F7000040A94ED0E0AB0EE691A204604F014FF3C
:100F8000B1EE409A84ED129A29EE080A8DED000A1E
:100F9000B4EEE80AF1EE10FA02DDCDED008A08E0C9
:100FA000F1EE680AB4EEE00AF1EE10FA01D2CDEDEE
:100FB000000ADDED050A94ED0F0AB0EE691A384615
:100FC00004F0F2FEB1EE400A8DED010A84ED130A41
:100FD000204607F029F8B2EE0B0A684601A907F08F
:100FE0003BF802A9B0EE6A0A6846FFF74BFE9DED9A
:100FF000000A84ED1C0A9DED010A84ED1D0A9DED99
:10100000020A00E00EE084ED1E0ADDED030AC4EDE5
:101010001F0A0EB186ED000A002D03D094ED1F0AC1
:1010200085ED000A07B0BDEC068BF0BD00000000A6
:101030006F128338F0B504002DED088B87B04FF0A8
:1010400000001D4616460590F0EE43AAB0EE62BAC7
:10105000F0EE428AF0EE419AB0EE60AAF0EE40BAAD
:1010600002900390049000909FED579AB0EE618A31
:1010700001907DD000297BD0B5EEC08AF1EE10FA48
:1010800002D2B0EE498A06E018EE100AB0F17E5F97
:1010900001DDB7EE008A04AB0022B0EE6B0A2046F9
:1010A000FFF7B0FE84ED0EAAC4ED0F9AB0EE680A09
:1010B000204607F017F804F11C00B2EE0B0A0746B1
:1010C00007F010F8DFED419AB5EEC08AF1EE10FAA4
:1010D00003D8204604F05EFE0AE0DDED040A94ED3C
:1010E0000E0AB0EE691A204604F05EFEB1EE409A98
:1010F00084ED129A29EE080A8DED000AB4EEE80A92
:10110000F1EE10FA02DDCDED008A08E0F1EE680A9A
:10111000B4EEE00AF1EE10FA01D2CDED000ADDEDF9
:10112000050A94ED0F0AB0EE691A384604F03CFE49
:10113000B1EE400A8DED010A84ED130AD4ED0F0AD9
:1011400094ED0E0AF0EE6A1AB0EE4B1A204606F045
:10115000DBFF9DED000AD4ED140A30EE200A8DED80
:10116000000A9DED010AD4ED150A30EE200A00E0D8
:1011700026E08DED010AB2EE0B0A684601A906F0E1
:101180006BFF02A9B0EE6B0A6846FFF77BFD9DED91
:10119000000A84ED1C0A9DED010A84ED1D0A9DEDF7
:1011A000020A84ED1E0ADDED030AC4ED1F0A0EB12A
:1011B00086ED000A002D03D094ED1F0A85ED000A8C
:1011C00007B0BDEC088BF0BD000000006F12833843
:1011D000F0B504002DED048B87B04FF000000590B2
:1011E00006901D461646B0EE418AF0EE608AB0EEDB
:1011F000409A039004900090019060D000295ED046
:1012000005AB0022B0EE490A2046FFF7FBFDC4ED16
:101210000E8A84ED0F8AB2EE0B0A204606F062FFBA
:1012200004F11C00B2EE0B0A074606F05BFF9FEDCF
:10123000268ADDED050A94ED0E0AB0EE481A204626
:1012400004F0B2FDB1EE400A8DED000A84ED120A01
:10125000DDED060A94ED0F0AB0EE481A384604F0A8
:10126000A3FDB1EE400A8DED010A84ED130A20467C
:1012700006F0DAFEB2EE0B0A684601A906F0ECFEB3
:1012800003A9B0EE490A6846FFF7FCFC9DED000A91
:1012900084ED1C0A9DED010A84ED1D0A9DED030AF3
:1012A00084ED1E0ADDED040AC4ED1F0A0EB186EDC1
:1012B000000A002D03D094ED1F0A85ED000A07B047
:1012C000BDEC048BF0BD00006F128338002835D0D0
:1012D000F3EE080A9FED1A0A002180ED000A80ED66
:1012E000010A80ED020AC0ED030A80ED040A80EDD8
:1012F000050A80ED060A80ED070A80ED080A80EDF8
:10130000090A80F8281080F8291080F82A108185B1
:10131000C185018641868186C18601874187818793
:10132000012280F83E2080F83F10016480ED110A10
:1013300080ED120A80ED130A80F85010704700000B
:1013400000000000002815D000219FED0B0A80ED61
:10135000040A80ED050A80ED060A80ED070A80ED9B
:10136000080A80ED090A80F8281080F8291080F812
:101370002A10818570470000000000002DE9F0412F
:101380000D46044609212C4801F060F91FFA80F847
:1013900040F20F11284801F059F987B240F21521A7
:1013A000254801F053F986B2002C42D033463A4624
:1013B0004146204606F08EFF404606F07FFFD4ED02
:1013C000110A384630EE200A84ED110A06F076FF45
:1013D000D4ED120A304630EE200A84ED120A06F0EF
:1013E0006DFFD4ED130A70EE200AC4ED130A206CD1
:1013F000401C2064B0F5805F1BD300EE100AF7EEAE
:10140000001A002DB8EE401A81EE810A94ED111AEF
:1014100021EE001A84ED001A94ED121A21EE001A42
:1014200020EE800A84ED011A84ED020A01D0022028
:101430002870BDE8F081000010010020002801D0D4
:1014400080F850107047002801D080F829107047AC
:10145000002801D080F83E107047000010B504004D
:1014600016D094F8500080B10A4801F087FD80B290
:1014700006F024FFF3EE090A20EE200A204684ED50
:10148000030ABDE8104006F049BFB3EE080AF5E7CD
:1014900010BD0000A4000020AFF3008000281CD085
:1014A0000021017041708170416081609FED0B0AE5
:1014B000C16080ED040A80ED050A80ED060A80ED2A
:1014C000070A80ED080A80F8241080F82510816250
:1014D000C16280ED0C0A80F83410704700000000F3
:1014E00070B504462DED028B15460E46084600F0F9
:1014F0000DFB002C28D0002E26D0002D24D094F8EF
:10150000340001280AD002281ED1284600F012F922
:10151000BDEC028BBDE8704000F090B8284600F0AA
:1015200009F9B0EE408A304600F0F0FA38EE400A91
:1015300000F09CF8B0EE408A304600F0E7FAD4EDB7
:10154000040A00EE880AE3E7BDEC028B70BD0000E0
:101550002DE9F04116460F4604004FF496554FF41E
:10156000485817D0002F15D0002E13D006F0E8FFF2
:1015700032463946204606F06BFF024694F8343076
:101580000020012143B1B7EE001A012B19D02170C0
:1015900084ED041ABDE8F0819FED250A6AB1626806
:1015A000AA4202D2521C6260F4E7217084F834101F
:1015B000E060A06284ED040AECE720706060E06007
:1015C000F8E7FAB9D4ED050A94F82420B0EEE00A61
:1015D00012F0FD0F04D110EE103A164DAB4211DDA2
:1015E000A06A142803D2401CA06214280BD3E36A1B
:1015F00020465B1CFFF752FF84F82520E362C4ED10
:101600000C0AC7E7A062E068217040450AD2401C7E
:1016100000EE100ADFED080AE060B8EE400A20EEA6
:10162000200AC7E784ED041A022084F83400B1E7E9
:101630000000000000000C420AD7A338DFED090AC1
:10164000094901E030EE600A10EE100A8842F9DA2A
:1016500002E000BF30EE200AB5EEC00AF1EE10FA4B
:10166000F8D37047DB0FC940DB0FC940DFED090A33
:10167000094901E030EE600A10EE100A8842F9DCF8
:10168000064900BF10EE100A884202D930EE200A47
:10169000F8E77047DB0FC940DB0F4940DB0F49C05B
:1016A00070B50C462DED028B0546F0EE408A05F034
:1016B00043FCB0EE408AB0EE680A05F095FB0DB130
:1016C00085ED008A002C01D084ED000ABDEC028B70
:1016D00070BD000028B1D0ED040A90ED050A05F0B8
:1016E0002DBA9FED010A70470000000010B50028D8
:1016F000029C14D019B190ED000A81ED000A1AB1D4
:1017000090ED010A82ED000A1BB190ED020A83ED13
:10171000000A002C03D090ED030A84ED000A10BDEE
:1017200010B190ED0F0A70479FED010A704700005D
:101730000000000010B190ED0E0A70479FED010A05
:10174000704700000000000010B5040007D000F052
:10175000BDFB9FED030A84ED0E0A84ED0F0A10BD58
:1017600000000000FFF7F0BF10B5040037D00029DB
:1017700035D084EC020AB0EE001A91ED040A84ED33
:10178000020A91ED040AD1ED050A00EE810ADFEDAF
:10179000140A20EE200A84ED030A00F0D1FB94ED38
:1017A000070ADFED100A114930EE200ADFED0E0ABC
:1017B00002E000BF30EE600A10EE100A8842F9DA4B
:1017C00002E000BF30EE200AB5EEC00AF1EE10FADA
:1017D000F8D384ED0E0A94ED060A84ED0F0A10BDCD
:1017E0003ACD133FB7D10C40DB0FC940DB0FC940E6
:1017F00001004FF0000029D0154BCA689A4200DA68
:101800000120144B9A4201DD40F0020091ED040AE0
:10181000114AB0EEC00A10EE103A934201DD40F0DA
:10182000040091ED050AB0EEC00A10EE103A9342A2
:1018300001DD40F0080091ED060AB0EEC00A10EE9E
:10184000101A914201DD40F01000704700207047EF
:10185000000020410000F0410000704100B5002868
:1018600014D0002912D090ED070A81ED000A90ED06
:10187000080A81ED010A90ED090A81ED020A90ED56
:101880000B0A81ED030A00F029F8087400BD00007E
:1018900010B504001DD0F1EE0C1AB6EE001AF1EEF0
:1018A000000A9FED0C0A04F061FA204604F072FA77
:1018B0009FED090A002084ED070A84ED080A84EDF3
:1018C000090A84ED0A0A84ED0B0A2063606384F838
:1018D000380010BD8FC2F53D00000000002801D087
:1018E00090F83800704710B504462DED028BB0EE2D
:1018F000608A06F077FEB0EEC01A11EE101AB1F150
:101900007E5F03DAB0EE480A06F06CFEBDEC028B97
:101910002046BDE81040AFF3008010B504002DED67
:10192000028BB0EE408A14D004F034FA84ED098AB8
:1019300084ED0A8A84ED078A84ED088AB7EE000AEE
:1019400084ED0B0A02F04CF920630020606384F8F8
:101950003800BDEC028B10BD002801D080ED080AD4
:101960007047000070B504002DED048BB0EE608A66
:10197000B0EE409A53D0B7EE001ADFED4E0A9FED5D
:101980004E0A06F01FFEF0EE408A02F029F90546E5
:101990009FED4A1ADFED4A0AB0EE480A06F012FE41
:1019A000B0EE408AB0EE490A06F01CFE84ED0A0A49
:1019B000D4ED090A30EE600A48EE800AC4ED090A47
:1019C00094F83800D8B19FED3F1A94ED070AD4ED92
:1019D000081A28EE011AB5EEC01AF1EE10FA0BD96A
:1019E000B4EEE10AF1EE10FA1CD230EE010AB4EEC8
:1019F000E10AF1EE10FA1DDDB0EE610A1AE0B7EE71
:101A0000000A84ED0B0A206B281AB0F5FA7F06D382
:101A1000204604F0BFF90120656384F83800BDEC6E
:101A2000048B70BD06DD30EE410AB4EEE10AF1EE42
:101A300010FAE1D384ED070AB0EE481A204604F00C
:101A4000B3F9606B281AB0F5967F06D210EE100A33
:101A50001D49884201DA9FED1D0AB1EE0C1AF6EE1F
:101A6000000A06F0AFFDF1EE040AD4ED0B1A68EEA1
:101A7000200A31EEA01AB4EEC01AF1EE10FA02D22A
:101A800084ED0B1A0BE071EEE00AF4EEC00AF1EE01
:101A900010FA02DDC4ED0B0A01E084ED0B0A94EDAF
:101AA0000B0AB1EE0C1AF6EE000A06F08BFD84ED7F
:101AB0000B0AB4E7000000000AD7A33DCDCCCC3D13
:101AC0006F12833AE4CB96419A99993E9A99993E3E
:101AD0009FED070A40B1D0ED010A20EE800AF1EE39
:101AE000000A20EE200A70479FED020A70470000AE
:101AF000DB0FC9400000000010B190ED010A7047F3
:101B00009FED010A704700000000000010B190ED49
:101B1000020A70479FED010A7047000000000000B4
:101B2000002809D000219FED050A016080ED010A1F
:101B30009FED030A80ED020A70470000CDCC4C3EB9
:101B400000000000002801D0002101607047000063
:101B5000002807D09FED040A80ED010A9FED030ADB
:101B600080ED020A70470000CDCC4C3E0000000022
:101B70009FED1E1ADFED1E0A002836D090ED010AF7
:101B80001C4A10EE101A91420BDA30EE010A10EEE8
:101B9000101A80ED010A914203DDB2EE0E0A80EDCB
:101BA000010A90ED011AF1EE001A90ED020A21EE01
:101BB000211ADFED111A114A21EE201A01EE210A35
:101BC00080ED020A02E000BF30EE600A10EE101A4B
:101BD0009142F9DA02E000BF30EE200AB5EEC00A09
:101BE000F1EE10FAF8D380ED020A7047CCA7A139C4
:101BF000DB0FC940000070416F128338DB0FC94012
:101C000030B504002DED068B83B0F0EE41AAF0EE66
:101C1000608AB0EE408A9FED769A73D0F0EE480A63
:101C2000B0EE680ADFED739A9FED73AA04F086FFA9
:101C3000B5EEC00AF1EE10FA01D230EE290A20EE1C
:101C40000A0ABCEEC00A10EE100A401CC5B2062DEE
:101C500000D9062502AB01AA69462846B0EE6A1AE9
:101C6000F0EE680AB0EE480A06F0CEFC9DED020ADE
:101C7000F6EE000A062D20EE200A4FD2DFE805F02E
:101C80004E030C1722439DED001ADDED010A31EEE3
:101C9000201A31EE001A07E0DDED000ADDED011A31
:101CA00030EE801A70EEA10A70EE801A16E0DDEDBB
:101CB000001ADDED010AB0EE401A71EEA01A71EEC5
:101CC000801A09E0DDED000A9DED012AB0EE401A10
:101CD00070EE801A70EE820A30EE800AC1EE090AB8
:101CE000C1EE898A80EE098A9FED440AF5EEC00AAA
:101CF000B7EE001A4FF07E51F1EE10FA17D2F0EE67
:101D0000400A1AE070E0DDED010A9DED002AF0EED8
:101D1000401A30EE801A72EE200ADDE7DDEC020A8E
:101D2000F0EE401A30EE811A31EE001AD4E710EED0
:101D3000900A884201DDF0EE410AF5EEC08AF1EE2C
:101D400010FA02D2F0EE408A05E018EE900A8842BE
:101D500001DDF0EE418AB5EEC08AF1EE10FA02D252
:101D6000B0EE408A05E018EE100A884201DDB0EEC0
:101D7000418A2570C4ED010AC4ED028A84ED038A0C
:101D80009DED000A84ED040A9DED010A84ED050A2B
:101D90009DED020A84ED060A20EE890ABDEEC00A16
:101DA00010EE100A06F023FC28EE890AA083BDEE8F
:101DB000C00A10EE100A06F01AFC28EE090AE083A9
:101DC000BDEEC00A10EE100A06F011FC20840C488B
:101DD000A18B026851630268E18B91630068218CDA
:101DE000C163204606F0AEFC03B0BDEC068B30BDEF
:101DF00000F8A545DB0FC9404576743F00000000A0
:101E00007C010020002825D0012300F8043BB6EE19
:101E1000000A80ED000A80ED010A80ED020A9FEDC4
:101E20000E0A40F65F2180ED030A80ED040A9FED63
:101E30000B0A002280ED050A018341838183C2835E
:101E40000284418480F8243080F8253080F82620F0
:101E500080F82720704700000000000000F8A5452A
:101E600000282CD040F65F2120F81C1FB6EE000A97
:101E70004180818000ED060A00ED050A00ED040AAC
:101E80009FED0F0A002200ED030A00ED020A9FED0C
:101E90000D0A012300ED010AC28002814181037312
:101EA00043738273C273084A136859631368418885
:101EB000996313688188D963116840890864704701
:101EC0000000000000F8A5457C01002000282FD06C
:101ED00000219FED180ADFED180A80ED000A80ED61
:101EE000010A80ED020A80ED030A80ED040A80ED0C
:101EF000050A80ED060A80ED070A80ED080A80EDEC
:101F0000090A80ED0A0A80ED0B0A80ED0C0A80F8C0
:101F1000341080F835100948C0ED000A80ED010A40
:101F200080ED020A80ED030A80ED040A80ED050AC7
:101F300070470000000000002497FF3B380000209D
:101F400010B5040006D000F007F82046BDE81040A8
:101F500003F076BF10BD000070B59FED2D1A2E4D19
:101F6000DFED2A1A04462DED068BD0ED000A90ED28
:101F700002AAD5ED008A90ED010A4AEE410AD0EDA1
:101F8000039A9FED249A09EEC10A40EEA18AC5ED9D
:101F9000008A95ED018A4AEE498A00EE218A28EEF0
:101FA000A80A85ED018A09EEC98A08EE080A05F03B
:101FB0008BF810EE100A1A499FED181A884216DDA8
:101FC00010EE100A1749884211DDC1EE000A68EED2
:101FD000A08A28EE208AB0EE680A0AEE090A85ED8A
:101FE000000AB0EE480A09EE890A85ED010A28EEDA
:101FF000A80AC4ED048A84ED058A08EE080A05F0F3
:1020000063F884ED0C0ABDEC068B70BD6F1283384B
:1020100014AE073F52491D3A380000205BB13F3CE7
:102020005BB13F3CBD37863508B5FEF739FC06F09D
:10203000B1FE0090FEF7F6FB0121684606F070FE47
:10204000F8E70000F8B500260446009690F858001E
:102050000D4601280BD0012084F858002046FEF7D9
:1020600037FA0100E06D04D040F010002AE00220B1
:10207000F8BD20F4885040F00200E06520688268D6
:10208000134B1A4005F080431A4342F0004282602D
:10209000104A20680EE0009B5B1C0093934209D31A
:1020A000E06D20F0020040F01000E06584F8586018
:1020B0000120F8BD8368DB0FEDD1E06D20F0020058
:1020C00040F00100E06584F858600846F8BD000063
:1020D000C0FFFF3F02DE0400704700002DE9F84F0B
:1020E0004FF000090446CDF800900D4694F85820B2
:1020F000DFF8EC8361694F464846012A0AD0012681
:10210000F84A84F8586041B1296A012905D0A36EC4
:10211000EBB129E00220BDE8F88F6868092838D1C2
:10212000A96A4FF4785041B12B6801F07C0100EAB4
:1021300053400843E96A084302E0296800EA514035
:102140002368D96C11400143D964606621E0C4E979
:102150001971A96A286A31B101F07C01401E084357
:10216000E96A084300E0401E29682B79C1F38461C5
:1021700003F01F0399400143A06E401EA066636EEA
:1021800043EA0103636604D12168C86C1040184318
:10219000C864206803F036FB58B995F8250098B15B
:1021A0002068C16895F8262021F4401141EA425187
:1021B000C160206803F02EFB8246206803F022FBFA
:1021C0005AEA00000DD0FCE095F8260095F824109E
:1021D000400540EA01512068C26822F440121143D0
:1021E000E6E7A86A30B1E86A20B195F82500012831
:1021F0005ED003E095F82500012804D02068C1686E
:1022000021F0007103E02068C16841F00071C160F5
:1022100095F83000012852D02068016921F00201B0
:102220000161AA6829682068B2F1004F38D003F034
:102230000CFB2068416921F0004141612068696917
:10224000C268C2F3C102520091402A69042A45D0F3
:1022500000EB82002B68026EDFF88CC203F0F843BB
:1022600002EA0C020B431A4342F000410166206867
:102270002A69A96900EB8200026E22F080720A438B
:102280000266297F22682869012924D05FF00001B5
:1022900002EB8000026E22F000720A43026690E0B8
:1022A000002203F0D2FA2068416941F00041C4E7FE
:1022B000E06D40F02000E0654FF00109A8E7D5E9A6
:1022C0000D01084321680A6922F4FF7242F00202FC
:1022D00010430861A5E74FF00071D9E7002103F032
:1022E00087FA400320684FF0000172D003F080FAB3
:1022F00090FAA0F0B0FA80F1286842036ED090FA0C
:10230000A0F0B0FA80F0814204D10022114620688A
:1023100003F0B2FA0121206803F06AFA4003206852
:102320004FF001015DD003F063FA90FAA0F0B0FA2B
:1023300080F12868420359D090FAA0F0B0FA80F0FA
:10234000814204D100220121206803F095FA022184
:10235000206803F04DFA400320684FF0020148D096
:1023600003F046FA90FAA0F0B0FA80F12868420330
:1023700044D090FAA0F0B0FA80F0814204D100225B
:102380000221206803F078FA0321206803F030FA74
:10239000400320684FF0030133D003F029FA90FA8C
:1023A000A0F0B0FA80F1286842032FD090FAA0F094
:1023B000B0FA80F0814204D100220321206803F0AA
:1023C0005BFA2068816811F0010F22D0B5E000E0CF
:1023D00004E003F00DFAC0F384618DE7C0F384607C
:1023E00091E703F005FAC0F38461A2E7C0F38460CB
:1023F000A6E703F0FDF9C0F38461B7E7C0F384609A
:10240000BBE703F0F5F9C0F38461CCE7C0F3846067
:10241000D0E72A7B296850F8B03FC1F3120C23EAB9
:102420000C0302F0180C314A22FA0CF20A40134352
:102430000360E96841457DD1286841031BD090FACB
:10244000A0F1B1FA81F1491C01F01F0109294FEAFD
:10245000403131D8002911D090FAA0F1B1FA81F1C0
:1024600001F1010101F01F0106FA01F609D100BFD7
:10247000C0F3846109E0C0F38461E4E7C0F38461E0
:10248000EEE790FAA0F1B1FA81F101F1010101F05A
:102490001F0146EA816102D1C0F3846003E090FA33
:1024A000A0F0B0FA80F000F1010000F01F0000EB96
:1024B000400041EA00513AE000290ED090FAA0F124
:1024C000B1FA81F101F1010101F01F0106FA01F6F3
:1024D0000ED100BFC0F384610EE0C0F38461F1E768
:1024E00000007F400040100400F0FF03FFFF0700E2
:1024F00090FAA0F1B1FA81F101F1010101F01F019F
:1025000046EA816102D1C0F3846003E090FAA0F052
:10251000B0FA80F000F1010000F01F003A4A00EB31
:10252000400002EB005041EA000141F00071AA684E
:10253000206800E001E003F088F934482B6803428A
:102540005ED022684FF0A04C3148324E324D624589
:1025500001D0AA4201D1014600E031468968DFF886
:10256000BC8001F0E071434503D0DFF8B4804345FF
:1025700020D15FEA01281DD4624505D0294B9A423B
:102580003ED1AA4200D0304641F40001826822F0D8
:10259000E0720A438260244824490068B0FBF1F0ED
:1025A000801C00EB4000800000E0401E00900028EE
:1025B000FBD125E0DFF8788043450FD15FEAC118F1
:1025C0000CD4AA4202D11B4B9A4219D0624502D0C8
:1025D000AA4200D0304641F080710CE0DFF858800C
:1025E00043450DD14B020BD4AA4209D0624500D01D
:1025F000304641F48001826822F0E0720A43826032
:1026000084F85870484686E5000020FE00000880E7
:10261000000300500007005000010050000021C3DB
:102620001000C0900006005000000020400D030084
:10263000000052C700050050000084CB02498842C8
:1026400001D1FEF75FB87047100100200068A1F5C6
:1026500080710F390ED0B1F5837F08D0B1F5037FBB
:1026600002D0D0F880007047D0F88C007047D0F8C6
:1026700088007047D0F88400704770472DE9F0411A
:10268000044600684FF0A0453E4FA84201D0B84232
:1026900001D13D4900E03D49896801F01F0603F082
:1026A000B1F808BB2168C868C96C00F0004011F49B
:1026B000C07F00D190B194F85800012814D00120B7
:1026C00084F858002046FDF73BFF01004FF0000260
:1026D0000CD084F858200846BDE8F081E06D40F049
:1026E0002000E0650120F7E70220F5E7E06DC00576
:1026F00004D5206E20F00800206600E02266E06D20
:1027000042F20103984340F48050E0652068204B7A
:10271000DFF880C0B84201D1AE4604E0984201D152
:10272000E64600E08646864500D02EB9D4F85CE047
:102730002EF4801EC4F85CE04FF0600EC0F800E09C
:1027400084F858202068B84204D0984201D16546E8
:1027500000E00546854209D046B1062E06D0072E78
:1027600004D0E06D40F48010E065B4E7C26812F078
:10277000007FB0D18268084B1A4042F008028260A4
:10278000A9E70000000100500003005000070050BE
:102790000005005000040050C0FFFF7F2DE9F0410C
:1027A000044600684FF0A0454C4FA84201D0B84203
:1027B00001D14B4900E04B49896801F01F0603F045
:1027C00021F808BB2168C868C96C00F0004011F40A
:1027D000C07F00D190B194F85800012814D0012096
:1027E00084F858002046FDF7ABFE01004FF00002D0
:1027F0000CD084F858200846BDE8F081E06D40F028
:102800002000E0650120F7E70220F5E7E06DC00554
:1028100004D5206E20F00800206600E02266E06DFE
:1028200042F20103984340F48050E06520682E4B4B
:10283000DFF8B8C0B84201D1AE4604E0984201D1F9
:10284000E64600E08646864500D02EB9D4F85CE026
:102850002EF4801EC4F85CE04FF0600EC0F800E07B
:1028600084F858202068C268920203D5426842F476
:1028700080624260A06908282068426807D022F080
:10288000400242602068426842F0200206E022F0E6
:10289000200242602068426842F0400242602068A4
:1028A000B84204D0984201D1654600E00546854211
:1028B00009D046B1062E06D0072E04D0E06D40F4B4
:1028C0008010E06597E7C26812F0007F93D18268BC
:1028D000074B1A4042F0080282608CE7000100506A
:1028E0000003005000070050000500500004005095
:1028F000C0FFFF7F70B5044690F85800012809D04A
:10290000012084F8580002212046FDF76FFD0500E4
:1029100002D014E0022070BD206802F07BFF18B1E5
:10292000E06D20F4805009E02046FDF7D1FD050060
:1029300005D1E06D20F4885040F00100E0650020F2
:1029400084F85800284670BD70B5044690F85800C9
:10295000012809D0012084F8580002212046FDF703
:1029600045FD050002D019E0022070BD20684168D5
:1029700021F48C614160206802F04CFF18B1E06DD9
:1029800020F4805009E02046FDF7A2FD050005D1A6
:10299000E06D20F4885040F00100E065002084F8EC
:1029A0005800284670BD7047704700002DE9F04F71
:1029B000044690F858009BB00F464FF0000B0128DA
:1029C00012D0012084F85800002617961896206827
:1029D0004FF0A048DFF81C91DFF81CA1474D40459F
:1029E00006D12846009508E002201BB0BDE8F08F14
:1029F00048450AD15046CDF800A002F00BFF0090E8
:102A0000206802F007FF40B109E0E06D40F02000CF
:102A1000E06584F858600120E7E7009850B1E06D68
:102A200040F02000E0654FF0010B00BF84F85860D3
:102A30005846DAE720684146884201D0A84201D1D1
:102A40002F4800E02F48D7F800C02F4B40F61F72E8
:102A5000BCF1000F2DD0D0F808C094F838802CF4C9
:102A6000604C4CEA483CD7F804804CEA080CC0F8AB
:102A700008C0D4F800C08C4501D0AC4504D18968A9
:102A8000AB6801F0010109E0D9F80810DAF8085044
:102A900001F0010105F001059B68294303F00103E2
:102AA0001943C3D1BB6839681943836893431943F9
:102AB0001DE0876827F46047876027688F4201D050
:102AC000AF4204D18968AB6801F0010109E0D9F88F
:102AD0000810DAF8085001F0010105F001059B68C3
:102AE000294303F001031943A0D181689143816018
:102AF0009CE7000000040050000500500001005059
:102B00000003005000070050000600502DE9F84F68
:102B100000270446009790F85800DFF81C840D4603
:102B2000B946012811D0012684F85860206802F0C7
:102B30006DFE60B1E06D40F02000E0655FF00107E0
:102B400084F858903846BDE8F88F0220FBE7D5E9B5
:102B500000210C23206803EA91131844036B01F051
:102B60001F014FF01F0C0CFA01FCC2F3846223EA30
:102B70000C038A4013430363206802F047FE824639
:102B8000206802F03BFE5AEA00003CD1AA6829689E
:102B90002068B2F1004F37D002F048FE206841694A
:102BA00021F00041416120686969C268C2F3C10235
:102BB000520091402A69042A31D000EB82002B6830
:102BC000026EDFF878C303F0F84302EA0C020B430D
:102BD0001A4342F00041016622682869A96902EBA4
:102BE0008000026E22F080720A430266297F22680A
:102BF0002869012910D0002102EB8000026E22F02A
:102C000000720A4302667DE0002202F00FFE206897
:102C1000416941F00041C5E74FF00071ECE7002148
:102C200002F0E0FD400320684FF0000172D002F096
:102C3000D9FD90FAA0F0B0FA80F1286842036ED076
:102C400090FAA0F0B0FA80F0814204D1002211463F
:102C5000206802F009FE0121206802F0C3FD400354
:102C600020684FF001015DD002F0BCFD90FAA0F0A9
:102C7000B0FA80F12868420359D090FAA0F0B0FA77
:102C800080F0814204D100220121206802F0ECFD95
:102C90000221206802F0A6FD400320684FF00201E7
:102CA00048D002F09FFD90FAA0F0B0FA80F12868B9
:102CB000420344D090FAA0F0B0FA80F0814204D1EF
:102CC00000220221206802F0CFFD0321206802F0DB
:102CD00089FD400320684FF0030133D002F082FDEC
:102CE00090FAA0F0B0FA80F1286842032FD090FA51
:102CF000A0F0B0FA80F0814204D1002203212068C4
:102D000002F0B2FD2068816811F0010F22D0ACE022
:102D100000E004E002F066FDC0F384618DE7C0F3DB
:102D2000846091E702F05EFDC0F38461A2E7C0F326
:102D30008460A6E702F056FDC0F38461B7E7C0F3F4
:102D40008460BBE702F04EFDC0F38461CCE7C0F3C2
:102D50008460D0E72A7B296850F8B03FC1F3120C99
:102D600023EA0C0302F0180C754A22FA0CF20A400E
:102D700013430360E968414577D1286841031CD0BB
:102D800090FAA0F1B1FA81F1491C01F01F01092963
:102D90004FEA403132D8002912D000BF90FAA0F19A
:102DA000B1FA81F101F1010101F01F0106FA01F60A
:102DB00009D100BFC0F3846109E0C0F38461E3E797
:102DC000C0F38461EEE790FAA0F1B1FA81F101F16C
:102DD000010101F01F0146EA816102D1C0F3846064
:102DE00003E090FAA0F0B0FA80F000F1010000F0EA
:102DF0001F0000EB400041EA005132E000290ED0F4
:102E000090FAA0F1B1FA81F101F1010101F01F0185
:102E100006FA01F606D100BFC0F3846106E0C0F3F4
:102E20008461F1E790FAA0F1B1FA81F101F10101B9
:102E300001F01F0146EA816102D1C0F3846003E022
:102E400090FAA0F0B0FA80F000F1010000F01F004D
:102E50003C4A00EB400002EB005041EA000141F027
:102E60000071AA68206802F0E1FC37482B68034231
:102E70003FF466AE21684FF0A04C3448344E354DD7
:102E8000614501D0A94201D1024600E03246926874
:102E9000DFF8C48002F0E072434503D0DFF8BC8065
:102EA000434521D15FEA02281ED4614506D02C4B50
:102EB00099427FF445AEA94200D0304642F4000169
:102EC000826822F0E0720A43826026482649006840
:102ED000B0FBF1F0401C00EB4000800000E0401E21
:102EE00000900028FBD12BE6DFF8808043450FD10E
:102EF0005FEAC2180CD4A94202D11D4B9942F2D00C
:102F0000614502D0A94200D0304642F080710CE009
:102F1000DFF860804345E6D15302E4D4A942E2D011
:102F2000614500D0304642F48001826822F0E072B0
:102F30000A43826004E6000000007F4000F0FF03C7
:102F4000FFFF0700000020FE000008800003005083
:102F50000007005000010050000021C31000C09085
:102F60000006005000000020400D0300000052C782
:102F700000050050000084CB704770470068006C6B
:102F8000704700002DE9F84F044600680668456860
:102F90004FF0A048DFF89092404501D0484501D15C
:102FA000A24800E0A248806800F01F07B0070ED5D5
:102FB000A8070CD5E06DC00603D4E06D40F40060B6
:102FC000E0652046FFF788F8216802200860DFF8F6
:102FD00064B2DFF864A2700701D5680703D4300734
:102FE0003FD528073DD5E06DC00603D4E06D40F421
:102FF0000070E065206802F011FC60B3206848456D
:1030000001D1424604E0584501D1524600E0024653
:10301000824208D03FB1052F05D0092F03D0484583
:1030200003D1414606E0C16805E0584501D151464B
:1030300000E00146C96889040DD4016809070AD572
:1030400002F0E4FB58B3E06D40F01000E065206E44
:1030500040F0010020662046FFF78EFF21680C201B
:103060000860B00601D5A80603D470065FD56806CF
:103070005DD5E06DC00603D4E06D40F40050E0651E
:103080002068C16C11F4C07F1AD00021009102F0B9
:10309000C5FB02462068484514D1434617E0206826
:1030A000416821F00C014160E06D20F48070E06522
:1030B000E06DC004CFD4E06D40F00100E065CAE7E8
:1030C0000121E3E7584501D1534600E0034683421E
:1030D00008D03FB1062F05D0072F03D0484503D1B4
:1030E000414606E0C16805E0584501D1514600E07F
:1030F0000146C968009BA3B18B0102D58AB18A043D
:103100000FD4026852060CD589020AD402F076FB6D
:10311000F0B3E06D40F01000E065206E40F001007B
:1031200020662046FFF78AFA216860200860300692
:103130000BD5280609D5E06D40F48030E0652046C7
:1031400000F094F9216880200860F0050CD5E805AE
:103150000AD5E06D40F40030E0652046FFF723FC1F
:1031600021684FF480700860B0050CD5A8050AD519
:10317000E06D40F48020E0652046FFF715FC2168F3
:103180004FF400700860F00631D5E8062FD500E056
:1031900009E0E06BE8B12068EFB3404501D0484555
:1031A00012D1224811E02068416821F0600141609D
:1031B000E06D20F48050E065E06DC005B1D4E06DB5
:1031C00040F00100E065ACE71948806800F4604019
:1031D00050B1E06D40F48060E065206E40F0020088
:1031E00020662046FFF7C9FE2168102008607005A0
:1031F00017D5680515D5E06D40F48040E065206E78
:1032000040F00800206621684FF480600860204686
:10321000BDE8F84F00E001E0FFF72FBAC068C00733
:10322000D6E7BDE8F88F0000000100500003005011
:10323000000700500005005000040050F8B54FF0A2
:10324000000504002E46009502D0E06D10B107E0A5
:103250000120F8BD204600F00BF9266684F858607E
:1032600020688168C1F3407119B18168734A1140C7
:10327000816020688168C1F3007189B98168704AF2
:10328000114041F0805181606E486F490068B0FB89
:10329000F1F04000801C00E0401E00900028FBD1AF
:1032A00020688168C1F3007141B9E16D41F01001FE
:1032B000E165216E41F001012166012502F0A6FAC7
:1032C000E16DC90600D430B1E06D40F01000E0655A
:1032D00001252846F8BDE06D20F4807040F0020022
:1032E000E0652068816811F0010F27D14FF0A043FD
:1032F000564A984201D0904204D19968966801F0EC
:1033000001010AE052498968524E01F00101B66894
:1033100006F001063143504EB66806F0010631430F
:103320000CD1984201D0904201D14C4800E04C4869
:103330006168826822F47C120A438260E168E06B73
:10334000627F0843A16841EA4231084394F824109F
:1033500040EA0140012904D1218D424A02EB41415A
:103360000843E16A29B101F47871226B014342EA12
:1033700001002268D1683C4B19400143D1602068AC
:103380000169626B21F0406111430161206802F024
:1033900035FA70BB207F94F838102268800340EA29
:1033A0004100D16844F2020399430143D16020698E
:1033B0000028206801690AD041F480310161206849
:1033C00050F8C01F22696FF30D01114307E021F48B
:1033D00080310161206850F8C01F6FF30D0101605A
:1033E00094F8400001280CD02068016921F0010107
:1033F0000161606901282068016B21F00F0111D083
:1034000013E0D4E911010843D4E91312114308432E
:1034100021680A6940F2FC739A43104340F00100AE
:103420000861E6E7226A521E11430163E06D20F055
:10343000020040F00100E0654BE70000C0FFFF5FC5
:10344000C0FFFF7F00000020400D0300000100507E
:10345000000400500005005000060050000300501A
:10346000000700500000FEFF0740F0FF704700001B
:1034700070B59CB00546142115A8FCF775FF5421C2
:103480006846FCF771FF28684FF0A046B04202D0B2
:103490002549884245D12549254C0868401C0860CB
:1034A000012811D1C003009040031190684600F03C
:1034B000B7FC08B1FDF77CFCE06C40F40050E06420
:1034C000E06C00F400501A90E06C40F00400E064FE
:1034D000E06C00F004001A90E06C40F00100E06441
:1034E000E06C032100F001001A902A680020B2422B
:1034F00007D1CDE916100822159215A94FF090407A
:1035000005E0CDE916100E22159215A9094800F024
:1035100039FA00220221122000F0EAFB122000F00A
:10352000D9FB1CB070BD0000000100500400002059
:1035300000100240000800482DE9F04104460068F0
:103540004FF0A045444FA84201D0B84201D14349B1
:1035500000E04349896801F01F0602F057F918B1ED
:1035600002210846BDE8F08194F8580001280CD0EB
:10357000012084F858002046FCF7E2FF01004FF0DC
:10358000000204D084F85820EBE70220EAE7E06D5F
:1035900040F60163984340F48070E0652068314B49
:1035A000DFF8C4C0B84201D1AE4604E0984201D170
:1035B000E64600E08646864500D02EB9D4F85CE0A9
:1035C0002EF4801EC4F85CE0D4F85CE05FEACE4ED6
:1035D00006D5D4F860E02EF0060EC4F860E000E0F6
:1035E00022664FF01C0EC0F800E084F858202068D6
:1035F000B84201D12A4604E0984201D1624600E077
:10360000024682420ED06EB1052E0BD0092E09D093
:10361000E26D42F48012E265B84213D0984210D1B4
:1036200065460FE0C268920105D5E26D22F40052B2
:1036300042F48052E26582680C4B1A40121D82608F
:103640008FE70546E86880018BD5E06D20F40050D7
:1036500040F48050E06584E7000100500003005012
:10366000000700500005005000040050C0FFFF7F1D
:1036700010B5044690F85800012808D0012084F8BD
:10368000580003212046FCF7B1FE10B10BE00220E8
:1036900010BD2046FCF71CFF28B9E16D21F48851CC
:1036A00041F00101E165002184F8581010BD70B5AA
:1036B000040004D094F82100002510B106E0012098
:1036C00070BD84F82050204600F00CF865626560FB
:1036D000A560E56025610120656184F82100002076
:1036E00070BD000008B500680649884208D1064848
:1036F000816C41F008018164806C00F0080000904A
:1037000008BD0000000C02400010024010B590F807
:10371000253000210122022B03D00421C1630121A5
:1037200022E003681C6824F00E041C60836C1C6893
:1037300024F480741C6003681C6824F001041C607D
:1037400090F84430046C03F01F0302FA03F3636043
:10375000D0E913345C60436D33B11C6824F4807489
:103760001C60D0E916345C6080F82520002280F8C7
:103770002420084610BD70B590F8252000240121B2
:103780002346022A07D00422C26380F8251080F85D
:103790002430012429E00268156825F00E05156023
:1037A0000268156825F001051560826C156825F41E
:1037B0008075156090F84420056C02F01F0201FA34
:1037C00002F26A60D0E913255560426D32B1156886
:1037D00025F480751560D0E91625556080F8251010
:1037E00080F82430816B01B18847204670BDF0B469
:1037F000016C0C6801680D6890F8442002F01F0607
:10380000042202FA06F3234211D06B070FD50B688E
:103810009B0603D40B6823F004030B6090F844105C
:1038200001F01F018A40016C4A60016B1DE0022318
:1038300003FA06F727424FF0000C4FF0010218D0B0
:10384000AF0716D50C68A40605D40C6824F00A044A
:103850000C6080F8252090F8441001F01F018B4087
:10386000016C4B6080F824C0C16A00291AD0F0BCFA
:1038700008470823B340234214D02B0712D50B6806
:1038800023F00E030B6090F84410036C01F01F014D
:1038900002FA01F15960C26380F8252080F824C043
:1038A000416BE2E7F0BC704770B504000CD02B4AC6
:1038B00021681420914209D2294A0A44B2FBF0F04F
:1038C0008000606427480AE0012070BD234A52420C
:1038D0000A44B2FBF0F0800060642048083820649D
:1038E000022084F825000A6847F6F0708243D4E984
:1038F00002031843D4E904352B431843A369184342
:10390000E3691843236A1843104308602046FDF713
:103910000DFAA0680025B0F5804F00D16560A16C5C
:1039200020790860D4E9130141606068401E0328D3
:1039300008D82046FDF71AFA606D0560D4E9160133
:10394000416002E06565A565E565E563012084F8F1
:10395000250084F82450002070BD000008040240B7
:10396000F8FFFDBF00000240FDF7AEB8044910B5F6
:103970000A68024202D00860FFF7F6FF10BD00009F
:10398000140401402DE9F04FDFF8209200230126B6
:103990000324A9F1040B85B00F2709F1040AABF148
:1039A000040EFAE006FA03F52A407CD091F804C030
:1039B0000CF0030CBCF1010F02D0BCF1020F26D1B8
:1039C000D0F808C0CDF800C04FEA430C04FA0CF858
:1039D000CDF810C0DDF800C02CEA080CCDF800C00E
:1039E000D1F80C80DDF810C008FA0CF8DDF800C042
:1039F00048EA0C08C0F80880D0F804C02CEA050C8E
:103A00000D79C5F300159D4045EA0C0545600D791B
:103A1000ED43AD070ED0C5684FEA430804FA08FC31
:103A200025EA0C05D1F808C00CFA08FC4CEA050C94
:103A3000C0F80CC00D7905F00305022D16D1DD0884
:103A400000EB850CCDF808C0DCF820805D074FEA5C
:103A5000D56C07FA0CF528EA05080D6905FA0CF58E
:103A6000DDF808C045EA0805CCF8205005684FEAA3
:103A7000430CCDF808C004FA0CFC25EA0C0591F8BB
:103A800004C00CF00308DDF808C008FA0CF848EA96
:103A90000508C0F800804D6815F4403F7CD0444DC7
:103AA000D5F860C000E077E04CF0010CC5F860C0CC
:103AB0002D6E23F0030C05F0010500953D4D654486
:103AC0000295AD684FEA837C4FEA1C7807FA08FC40
:103AD00025EA0C05B0F1904F06D0DFF8DCC0604558
:103AE00005D14FF0010C20E04FF0000C1DE0DFF895
:103AF000CCC0604502D14FF0020C16E0DFF8C0C028
:103B0000604502D14FF0030C0FE0DFF8B8C060450C
:103B100002D14FF0040C08E0DFF8ACC0604502D1E0
:103B20004FF0050C01E04FF0060C0CFA08FC4CEAD3
:103B3000050C029DC5F808C0D9F80050CC46D1F854
:103B4000048095435FEAC82800D51543CCF800509F
:103B5000DAF80050D446D1F8048095435FEA88280B
:103B600000D51543CCF80050DBF80050DC46D1F806
:103B7000048095435FEA883800D51543CCF800509F
:103B8000DEF80050F446D1F8048095435FEAC83867
:103B900000D51543CCF800505B1C0A6832FA03F5D7
:103BA0007FF400AF05B0BDE8F08F000008040140CD
:103BB00000100240000001400004004800080048D6
:103BC000000C00480010004800140048006908403C
:103BD00000D0012070470AB181617047816270474F
:103BE0000148806870470000940000200248816806
:103BF00042681144816070479400002010B5002491
:103C0000032000F095F8042000F008F808B1012422
:103C100001E000F025F8204610BD000070B50E4E02
:103C200005460024706898B14FF47A71B1FBF0F04A
:103C30000A490968B1FBF0F000F0BCFD40B9102D55
:103C400006D200222946501E00F052F8356000E0EE
:103C50000124204670BD00009400002000000020D8
:103C60001B4808B5016E41F001010166016E01F0CB
:103C700001010091816D41F080518165806D00F0FE
:103C800080500090032000F053F8002211461920C4
:103C900000F02EF800220221122000F029F8002264
:103CA0000421182000F024F800220621282000F02A
:103CB0001FF8002206210B2000F01AF8002206212E
:103CC000252000F015F8BDE8084000F0A1B800007C
:103CD00000100240002809DB00F01F020121914082
:103CE0004009800000F1E020C0F80011704700009A
:103CF000F0B40E4B1B680C46C3F30223C3F1070557
:103D0000042D00D90425191D072901D2002300E044
:103D1000DB1E012606FA05F1491E214099409E400E
:103D2000761E16403143F0BC02F0F8BE0CED00E008
:103D3000064900F0070208684FF6FF03184040EA02
:103D40000220034A10430860704700000CED00E0B9
:103D50000000FA052B492C4B0A6832214A432B49B3
:103D600040B1B0F5007F086829D020F4C06040F46D
:103D700080602CE00868C0F34120022804D051F88C
:103D8000800F20F4807022E0D1F8800020F4807051
:103D9000C1F88000086820F4C06040F4007008603A
:103DA000B2FBF3F0401C00E0401E4A69520501D509
:103DB0000028F9D1486940050AD503207047C0F3AF
:103DC0004120022806D051F8800F40F4807008602E
:103DD00000207047D1F8800040F48070C1F8800066
:103DE000086820F4C06040F400700860B2FBF3F093
:103DF000401C00E0401E4A695205DBD50028F9D17D
:103E0000D8E700000000002040420F000070004092
:103E10000248816841F48041816070470070004031
:103E20002DE9F843044600680026BB4D00035ED52B
:103E3000A86D0027C00008D4A86D40F08050A86588
:103E4000A86D012700F080500090DFF8D092D9F8DB
:103E5000001041F48071C9F80010FFF7C1FE8046E0
:103E600006E000BFFFF7BCFEA0EB080002282BD83D
:103E7000D9F80000C005F5D5D5F8900010F44070D1
:103E800014D0216D814211D0D5F89000D5F8901052
:103E900020F4407041F48031C5F89010D5F89010AE
:103EA00021F48031C5F89010C5F89000C00711D0FA
:103EB000FFF796FE804641F2883907E0FFF790FE53
:103EC000A0EB0801494501D903260BE0D5F8900085
:103ED0008007F3D5D5F89000216D20F44070084399
:103EE000C5F890001FB1A86D20F08050A86520781B
:103EF000C00707D0D5F88800616820F003000843A8
:103F0000C5F888002078800707D5D5F88800A16813
:103F100020F00C000843C5F888002078400707D53A
:103F2000D5F88800E16820F030000843C5F8880023
:103F30002078000707D5D5F88800216920F0C00057
:103F40000843C5F888002078C00607D5D5F8880052
:103F5000616920F440700843C5F888002078800625
:103F600007D5D5F88800A16920F440600843C5F85A
:103F700088002078400607D5D5F88800E16920F44C
:103F800040500843C5F888002078000607D5D5F8CA
:103F90008800216A20F440400843C5F88800208842
:103FA000C00507D5D5F88800616A20F44030084381
:103FB000C5F888002068800307D5D5F89C00A16A61
:103FC00020F003000843C5F89C002088800507D531
:103FD000D5F88800E16A20F440200843C5F888003D
:103FE000208840050FD5D5F88800216B20F44010BB
:103FF0000843C5F88800206BB0F5801F03D1E8683E
:1040000040F48010E860208800050FD5D5F88800BE
:10401000616B20F440000843C5F88800606BB0F580
:10402000800F03D1E86840F48010E8602088C00465
:104030000FD5D5F88800A16B20F040700843C5F873
:104040008800A06BB0F1807F03D1E86840F4801055
:10405000E86020884FF0006180040ED5D5F8880014
:10406000E26B20F040601043C5F88800E06B8842A6
:1040700003D1E86840F48010E860208840040ED541
:10408000D5F88800226C20F040601043C5F8880005
:10409000206C884203D1E86840F48010E8602088F2
:1040A00000040FD5D5F88800616C20F0405008431B
:1040B000C5F88800606CB0F1805F03D1E86840F417
:1040C0008030E8602068C0030FD5D5F88800A16C67
:1040D00020F040400843C5F88800A06CB0F1804F44
:1040E00003D1E86840F48030E860206840030FD5D1
:1040F000D5F89C00E16C20F440100843C5F89C0002
:10410000E06CB0F5001F03D1E86840F48010E8606F
:104110003046BDE8F8830000001002400070004007
:104120002DE9F0470E4605004FF0000725D0DFF8D7
:10413000AC81D8F8000000F00F00B0420CD2D8F8E3
:10414000001021F00F013143C8F80010D8F800002A
:1041500000F00F00B04210D12968614CC80741F24D
:10416000883A5AD06868DFF87C91032808D0022882
:1041700020682DD0400500282CDB0120BDE8F08709
:1041800020688001F9D5E06800F00302E068C0F320
:104190000310401C032A19D0534A00BFB2FBF0F0B1
:1041A000E268C2F306225043E268C2F34162521C45
:1041B0005200B0FBF2F0484517D9A06810F0F00F9C
:1041C0000CD0880711D5A86840B10EE0474AE5E752
:1041D0008003D0E700F0B6F8484506D9A06820F083
:1041E000F00040F08000A0608027A068696820F09F
:1041F00003000843A060FFF7F3FC814606E000BF20
:10420000FFF7EEFCA0EB090151453AD8A0686968B8
:1042100000F00C00B0EB810FF2D12868810714D5B3
:10422000400703D5A06840F4E060A060287800074C
:1042300005D5A06820F4605040F4E060A060A0685C
:10424000A96820F0F000084304E0802F03D1A068A3
:1042500020F0F000A060D8F80010404601F00F01F7
:10426000B14216D9016821F00F0131430160FFF717
:10427000B7FC074607E000BFFFF7B2FCC11B514582
:1042800001D903207AE7D8F8000000F00F00B0420F
:10429000F2D12878400705D5A068E96820F4E060ED
:1042A0000843A0602878000706D5A068296920F493
:1042B000605040EAC100A06000F044F8A1680C4AD8
:1042C000C1F30311515C01F01F01C84009490860A6
:1042D00009480068BDE8F047FFF7A0BC0020024095
:1042E0000010024000B4C4040024F40000127A005C
:1042F000D08F0008000000209400002005480649E7
:1043000000688968054AC1F30221515C01F01F0170
:10431000C84070470000002000100240E08F0008F5
:104320000548064900688968054AC1F3C221515C05
:1043300001F01F01C840704700000020001002403B
:10434000E08F0008184910B58868C0F3810217484B
:10435000012A0BD08A684310C2F38102022A06D0D8
:104360008A68C2F38102032A03D0002010BD1846D8
:1043700010BDCA6802F00304CA68C2F30312521CDB
:10438000032C02D0B0FBF2F001E0B3FBF2F0CA68FC
:10439000C968C2F306225043C1F34161491C490078
:1043A000B0FBF1F010BD0000001002400024F4004A
:1043B0002DE9F84304007AD02078F84DC00747D0A3
:1043C000A868E96800F00C0001F003010C2802D095
:1043D000082817D001E0032914D06068B0F5803FA9
:1043E00017D0B0F5A02F286817D020F480302860AF
:1043F000286820F4802028606068E0B1FFF7F0FBB7
:10440000064614E02868800322D560680028D2D0D0
:104410001EE0286840F48030EDE740F480202860FA
:10442000F7E700BFFFF7DCFB801B642870D8286823
:104430008003F7D50CE0FFF7D3FB064605E000BF8D
:10444000FFF7CEFB801B6428F0D828688003F7D4E0
:10445000207880074CD5A868E96800F00C0001F0CE
:1044600003010C2802D004280DD001E002290AD053
:10447000E068002828682BD040F480702860FFF79F
:10448000AFFB064619E02868400502D5E068002821
:1044900091D06868217C20F0FE4040EA01606860AD
:1044A000BF480068FFF7BAFB002800D120E072E1A6
:1044B000FFF796FB801B0228B8D828684005F7D57F
:1044C0006868217C20F0FE4040EA016068600FE0EF
:1044D00020F480702860FFF783FB064605E000BFEC
:1044E000FFF77EFB801B0228A0D828684005F7D480
:1044F0002078000729D560690028D5F8940013D0EA
:1045000040F00100C5F89400FFF76AFB064606E09C
:1045100090E000BFFFF764FB801B022886D8D5F827
:1045200094008007F6D510E020F00100C5F8940053
:10453000FFF756FB064604E0FFF752FB801B0228FC
:1045400078D8D5F894008007F6D42078400761D554
:10455000A86D0026C00008D4A86D40F08050A86562
:10456000A86D012600F0805000908E480168C905B2
:1045700011D40168804641F480710160FFF730FB7F
:10458000074604E0FFF72CFBC01B022852D8D8F8DE
:104590000000C005F6D5A068012815D00528D5F87B
:1045A000900016D020F00100C5F89000D5F89000DA
:1045B00020F00400C5F89000A06841F28838B8B136
:1045C000FFF70EFB07460EE0D5F8900040F0010023
:1045D000F0E740F00400C5F89000F5E7FFF700FBB6
:1045E000C11B414526D8D5F890008007F6D50CE0D0
:1045F000FFF7F6FA074604E0FFF7F2FAC11B414560
:1046000018D8D5F890008007F6D41EB1A86D20F018
:104610008050A8652078800629D5A0690028D5F8A3
:10462000980013D040F00100C5F89800FFF7D8FAC1
:10463000064606E075E000BFFFF7D2FA801B0228AD
:104640006FD8D5F898008007F6D510E020F001006B
:10465000C5F89800FFF7C4FA064604E0FFF7C0FA71
:10466000801B02285DD8D5F898008007F6D4E06951
:10467000F0B3A968C1F3810103295DD0022828683D
:1046800020F08070286003D0FFF7AAFA04464BE0C0
:10469000FFF7A6FA064604E0FFF7A2FA801B0228FD
:1046A0003FD828688001F7D4F4E908016FF00F02C1
:1046B00002EB01110843218A5204490802EB4151DF
:1046C000A26841EA02210843217D4FF07E42490859
:1046D00002EB41610843217B40EAC160E968324A4C
:1046E00011400843E860286840F08070286000E0CE
:1046F0005EE0E86840F08070E860FFF771FA044619
:1047000005E000BFFFF76CFA001B022809D82868F3
:104710008001F7D54CE000BFFFF762FA001B0228CA
:1047200002D90320BDE8F88328688001F4D4E86842
:104730001E490840E8603BE00128F3D0E868226A9F
:1047400000F00301914226D1616A00F0F0020901F4
:10475000103991421FD1A26A00F4FE41B1EB022F41
:1047600019D194F82C2000F07841B1EBC26F12D12E
:10477000218E00F4C00249084905A1F500119142BB
:1047800009D194F8341000F0C06049084906A1F13D
:10479000007181420CD00120C4E7000000100240EB
:1047A00094000020007000400C809F01FCFFEEFE92
:1047B0000020B7E710B5401EB0F1807F01D3012083
:1047C00010BD4FF0E02460610F21601702F0A6F9E0
:1047D0000020A06107202061002010BD70477047B5
:1047E0007047000030B590F83C20012A45D00122E6
:1047F00080F83C20CA688B6822F440721A434B68E8
:1048000022F480621A430B6822F400621A430B6997
:1048100022F480521A434B6922F400521A430B6B64
:1048200022F480421A430B8B22F4702242EA0342A4
:10483000CB6922F080521A43114D03680024AB4229
:1048400005D0104DAB4202D00F4DAB4210D10D8DB3
:1048500022F4700242EA05520D6A22F080722A4365
:104860004D6A22F000722A43C96A22F000520A43BC
:104870005A6480F83C40002030BD022030BD00006A
:10488000002C014000340140005001407047704747
:1048900070470000F0B590F83C20012A43D0012574
:1048A00080F83C50022280F83D2003685A689C68DA
:1048B0001E4E1F4FDFF87CC0B34203D0BB4201D075
:1048C000634504D122F4700E4A6842EA0E02DFF812
:1048D00068E002EA0E02D1F800E04EEA020EC3F8E8
:1048E00004E00268B24212D0B2F1804F0FD0134BF5
:1048F0009A420CD0124B9A4209D0124B9A4206D0DF
:10490000BA4204D0104B9A4201D0624504D1896862
:1049100024F080031943916080F83D50002180F815
:104920003C100846F0BD0220F0BD0000002C014004
:1049300000340140005001408FFFFFFD00040040A3
:1049400000080040000C00400040014010B5044643
:10495000022249B104290ED0082913D094F8470047
:10496000012816D0012010BD94F844000128F9D187
:1049700084F844200FE094F845000128F2D184F82F
:10498000452008E094F846000128EBD184F8462041
:1049900001E084F847200422206801F0FCFB206835
:1049A000416C41F40041416413492068884214D0AD
:1049B000B0F1804F11D0114988420ED01049884281
:1049C0000BD01049884208D00F49884205D00F49C2
:1049D000884202D00E49884207D181680D4A1140B1
:1049E000062906D0B1F5803F03D0016841F00101EE
:1049F0000160002010BD0000002C014000040040B8
:104A000000080040000C004000340140004001401C
:104A1000005001400700010070B504460D460068D3
:104A2000002201F0B8FB2068036A41F211110B4229
:104A300044F2444206D1036A134203D1436C23F487
:104A4000004343642068036A0B4206D1016A1142A5
:104A500003D1016821F00101016001203DB1042D65
:104A600008D0082D09D084F84700002070BD84F8D4
:104A70004400FAE784F84500F7E784F84600F4E7D5
:104A8000704710B5040003D094F83D0010B107E062
:104A9000012010BD002084F83C00204600F022F8E0
:104AA000022084F83D00211D206801F0F5FA012064
:104AB00084F8480084F83E0084F83F0084F8400001
:104AC00084F8410084F8420084F8430084F84400EC
:104AD00084F8450084F8460084F8470084F83D00D7
:104AE000002010BD08B500680F4988421AD10F4850
:104AF000016E41F400610166006E002200F4006066
:104B0000009004211820FFF7F3F81820FFF7E2F8CF
:104B1000002211461920FFF7EBF8BDE808401920E4
:104B2000FFF7D8B808BD0000002C0140001002407B
:104B300090F83D10012901D001207047022180F832
:104B40003D1000681249884214D0B0F1804F11D056
:104B5000104988420ED0104988420BD00F49884234
:104B600008D00F49884205D00E49884202D00E492C
:104B7000884207D181680D4A1140062906D0B1F557
:104B8000803F03D0016841F00101016000207047BF
:104B9000002C01400004004000080040000C0040D0
:104BA0000034014000400140005001400700010076
:104BB00001680A6A41F211131A4207D10A6A9B007E
:104BC0001A4203D10A6822F001020A60012180F82A
:104BD0003D1000207047000070B5044690F83C007E
:104BE000002501281CD0012684F83C60022084F8AE
:104BF0003D0022689068334B184020F47F4090605D
:104C00000868B0F5005F2ED016DC402849D009DCDA
:104C1000D0B1102818D0202816D0302849D113E060
:104C2000022070BD50282AD0602830D070280FD0C4
:104C3000B0F5805F3DD13DE010F00F0F39D101118B
:104C4000A1F58031072934D822680146104625E0B5
:104C5000CB68D1E90121206801F0AAFA20688168B7
:104C600041F0770109E0CB68D1E90121206801F02A
:104C70009FFA2068816841F4804181601AE0CA6827
:104C80004968206801F068FC5021206806E0CA6885
:104C90004968206801F071FC6021206801F092FAF7
:104CA00008E0CA684968206801F056FC4021206885
:104CB000F4E7012584F83D60002084F83C00284694
:104CC00070BD000088FFCEFF70472DE9F04104461B
:104CD0000068C66805694FF00007A90713D5B1073A
:104CE00011D5F91E016101202077206880698007B5
:104CF000204602D0FFF7E8FF04E000F001F920466B
:104D000000F0C3F92777680716D5700714D5216816
:104D10006FF004000861022020772068806910F499
:104D2000407F204602D0FFF7CFFF04E000F0E8F814
:104D3000204600F0AAF92777280715D5300713D5A4
:104D400021686FF008000861042020772068C0699E
:104D50008007204602D0FFF7B7FF04E000F0D0F84C
:104D6000204600F092F92777E80616D5F00614D50C
:104D700021686FF010000861082020772068C06962
:104D800010F4407F204602D0FFF79EFF04E000F0C1
:104D9000B7F8204600F079F92777E80708D0F00740
:104DA00006D021686FF001000861204600F054FA37
:104DB000280601D4A80408D5300606D521686FF46A
:104DC000025008612046FFF70AFDE80508D53006C5
:104DD00006D521686FF4807008612046FFF7FEFC5D
:104DE000680608D5700606D521686FF04000086196
:104DF000204600F032FAA80608D5B00606D521688C
:104E00006FF0200008612046FFF7EAFCE80208D5B1
:104E1000F00206D521686FF4801008612046FFF784
:104E200036FDA80208D5B00206D521686FF400103F
:104E300008612046FFF72AFD680208D5700206D5F2
:104E400021686FF4800008612046FFF721FD2802E9
:104E50000AD5300208D521686FF4000008612046A9
:104E6000BDE8F041FFF70CBEBDE8F08170B586B03B
:104E7000044614216846FBF777FA1E4920688842E9
:104E800035D11D48C16C41F00201C164C16C01F013
:104E900002010591C16C41F00101C164C06C0224A2
:104EA00000F0010005904FF4C040CDE90004134E1E
:104EB0000625029469463046CDE90345FEF762FDBA
:104EC000A003CDE9000404200294CDE90340694623
:104ED0003046FEF757FD4FF4E060CDE90004029440
:104EE00069464FF09040CDE90345FEF74BFD06B013
:104EF00070BD0000002C014000100240000400487A
:104F0000704770B5044690F83C0000260D46012815
:104F10000BD0012084F83C000C2A4AD007DC82B177
:104F2000042A20D0082A06D131E0022070BD102AC0
:104F300053D0142A63D00126002084F83C00304668
:104F400070BD206801F048F92068816941F00801CE
:104F500081612068816921F0040181612068816993
:104F60002A69114311E0206801F08CF920688169F9
:104F700041F4006181612068816921F4806181616F
:104F8000206881692A6941EA02218161D4E72068A9
:104F900001F0C8F92068C16941F00801C1612068C9
:104FA000C16921F00401C1612068C1692A69114306
:104FB00011E0206801F006FA2068C16941F400613F
:104FC000C1612068C16921F48061C1612068C16943
:104FD0002A6941EA0221C161AEE7206801F042FA84
:104FE0002068016D41F0080101652068016D21F024
:104FF000040101652068016D2A69114311E02068F0
:1050000001F06CFA2068016D41F4006101652068CF
:10501000016D21F4806101652068016D2A6941EA12
:105020000221016588E710B5040003D094F83D0023
:1050300010B107E0012010BD002084F83C0020469C
:1050400000F022F8022084F83D00211D206801F0C4
:1050500023F8012084F8480084F83E0084F83F00DB
:1050600084F8400084F8410084F8420084F843004A
:1050700084F8440084F8450084F8460084F847002A
:1050800084F83D00002010BD7047704770B504469D
:10509000022269B1042912D0082917D00C291CD08A
:1050A000102921D094F84300012824D0012070BD9C
:1050B00094F83E000128F9D184F83E201DE094F8D0
:1050C0003F000128F2D184F83F2016E094F8400018
:1050D0000128EBD184F840200FE094F8410001282A
:1050E000E4D184F8412008E094F842000128DDD1A1
:1050F00084F8422001E084F843200122206801F076
:105100003DF81D4920681D4A1D4B1E4D88420BD09D
:10511000904209D0984207D01B4EB04204D01B4E9B
:10512000B04201D0A84203D1466C46F40046466422
:105130002068884211D0B0F1804F0ED014498842C7
:105140000BD01449884208D01349884205D09042B8
:1051500003D0984201D0A84207D181680F4A11407C
:10516000062906D0B1F5803F03D0016841F0010166
:105170000160002070BD0000002C0140003401409F
:1051800000400140005001400044014000480140FF
:105190000004004000080040000C0040070001002F
:1051A00030B504460D460068002200F0E7FF244BAE
:1051B00041F2111120688A0098420ED0214B98428A
:1051C0000BD0214B984208D0204B984205D0204B61
:1051D000984202D01F4B984209D1036A0B4206D174
:1051E000036A134203D1436C23F4004343642068F1
:1051F000036A0B4206D1016A114203D1016821F012
:105200000101016001205DB1042D0CD0082D0DD0ED
:105210000C2D0ED0102D0FD084F84300002030BD8F
:1052200084F83E00FAE784F83F00F7E784F840008E
:10523000F4E784F84100F1E784F84200EEE700006B
:10524000002C014000340140004001400044014076
:1052500000480140005001407047704790F88410AA
:10526000012918D0012180F884102421C0F8881069
:1052700001680A680B6823F001030B6022F00051FB
:1052800000224266036819602021C0F8881080F867
:10529000842010467047022070477047704770B5F1
:1052A000044690F8840001281DD0012084F8840071
:1052B0002420C4F8880020680568026822F00102F2
:1052C00002602068826822F060620A4382602046A1
:1052D00001F066F9206805602020C4F888000020ED
:1052E00084F8840070BD022070BD70B5044690F84B
:1052F000840001281DD0012084F884002420C4F8F3
:10530000880020680568026822F0010202602068B7
:10531000826822F060420A438260204601F040F930
:10532000206805602020C4F88800002084F88400EC
:1053300070BD022070BD7047704770472DE9F04185
:1053400003680446D86919689A6840F60F05284230
:105350004FF000054FF002060AD187067ED501F016
:10536000200702F0805C57EA0C0777D0616F42E1BA
:10537000B64FDFF8DCC2174001EA0C0C57EA0C0C00
:105380006CD05FEAC07C0CD05FEAC15C09D54FF0FD
:10539000010CC3F820C0D4F8903043F00103C4F8E6
:1053A0009030830709D5D30707D023681E62D4F84D
:1053B000903043F00403C4F8903043070AD5D30774
:1053C00008D0266804233362D4F8903043F00203F7
:1053D000C4F8903003070CD501F020033B4308D0FC
:1053E000266808233362D4F8903043F00803C4F8E9
:1053F000903003050BD54B0109D526684FF40063A7
:105400003362D4F8903043F02003C4F89030D4F8DD
:105410009030002B3DD0800609D501F0200002F02D
:105420008051084303D0616F09B120468847D4F802
:10543000900021688968490602D410F0280F2AD00C
:10544000204601F091F92068806840061ED520684A
:10545000083050E8001F21F0400100E021E040E862
:105460000012002AF3D1D4F8800078B17949816321
:10547000D4F88000FEF77FF900280AD0D4F8800025
:10548000816B00E02046BDE8F04108472046FFF769
:1054900054FFBDE8F0812046FFF74FFFC4F890505D
:1054A000F7E7D4F86CC02027BCF1010F7ED15FEA8A
:1054B000C06C7BD55FEAC16C78D51020186220687B
:1054C0008068400651D5D4F880100A6850680004FE
:1054D000000C3ED0B4F85C3083423AD9A4F85E00A8
:1054E0000868006880062CD4216851E8000F20F479
:1054F000807041E80002002AF6D12068083050E8A8
:10550000001F21F0010140E80012002AF5D12068B7
:10551000083050E8001F21F0400140E80012002A46
:10552000F5D1C4F88C70E566216851E8000F20F0D1
:10553000100041E80002002AF6D1D4F88000FEF7FE
:10554000E5F82667B4F85C00B4F85E10401A81B242
:1055500007E0B4F85C1081429BD11068800698D5B2
:1055600026672046FFF799FE93E7B4F85C00B4F88D
:105570005E10401A81B2B4F85E00002889D000297C
:1055800087D0226852E8000F20F4907042E80003B0
:10559000002BF6D12D4BDB432068083050E8002F5C
:1055A0001A4040E8002CBCF1000F00E00EE0F3D1FF
:1055B000C4F88C70E5666567206850E8002F22F01B
:1055C000100240E80023002BF6D1C9E7C60209D536
:1055D000560207D54FF4801018622046BDE8F0410E
:1055E000FFF7AABE03060AD501F0800302F4000209
:1055F000134304D0A16F00297FF444AF49E742066A
:1056000011D54A060FD52046016851E8002F22F037
:10561000400241E80023002BF6D1C0F8887085676E
:1056200000F0C8F835E7020206D54A0004D5204646
:10563000BDE8F041FFF77FBEC00195D5002993DAA0
:105640002046BDE8F041FFF729BE00000100001030
:10565000200100045967000810B5040003D0D4F8F5
:10566000880010B107E0012010BD002084F88400FC
:10567000204600F027F82420C4F88800206801683C
:1056800021F001010160A06A10B1204600F0AAFFDC
:10569000204601F093F80128E6D02068416821F403
:1056A000904141602068816821F02A018160206872
:1056B000016841F0010101602046BDE8104000F0A2
:1056C000F5BF0000F0B59BB00646142115A8FAF707
:1056D0004BFE54216846FAF747FE3149306888424C
:1056E0005CD101200024CDE900046846FEF798FB58
:1056F00008B1FBF75DFB2B48016E41F48041016668
:10570000016E01F480411A91C16C41F00201C16443
:10571000C06C15A900F002001A90C020159002205C
:10572000CDE916040720CDE918401F48FEF72AF9F5
:105730001F4D1E48802728601820C5E90104C5E9CF
:1057400003476C61AC61EC6128462C62FEF7ACF853
:1057500008B1FBF72DFBC6F88050AE62144D13481C
:105760006035143028601920686005F108011020A8
:1057700081E891006C61AC61EC6128462C62FEF717
:1057800093F808B1FBF714FBF567002206212520EA
:10579000AE62FEF7ADFA2520FEF79CFA1BB0F0BD15
:1057A0000038014000100240000400480800024098
:1057B0005C0200207047FEE708B503F0EBFA0090AA
:1057C000FBF71CFAFBF776F920B1FAF795FF30B139
:1057D000FBF7ECF80521684603F0A2FAF0E7FBF7C7
:1057E0005FF8F7E700EB8100006E00F0F8407047CB
:1057F00000EB8100006E00F0F84070478068C0F355
:10580000C00070478068C0F3C00070478068C0F374
:10581000800070478068C0F380007047C06810F453
:10582000406F01D00020704701207047042303EA35
:10583000D15310B518444369C1F3045107248C4077
:10584000A3438A401343436110BD042303EAD153A9
:1058500010B518444369C1F3045107248C40A34395
:105860008A401343436110BD00EB8100016E21F0BB
:10587000004111430166704700EB8100016E21F089
:10588000004111430166704770B59AB00024179427
:10589000189420210FA81994FAF766FD3C21684658
:1058A000FAF762FD35484FF0A041042501604FF43E
:1058B0004031C0E9011485610121C460C0E904419F
:1058C00004774177016280F82440C462046380F861
:1058D00038400903C16380F84040FDF7AFFC08B1D0
:1058E000FBF766FA7F212548FCF7ACFB08B1FBF714
:1058F0005FFA17A921481794FDF758F808B1FBF78C
:1059000057FA1F480F900620109007207F26CDE9F8
:105910001106CDE913540FA91848FDF7F7F808B19F
:10592000FBF746FA17480090092001900220CDE9C4
:105930000206CDE90454089080208DF824408DF8AB
:1059400025400A900B908DF826408DF8304069462E
:105950000A48FCF7C3FB08B1FBF72AFA0A48009093
:1059600040F20F10019069460448FCF7B7FB00288D
:1059700001D0FBF71DFA1AB070BD0000A400002092
:105980001000C0108000501D0001802130B58FB084
:105990003C216846FAF7E8FC30482F4900240160B2
:1059A0004FF44031C0E90114042585610121C46030
:1059B000C0E9044104774477016280F82440C4625E
:1059C000046380F83840C46380F84040FDF736FC3B
:1059D00008B1FBF7EDF97F212048FCF733FB08B154
:1059E000FBF7E6F91E480090092001900220029082
:1059F0007F200594CDE903050320089080208DF8D1
:105A000024408DF825400A900B908DF826408DF8A3
:105A1000304069461148FCF761FB08B1FBF7C8F953
:105A20001048009040F20F10019069460B48FCF7B7
:105A300055FB08B1FBF7BCF90B48009040F215206C
:105A4000019069460548FCF749FB002801D0FBF7A7
:105A5000AFF90FB030BD0000000100501001002070
:105A60008000501D000180210002B025074910B5BB
:105A7000054808600846FDF71AFE002803D0BDE877
:105A80001040FBF795B910BD000C02403C0300200C
:105A90000D4808B5816C41F004018164816C01F00E
:105AA00004010091816C41F001018164806C00224D
:105AB00000F00100009006210B20FEF719F9BDE867
:105AC00008400B20FEF706B9001002402DE9F04116
:105AD00086B014216846FAF747FC3448C16C41F09F
