:020000040800F2
:10000000C00A0020F1010008EF5D000887580008D1
:10001000ED5D0008A51200086D6B000800000000EF
:100020000000000000000000000000007B600008ED
:10003000D913000800000000796000087D60000806
:100040000B0200080B0200080B0200080B0200085C
:100050000B0200080B0200080B0200080B0200084C
:100060000B0200080B0200080B02000869130008CD
:100070000B0200080B0200080B0200080B0200082C
:100080000B0200080B020008C50700080B0200085D
:100090000B0200080B0200080B0200080B0200080C
:1000A00015610008216100080B0200080B0200081E
:1000B0000B0200080B0200080B0200080B020008EC
:1000C0000B0200080B0200080B0200080B020008DC
:1000D0000B0200080B0200080B0200080B020008CC
:1000E000DB1300080B0200080B0200080B020008DB
:1000F0000B0200080B0200080B0200080B020008AC
:100100000B0200080B0200080B0200080B0200089B
:100110000B0200080B0200080B0200080B0200088B
:100120000B0200080B0200080B0200080B0200087B
:100130000B0200080B0200080B0200080B0200086B
:100140000B0200080B0200080B0200080B0200085B
:100150000B0200080B0200080B0200080B0200084B
:100160000B0200080B0200080B0200080B0200083B
:100170000B0200080B0200080B0200080B0200082B
:100180000B0200080B0200080B0200080B0200081B
:100190000B020008000000000B0200080B02000820
:1001A0000B0200080B0200080B0200080B020008FB
:1001B0000B0200080B0200080B0200080B020008EB
:1001C0000B0200080B0200080B0200080B020008DB
:1001D0000B0200080B020008DFF810D000F070FAE4
:1001E0000048004755930008AFF30080C00A002084
:1001F0000648804706480047FEE7FEE7FEE7FEE7C1
:10020000FEE7FEE7FEE7FEE7FEE7FEE70561000822
:10021000D90100082DE9F05F0546002092469B4673
:1002200088460646814640241BE02846414647460C
:10023000224600F07CF853465A46C01A914110D32A
:1002400011461846224600F063F82D1A67EB0108A4
:100250004F4622460120002100F05AF817EB000912
:100260004E41201EA4F10104DFDC484631462A46F7
:100270004346BDE8F09F40EA01039B0703D009E035
:1002800008C9121F08C0042AFAD203E011F8013B82
:1002900000F8013B521EF9D27047D2B201E000F8DB
:1002A000012B491EFBD270470022F6E710B513461A
:1002B0000A4604461946FFF7F0FF204610BD00F03D
:1002C000004230F000400AD0C10D01F56071C0F36A
:1002D000160042EA0151C20840071143704700204E
:1002E0000146704730B50B4601460020202201240C
:1002F00009E021FA02F59D4205D303FA02F5491BF4
:1003000004FA02F52844151EA2F10102F1DC30BD09
:10031000202A04DB203A00FA02F1002070479140C5
:10032000C2F1200320FA03F3194390407047202ABA
:1003300004DB203A21FA02F00021704721FA02F38F
:10034000D040C2F1200291400843194670472DE980
:10035000FE4F804681EA0300C00F0C46009021F05A
:10036000004123F00045B8EB0200A94105D2404608
:10037000214690461C460B46024623F0004010439F
:1003800047D0270DC7F30A00C3F30A510290401A61
:10039000019040286BDAC3F3130040F4801B0098EF
:1003A000924620B10023D2EB030A63EB0B0B0198BA
:1003B0005946C0F140025046FFF7AAFF06460D46D7
:1003C00050465946019A00F08DF910EB0800614142
:1003D000002487EA115284EAE7731A4340D0009A56
:1003E00062B3019A012A4FEA075215DC001B61EB48
:1003F00002014FF0004202EA0752CDE90042001C20
:1004000041F5801132462B4600F08DF903B0BDE86E
:10041000F08F40462146F9E7001B61EB0201001C0A
:1004200041F5801300185B412018A2F5001747EB37
:10043000030140EAD570B6196D4111E06D084FEA2D
:10044000360645EAC0754FEA0752001B61EB020110
:10045000001C41F5801149084FEA30000019514154
:1004600032462B4603B0BDE8F04F00F04DB900987E
:10047000012240000023D0EB020263EBE0730098FE
:1004800021464FEAE074B8EB000061EB0401E9E7B4
:1004900083F000435BE781F0004158E72DE9FE4F10
:1004A00081EA030404F0004421F0004100944FF07D
:1004B000000B23F0004350EA01045ED052EA03042B
:1004C0005BD0C3F30A54C1F30A552C44A4F2F334AD
:1004D0000194A0FB0254C1F3130141F48011C3F352
:1004E000130343F4801301FB024400FB034E840A10
:1004F000970A44EA815447EA8357A4FB07680295A8
:100500008D0A05FB07854FEA932C04FB0C54270545
:10051000029D4FEA065847EA1637B5EB08056EEB21
:10052000070C870E920E47EA811742EA8312A7FB57
:100530000201B6EB0B0164EB00042B0D43EA0C3314
:100540005E1844EB1C50DA465146E7FB0201C5F346
:1005500013044FEA0B3343EA14534FEA0432019C6D
:1005600043EA0603A4F10C040294009CCDE900B414
:1005700000F0D9F803B0BDE8F08F00200146F9E79C
:100580002DE9F04D81EA030404F0004B21F0004511
:1005900014464FF0000A23F0004150EA050220D033
:1005A00054EA01021DD0C5F30A570246C5F31303EE
:1005B000C1F31300C1F30A5640F4801543F48013CD
:1005C000A7EB0608101BD64608F2FD3873EB0500B2
:1005D00002D308F1010801E092185B41B8F1000F65
:1005E00003DA00200146BDE8F08D00204FF48011B1
:1005F000064684460EE0171B73EB050705D3121B56
:1006000063EB050306434CEA010C49084FEA30004E
:1006100092185B4150EA0107EDD152EA030012D073
:1006200082EA040083EA0501084305D0101BAB41B0
:1006300006D20122002306E000224FF0004302E030
:100640006FF0010253101AEB06004CEB085110EB4F
:100650000A0041EB0B01BDE8F04D00F055B8C1F3C5
:100660000A52C1F3130140F2FF3341F480119A4260
:1006700002DA00200146704740F233439A42A2F268
:10068000334202DC5242FFF752BEFFF741BE000088
:1006900030B5041E71F1000404DB4FF00044404209
:1006A00064EB0101141E73F1000405DB1C464FF0DE
:1006B0000043524263EB0403994208BF904230BDAD
:1006C000064C074D06E0E06840F0010394E807009F
:1006D00098471034AC42F6D3FFF782FD68940008C7
:1006E00088940008202A06DBCB17203A41FA02F052
:1006F00043EAE07306E041FA02F3D040C2F120027F
:10070000914008431946704710B5141E73F1000458
:1007100008DA401C41F1000192185B411A4301D1F3
:1007200020F0010010BD2DE9F04D92469B4611B11D
:10073000B1FA81F202E0B0FA80F220329046FFF77F
:10074000E7FD04460F4640EA0A0041EA0B01534622
:100750005A46084313D0114653EA010019D0C8F194
:1007600040025046FFF7E3FD05460E465046594607
:100770004246FFF7CDFD084305D0012004E02046A6
:100780003946BDE8F08D0020054346EAE0762C436B
:1007900037430A986305E40AA0EB08000022FD0A2B
:1007A00044EA47540A3002D500200146E9E7010532
:1007B00010196941DDE9084500196941BDE8F04DAE
:1007C000A2E70000014802F011BE00005006002020
:1007D0002DE9F041044600270D46006805F068F851
:1007E0000646206805F05CF830435DD02068C1689B
:1007F0002E4E890105D5617F012902D1217F012972
:100800000BD0022D1DD0206805F052F8B8B1206839
:100810008168C1F3400169B111E00125244902E07A
:100820008F4232D27F1C0268D2435206F8D4402154
:100830000160E8E78168314041F010018160012DDD
:1008400011D0206805F02CF848B120688168C1F308
:10085000400121B98168314041F020018160022DC1
:1008600008D0032D04D0042503F07EFB064617E0D4
:100870000C25F9E70825F7E703F076FB801B052830
:100880000ED92068806828420AD0E06D40F0100040
:10089000E065206E40F0010020660120BDE8F08197
:1008A000206880682842E7D10020F7E7C0FFFF7F7B
:1008B000000040A370B50446006881688268C1F3F7
:1008C000400112F0010F28D039BB816801F00D0101
:1008D000012914D18168124A1140891C8160216864
:1008E0000320086003F040FB054612E003F03CFBE8
:1008F000401B02280DD920688068C00709D0E06D30
:1009000040F01000E065206E40F0010020660120FC
:1009100070BD20688068C007E8D1002070BD00006D
:10092000C0FFFF7FF8B50446002000902068816872
:1009300011F0010F4AD18168254A114237D18168EF
:10094000D5432940491C81602068B0F1A04F02D0F6
:100950002049884201D1204800E02048806800F00A
:10096000E07000020DD51E481E490068B0FBF1F092
:10097000401C00EB4000800000E0401E009000287A
:10098000FBD103F0F1FA06461BE0816811F0010F7C
:1009900003D181682940491C816003F0E5FA801B7E
:1009A00002280ED920680068C043C00709D0E06D56
:1009B00040F01000E065206E40F00100206601204C
:1009C000F8BD20680168C943C907DED10020F8BD21
:1009D0003F0000800001005000030050000700505D
:1009E0004C000020400D03002DE9F04F2DED028B4F
:1009F000D9B003F0B9FA394C2168401AB0F5967FA6
:100A000067D303F0B1FA20604FF494710FA8FFF799
:100A10004BFC0FA800F06AF800285AD0DDED3F0A21
:100A20009DED400A2F4960EEA00A9FED2D8A40EE11
:100A3000000A10EE900A884201DB012000E000204D
:100A4000049010EE100AFFF73AFC06460F4639985C
:100A5000FFF735FC04460D463798FFF730FCCDE92B
:100A600002013598FFF72BFC82468B463398FFF73F
:100A700026FC9DED480A8046894620EE080A10EEC5
:100A8000100AFFF71CFCCDE900019DED460A20EE9F
:100A9000080A10EE100AFFF712FC024604980B46F3
:100AA000CDE90D700AA981E87000DDE90201CDE908
:100AB000080104A981E8000FDDE90001CDE9020188
:100AC000CDE900239DF8F8209DF83C10064806F07B
:100AD0004FF859B0BDEC028BBDE8F08F3C00002010
:100AE000EBC918416D082F431494000830B5082253
:100AF00000287DD0AB4CA368D9077AD1AA4911F858
:100B0000045B00F84C5B51F8485B40F8485C11F816
:100B1000445C00F8445C11ED100A00ED100A11ED80
:100B20000F0A00ED0F0A11ED0E0A00ED0E0A11ED8D
:100B30000D0A00ED0D0A11ED0C0A00ED0C0A11ED85
:100B40000B0A00ED0B0A11ED0A0A00ED0A0A11ED7D
:100B5000090A00ED090A11ED080A00ED080A11ED75
:100B6000070A00ED070A11ED060A00ED060A11ED6D
:100B7000050A00ED050A11ED040A00ED040A11ED65
:100B8000030A00ED030A11ED020A00ED020A11ED5D
:100B9000010A00ED010A91ED000A80ED000A91EDD5
:100BA000010A80ED010A0D7A05724D7A45728D7A3F
:100BB000857291ED030A80ED030A91ED040A80ED40
:100BC000040A91ED050A80ED050A91ED060A80ED13
:100BD000060A91ED070A80ED070A91ED080A80EDFB
:100BE000080A91ED090A80ED090A0D8D058501E0DD
:100BF000D4E0CDE04D8D45858D8D8585CD8DC58528
:100C00000D8E05864D8E45868D8E8586CD8EC5864C
:100C100091F8385080F8385091F8395080F83950B0
:100C200091F83A5080F83A508D8F858791ED100AEF
:100C300080ED100A91ED110A80ED110A91ED120A72
:100C400080ED120A91ED130A80ED130A91ED140A5A
:100C500080ED140A91ED150A80ED150A91ED160A42
:100C600080ED160A91ED170A80ED170A91ED180A2A
:100C700080ED180A91ED190A80ED190A91ED1A0A12
:100C800080ED1A0A91ED1B0A80ED1B0A91F8705055
:100C900080F8705091ED1D0A80ED1D0A91ED1E0A3D
:100CA00080ED1E0A91ED1F0A80ED1F0A91ED200ACA
:100CB00080ED200A91ED210A80ED210A91ED220AB2
:100CC00080ED220A91F88C5080F88C5091F88D506C
:100CD00080F88D5091ED240A80ED240A91ED250ACB
:100CE00080ED250A91ED260A80ED260A91ED270A6E
:100CF00080ED270A91F8A05080F8A05091F8A450F8
:100D000080F8A45091F8A55080F8A55091F8A6500D
:100D100080F8A650D1F8A850C0F8A850D1F8AC502F
:100D2000C0F8AC5091ED2C0A80ED2C0A91ED2D0A03
:100D300080ED2D0A91ED2E0A80ED2E0A91ED2F0AFD
:100D400080ED2F0A91ED300A80ED300A91ED310AE5
:100D500080ED310A91ED320A80ED320A91ED330ACD
:100D600080ED330A91F8D05080F8D05091F8D150EE
:100D700080F8D150D1F8D450C0F8D45091ED360A53
:100D800080ED360AA1684C388B4201D1C90706D0E4
:100D9000521E12F0FF027FF4AEAE002030BD0120E3
:100DA00030BD000018000020B40200200148007887
:100DB000704700001800002038B51E4D6C681E48B2
:100DC000017806292AD2DFE801F029031B1E21241D
:100DD00000788DF80000194801F0B8F806F040FFDF
:100DE000002006F0C9FF15486946543801F03CF967
:100DF0009DF80000022816D111490120087012E068
:100E000007F04AFB0FE007F0A9FB0CE007F000FC3D
:100E100009E006F025FF07F075FD04E0074801F042
:100E200095F806F01DFF6868001BBDE8384007F024
:100E30004FB90000001000E018000020B8000020AA
:100E40001802002070B5244D00242C70234801683E
:100E500041F08071016022484460016841F0010165
:100E6000016007F00FF91F4801F0A6F81D48543043
:100E700001F03EF81B48803000F0B6FA1A4800F046
:100E8000C5FE19480C3000F0B1FD1748583001F08C
:100E900079F907F035FC07F0B1FA06F013FF1248B4
:100EA0009FED120AB03004704470446080ED020A75
:100EB000C46010306C6004702C6106F021FF6C700F
:100EC000AC6007F033FD0748543001F03FF8BDE84F
:100ED0007040002006F050BF18000020FCED00E03C
:100EE000001000E064000020680100200000000005
:100EF00010B503F039F80B490A69821A10D000EED8
:100F0000102ADFED090AB8EE400A20EE200A81ED32
:100F1000050A086107F080F9BDE8104007F006BD3A
:100F200010BD0000180000206F12833ADFED0B0A9D
:100F300020EE200AB5EEC00AF1EE10FA02D29FEDC3
:100F4000080A06E010EE100A0649884201DD9FED0E
:100F5000060A064880ED080A70470000DB0FC9400A
:100F6000000000000000914300009143780200203F
:100F700070B500212DED028B384804F02DFA0421C4
:100F8000364804F029FA0821344804F025FA0021F3
:100F9000324803F081FE0421304803F07DFE082131
:100FA0002E4803F079FE2D4803F068FF2C4802F02C
:100FB000F7FC01212B4801F0B7F8294801F092FD18
:100FC000294801F01FFE294800F024FD27484C3035
:100FD00001F0DAF82348803000F066FA23480C3834
:100FE00000F026FE21480C3800F028FE1D480024A1
:100FF0009FED1F8A046480ED118A80ED128A80EDD6
:10100000138A01F015F807F0F9F906F05BFE1748AE
:10101000184DA43004704470446080ED028AC460AE
:1010200010306C60047007F02DF8B0EE480A07F03D
:101030008FFB06F065FE6C7002F096FF2861094890
:10104000543000F083FF002006F096FE0120287047
:10105000BDEC028BBDE8704007F068BC5005002075
:10106000E4050020640000205006002074010020E8
:10107000000000001800002010B507F043FC1A48DB
:1010800001F06CFE194801F093FE174802F024FDB0
:10109000174803F033FF0021154803F063FE0421D5
:1010A000134803F05FFE0821114803F05BFE0021A6
:1010B0000F4804F01BFA04210D4804F017FA082128
:1010C0000B4804F013FA00210A4801F02DF80A48F1
:1010D00000210170416007F091F906F0F3FDBDE8D1
:1010E000104007F023BC0000E4050020500600205B
:1010F00050050020640000201800002070B54FF457
:101100008045A8421AD102F02FFF0D4E04463068E8
:10111000201AB0F5967F11D329460A4802F01AFF2B
:1011200000280BD13460FFF741FE18B1BDE87040D4
:10113000FFF7A2BFBDE87040FFF71ABF70BD000007
:10114000500000200010004870B50D462DED028BB8
:10115000B0EE608AF0EE408A044602F005FF0022FD
:10116000A5B12578184B0121C5B162781AB3E168A1
:10117000411A78290FD3E06093ED010A30EE080A96
:10118000BDEC028BBDE8704000F036B82270627092
:10119000C4E90102E260BDEC028B70BD6568451BCD
:1011A000142DF8D321706270A060E06093ED010A05
:1011B00030EE280AE4E7A268821AB2F5FA7FEAD391
:1011C0006170E060E7E700005000002070B5074B59
:1011D000074C0020186047CC064DB2EE080A47C500
:1011E00017CC85E8170083ED010A70BD5000002080
:1011F000D49300089C05002010B59FED061ADFED82
:10120000060A07F0EFFC054880ED010ABDE8104032
:10121000FFF78CBEA69E3842045685415000002040
:1012200010B59FED051ADFED050A07F0DBFC044859
:1012300080ED010A10BD0000A69E3842045685418B
:101240005000002070B5134D4FF48051284602F035
:1012500081FED8B15FF000044FF40051284602F03F
:1012600079FEA8B10025DFED0C0AB6EE000A214692
:101270000A48FFF769FF2946BDE870400748DFEDDF
:10128000080ABEEE000A1030FFF75EBF0124E3E754
:101290000125E8E700100048CDCC4C3E9C0500201D
:1012A000CDCC4CBEFEE7000000280BD0B0EE001AFB
:1012B00080ED000A00EE810ADFED030A20EE200A2D
:1012C00080ED010A704700003ACD133F7CB50D4612
:1012D000040021D0002D1FD001A9684600F028FB92
:1012E00094ED000ADDED010A9DED001A20EE200AC2
:1012F000D4ED010A00EEC10A85ED000A94ED000A62
:10130000DDED000A9DED011A20EE200AD4ED010A60
:1013100000EE810A85ED010A7CBD7CB50D46040016
:1013200021D0002D1FD001A9684600F001FB94EDEB
:10133000000ADDED010A9DED001A20EE200AD4ED31
:10134000010A00EE810A85ED000A94ED010ADDED47
:10135000010A9DED001A20EE200AD4ED000A00EEED
:10136000C10A85ED010A7CBD014802F003BC000002
:10137000900400200D4902688A4201D20C4901E024
:101380000B492031D2B21423083AB2FBF3F2436C7A
:1013900002F01F0223F003031944816404498031E1
:1013A000C1640121914001657047000008040240BA
:1013B000000802400179074A02EB81024265054AB2
:1013C0004432491E826501F01F0201219140C1652E
:1013D00070470000FC08024070474FF4804002F064
:1013E00089BC72B6FEE7000010B504001AD0F2EE18
:1013F0000B1ABAEE0B1ADFED0C0A9FED0C0A04F083
:1014000007FDF2EE0B1ABAEE0B1ADFED090A9FED9B
:10141000090A04F11C0004F0FBFC2046BDE8104062
:1014200000F042B810BD000000802644AE47F13FF6
:1014300000205045AE47714070B504002DED028B81
:1014400084B04FF000001D461646B0EE408A029070
:1014500003900090019022D0002920D0103102A8E2
:1014600091EC030AFFF720FF6946B0EE480A02A894
:10147000FFF753FF9DED000A84ED100A9DED010A70
:1014800084ED110A84ED208A1EB1DDE90201C6E96E
:101490000001002D03D0DDE90001C5E9000104B021
:1014A000BDEC028B70BD000010B504002DED028B69
:1014B00022D004F0C1FC04F11C0004F0BDFC9FED3F
:1014C000108AB7EE000A84ED0E8A84ED0F0A84EDCF
:1014D000108A84ED118A84ED128A84ED138A2046E5
:1014E00007F0B0FB84ED1C8A84ED1D8A84ED1E8A12
:1014F00084ED1F8A84ED208ABDEC028B10BD0000B4
:1015000000000000F0B504002DED068B87B04FF011
:1015100000001D4605901646F0EE428AF0EE419A14
:10152000B0EE60AAF0EE40AA029003900490009002
:101530009FED4B9AB0EE618A01907DD000297BD05F
:10154000B5EEC08AF1EE10FA02D2B0EE498A06E09A
:1015500018EE100AB0F17E5F01DDB7EE008A04AB31
:101560000022B0EE6A0A2046FFF766FF84ED0EAA5D
:10157000C4ED0F9AB0EE680A204607F0C1FB04F1F3
:101580001C00B2EE0B0A074607F0BAFBDFED359AF6
:10159000B5EEC08AF1EE10FA03D8204604F04CFCF8
:1015A0000AE0DDED040A94ED0E0AB0EE691A204659
:1015B00004F04CFCB1EE409A84ED129A29EE080A30
:1015C0008DED000AB4EEE80AF1EE10FA02DDCDED81
:1015D000008A08E0F1EE680AB4EEE00AF1EE10FAD3
:1015E00001D2CDED000ADDED050A94ED0F0AB0EE53
:1015F000691A384604F02AFCB1EE400A8DED010A62
:1016000084ED130A204607F01DFBB2EE0B0A684674
:1016100001A907F02FFB02A9B0EE6A0A6846FFF79E
:1016200055FE9DED000A84ED1C0A9DED010A84ED36
:101630001D0A9DED020A00E00EE084ED1E0ADDEDBC
:10164000030AC4ED1F0A0EB186ED000A002D03D077
:1016500094ED1F0A85ED000A07B0BDEC068BF0BDC6
:10166000000000006F128338F0B504002DED088BE8
:1016700087B04FF000001D4616460590F0EE43AAD5
:10168000B0EE62BAF0EE428AF0EE419AB0EE60AA95
:10169000F0EE40BA02900390049000909FED579AAC
:1016A000B0EE618A01907DD000297BD0B5EEC08A72
:1016B000F1EE10FA02D2B0EE498A06E018EE100AF6
:1016C000B0F17E5F01DDB7EE008A04AB0022B0EE20
:1016D0006B0A2046FFF7B0FE84ED0EAAC4ED0F9A08
:1016E000B0EE680A204607F00BFB04F11C00B2EED6
:1016F0000B0A074607F004FBDFED419AB5EEC08AFE
:10170000F1EE10FA03D8204604F096FB0AE0DDED76
:10171000040A94ED0E0AB0EE691A204604F096FB16
:10172000B1EE409A84ED129A29EE080A8DED000A76
:10173000B4EEE80AF1EE10FA02DDCDED008A08E021
:10174000F1EE680AB4EEE00AF1EE10FA01D2CDED46
:10175000000ADDED050A94ED0F0AB0EE691A38466D
:1017600004F074FBB1EE400A8DED010A84ED130A1A
:10177000D4ED0F0A94ED0E0AF0EE6A1AB0EE4B1A91
:10178000204607F0CFFA9DED000AD4ED140A30EEA2
:10179000200A8DED000A9DED010AD4ED150A30EE08
:1017A000200A00E026E08DED010AB2EE0B0A684641
:1017B00001A907F05FFA02A9B0EE6B0A6846FFF7CD
:1017C00085FD9DED000A84ED1C0A9DED010A84ED66
:1017D0001D0A9DED020A84ED1E0ADDED030AC4ED2B
:1017E0001F0A0EB186ED000A002D03D094ED1F0AEA
:1017F00085ED000A07B0BDEC088BF0BD00000000CD
:101800006F128338F0B504002DED048B87B04FF0D4
:101810000000059006901D461646B0EE418AF0EE97
:10182000608AB0EE409A039004900090019060D0DE
:1018300000295ED005AB0022B0EE490A2046FFF732
:10184000FBFDC4ED0E8A84ED0F8AB2EE0B0A204632
:1018500007F056FA04F11C00B2EE0B0A074607F037
:101860004FFA9FED268ADDED050A94ED0E0AB0EEE3
:10187000481A204604F0EAFAB1EE400A8DED000A5B
:1018800084ED120ADDED060A94ED0F0AB0EE481A57
:10189000384604F0DBFAB1EE400A8DED010A84ED22
:1018A000130A204607F0CEF9B2EE0B0A684601A9EA
:1018B00007F0E0F903A9B0EE490A6846FFF706FD14
:1018C0009DED000A84ED1C0A9DED010A84ED1D0AC0
:1018D0009DED030A84ED1E0ADDED040AC4ED1F0A26
:1018E0000EB186ED000A002D03D094ED1F0A85EDA0
:1018F000000A07B0BDEC048BF0BD00006F12833806
:10190000DFED090A094901E030EE600A10EE100A25
:101910008842F9DA02E000BF30EE200AB5EEC00AD4
:10192000F1EE10FAF8D37047DB0FC940DB0FC94066
:1019300070B50C462DED028B0546F0EE408A05F0A1
:1019400049FBB0EE408AB0EE680A05F09BFA0DB193
:1019500085ED008A002C01D084ED000ABDEC028BDD
:1019600070BD000010B190ED100A70479FED010AA4
:10197000704700000000000028B1D0ED040A90ED8F
:10198000050A05F029B99FED010A70470000000023
:1019900010B50028029C14D019B190ED000A81ED19
:1019A000000A1AB190ED010A82ED000A1BB190ED18
:1019B000020A83ED000A002C03D090ED030A84EDA7
:1019C000000A10BD10B190ED0F0A70479FED010A9B
:1019D000704700000000000010B190ED0E0A704743
:1019E0009FED010A704700000000000010B50400E0
:1019F0000DD000F0ADFC9FED060A002084ED0E0A2C
:101A000084ED0F0A84ED100A84F84400A06410BD30
:101A100000000000FFF7EABF10B504002DED028BB7
:101A2000B0EE618AF0EE418A63D0002961D084EC87
:101A3000020AB0EE001A91ED040A84ED020A91ED5B
:101A4000040AD1ED050A00EE810ADFED2F0A20EE2F
:101A5000200A84ED030A00F0B5FC94ED070ADFEDDF
:101A60002B0A2C4930EE200ADFED290A02E000BFE4
:101A700030EE600A10EE100A8842F9DA02E000BF88
:101A800030EE200AB5EEC00AF1EE10FAF8D384ED7C
:101A90000E0A94ED061A38EEC00A84ED0F1A1E499C
:101AA00002E000BF30EE600A10EE100A8842F9DC56
:101AB0001A4900BF10EE100A884202D930EE200AFF
:101AC000F8E7DFED170A18EE100A164920EE200A93
:101AD000884284ED100A14DBB0EEC00A10EE100A42
:101AE000114988420DDAA06CB0F5486F04D2401C51
:101AF000A064BDEC028B10BD5FF0010084F84400CF
:101B0000F7E70020A064F9E73ACD133FB7D10C40C6
:101B1000DB0FC940DB0FC940DB0F4940DB0F49C079
:101B2000E12E6542000020410000C8419FED1E1AD1
:101B3000DFED1E0A002836D090ED010A1C4A10EE97
:101B4000101A91420BDA30EE010A10EE101A80EDF5
:101B5000010A914203DDB2EE0E0A80ED010A90ED1A
:101B6000011AF1EE001A90ED020A21EE211ADFEDC2
:101B7000111A114A21EE201A01EE210A80ED020A03
:101B800002E000BF30EE600A10EE101A9142F9DA5E
:101B900002E000BF30EE200AB5EEC00AF1EE10FA06
:101BA000F8D380ED020A7047CCA7A139DB0FC940FA
:101BB000000070416F128338DB0FC9409FED070AA8
:101BC00040B1D0ED010A20EE800AF1EE000A20EECD
:101BD000200A70479FED020A70470000DB0FC940E2
:101BE0000000000010B190ED010A70479FED010A5E
:101BF000704700000000000010B190ED020A70472D
:101C00009FED010A7047000000000000002809D085
:101C100000219FED050A016080ED010A9FED030A96
:101C200080ED020A70470000CDCC4C3E0000000061
:101C3000002801D00021016070470000002807D073
:101C40009FED040A80ED010A9FED030A80ED020A70
:101C500070470000CDCC4C3E0000000010B504469B
:101C6000084600F073F900224FF40051034802F0D7
:101C700076F9002C01D00520207010BD0008004826
:101C800001004FF0000029D0154BCA689A4200DAD3
:101C90000120144B9A4201DD40F0020091ED040A4C
:101CA000114AB0EEC00A10EE103A934201DD40F046
:101CB000040091ED050AB0EEC00A10EE103A93420E
:101CC00001DD40F0080091ED060AB0EEC00A10EE0A
:101CD000101A914201DD40F010007047002070475B
:101CE000000020410000F0410000704130B50400C8
:101CF0002DED068B83B0F0EE41AAF0EE608AB0EED7
:101D0000408A9FED769A73D0F0EE480AB0EE680AEA
:101D1000DFED739A9FED73AA04F05EFFB5EEC00A83
:101D2000F1EE10FA01D230EE290A20EE0A0ABCEEDA
:101D3000C00A10EE100A401CC5B2062D00D90625B7
:101D400002AB01AA69462846B0EE6A1AF0EE680AAC
:101D5000B0EE480A07F0CCF89DED020AF6EE000A54
:101D6000062D20EE200A4FD2DFE805F04E030C17B7
:101D700022439DED001ADDED010A31EE201A31EE0D
:101D8000001A07E0DDED000ADDED011A30EE801AE1
:101D900070EEA10A70EE801A16E0DDED001ADDED9E
:101DA000010AB0EE401A71EEA01A71EE801A09E035
:101DB000DDED000A9DED012AB0EE401A70EE801AAA
:101DC00070EE820A30EE800AC1EE090AC1EE898AFD
:101DD00080EE098A9FED440AF5EEC00AB7EE001ABC
:101DE0004FF07E51F1EE10FA17D2F0EE400A1AE0F1
:101DF00070E0DDED010A9DED002AF0EE401A30EEB4
:101E0000801A72EE200ADDE7DDEC020AF0EE401ADD
:101E100030EE811A31EE001AD4E710EE900A8842B3
:101E200001DDF0EE410AF5EEC08AF1EE10FA02D2C1
:101E3000F0EE408A05E018EE900A884201DDF0EEEF
:101E4000418AB5EEC08AF1EE10FA02D2B0EE408AB5
:101E500005E018EE100A884201DDB0EE418A2570D7
:101E6000C4ED010AC4ED028A84ED038A9DED000AE7
:101E700084ED040A9DED010A84ED050A9DED020A38
:101E800084ED060A20EE890ABDEEC00A10EE100AA3
:101E900007F022F828EE890AA083BDEEC00A10EEF2
:101EA000100A07F019F828EE090AE083BDEEC00A0F
:101EB00010EE100A07F010F820840C48A18B02687D
:101EC00051630268E18B91630068218CC1632046F5
:101ED00007F0ACF803B0BDEC068B30BD00F8A545AB
:101EE000DB0FC9404576743F00000000500500201C
:101EF000002825D0012300F8043BB6EE000A80ED4F
:101F0000000A80ED010A80ED020A9FED0E0A40F6FC
:101F10005F2180ED030A80ED040A9FED0B0A002289
:101F200080ED050A018341838183C2830284418459
:101F300080F8243080F8253080F8262080F827208B
:101F4000704700000000000000F8A54500282CD0D4
:101F500040F65F2120F81C1FB6EE000A4180818008
:101F600000ED060A00ED050A00ED040A9FED0F0AD8
:101F7000002200ED030A00ED020A9FED0D0A012385
:101F800000ED010AC28002814181037343738273B1
:101F9000C273084A136859631368418899631368C8
:101FA0008188D96311684089086470470000000087
:101FB00000F8A54550050020002835D0F3EE080AAA
:101FC0009FED1A0A002180ED000A80ED010A80EDE4
:101FD000020AC0ED030A80ED040A80ED050A80EDD7
:101FE000060A80ED070A80ED080A80ED090A80F8EC
:101FF000281080F8291080F82A108185C185018673
:1020000041868186C186018741878187012280F8C8
:102010003E2080F83F10016480ED110A80ED120A25
:1020200080ED130A80F85010704700000000000097
:10203000002815D000219FED0B0A80ED040A80EDE9
:10204000050A80ED060A80ED070A80ED080A80ED9A
:10205000090A80F8281080F8291080F82A10818554
:1020600070470000000000002DE9F0410D460446D5
:1020700009212C4800F01EFD1FFA80F840F20F11D4
:10208000284800F017FD87B240F21521254800F0DE
:1020900011FD86B2002C42D033463A4641462046D6
:1020A00007F036F8404607F027F8D4ED110A384615
:1020B00030EE200A84ED110A07F01EF8D4ED120A62
:1020C000304630EE200A84ED120A07F015F8D4ED00
:1020D000130A70EE200AC4ED130A206C401C206421
:1020E000B0F5805F1BD300EE100AF7EE001A002D4A
:1020F000B8EE401A81EE810A94ED111A21EE001A11
:1021000084ED001A94ED121A21EE001A20EE800AD6
:1021100084ED011A84ED020A01D002202870BDE886
:10212000F081000050060020002801D080F85010F7
:102130007047002801D080F829107047002801D08E
:1021400080F83E107047000010B5040016D094F8D7
:10215000500080B10A4801F045F980B206F0CCFF8A
:10216000F3EE090A20EE200A204684ED030ABDE8BA
:10217000104006F0F1BFB3EE080AF5E710BD00000D
:10218000E4050020AFF30080002816D00021017084
:10219000417041609FED090A816080ED030A80ED86
:1021A000040A80ED050A80ED060A01774177016295
:1021B000416280ED0A0A80F82C1070470000000090
:1021C00070B504462DED028B15460E460846FFF706
:1021D00013FD002C37D0002E35D0002D33D094F8CD
:1021E0002C0001280AD002282DD12846FFF7F4FB45
:1021F000BDEC028BBDE87040FFF782BB2846FFF7BD
:10220000EBFBB0EE408A3046FFF7F6FC38EE408A32
:102210009FED0E0A0E4901E038EE408A18EE100AD2
:102220008842F9DC0B4900BF18EE100A884202D937
:1022300038EE008AF8E73046FFF7DEFCD4ED030AFB
:1022400000EE880AD4E7BDEC028B70BDDB0FC940FD
:10225000DB0F4940DB0F49C02DE9F04791462DEDDA
:10226000028B04004FF496574FF4485814D00029BD
:1022700012D0B9F1000F0FD04A46204607F006F8F9
:1022800094F82C100025012651B1B7EE008A0129DF
:102290001BD0267084ED038ABDEC028BBDE8F0876D
:1022A0009FED280A68B16068B84202D2401C6060A5
:1022B000F2E7267084F82C60A560256284ED030A9D
:1022C000EAE725706560A560F8E720BB277F4846F0
:1022D000FFF748FBB0EEC00A17F0FD0F04D110EE77
:1022E000100A1949884216DD206A142803D2401CBE
:1022F0002062142810D3656A267F48466D1CFFF7BC
:1023000031FBF0EE400A2046FFF73EFF667765623C
:10231000C4ED0A0AC0E72562A068267040450AD2CB
:10232000401C00EE100ADFED090AA060B8EE400A7A
:1023300020EE200AC2E784ED038A022084F82C00F4
:10234000AAE700000000000000000C420AD7A338F2
:1023500000282FD000219FED180ADFED180A80ED2C
:10236000000A80ED010A80ED020A80ED030A80ED8B
:10237000040A80ED050A80ED060A80ED070A80ED6B
:10238000080A80ED090A80ED0A0A80ED0B0A80ED4B
:102390000C0A80F8341080F835100948C0ED000AA6
:1023A00080ED010A80ED020A80ED030A80ED040A47
:1023B00080ED050A70470000000000002497FF3BF5
:1023C0000000002010B5040006D000F007F82046F9
:1023D000BDE8104003F086BD10BD000070B59FED54
:1023E0002D1A2E4DDFED2A1A04462DED068BD0ED69
:1023F000000A90ED02AAD5ED008A90ED010A4AEE9E
:10240000410AD0ED039A9FED249A09EEC10A40EEED
:10241000A18AC5ED008A95ED018A4AEE498A00EE4F
:10242000218A28EEA80A85ED018A09EEC98A08EEFC
:10243000080A04F097FE10EE100A1A499FED181AC8
:10244000884216DD10EE100A1749884211DDC1EEF0
:10245000000A68EEA08A28EE208AB0EE680A0AEE2A
:10246000090A85ED000AB0EE480A09EE890A85EDF1
:10247000010A28EEA80AC4ED048A84ED058A08EE54
:10248000080A04F06FFE84ED0C0ABDEC068B70BDEB
:102490006F12833814AE073F52491D3A00000020E6
:1024A0005BB13F3C5BB13F3CBD378635F8B500269C
:1024B0000446009690F858000D4601280BD00120E4
:1024C00084F858002046FEF7F5F90100E06D04D0CD
:1024D00040F010002AE00220F8BD20F4885040F0BF
:1024E0000200E06520688268134B1A4005F08043C3
:1024F0001A4342F000428260104A20680EE0009BBE
:102500005B1C0093934209D3E06D20F0020040F081
:102510001000E06584F858600120F8BD8368DB0F87
:10252000EDD1E06D20F0020040F00100E06584F89C
:1025300058600846F8BD0000C0FFFF3F02DE0400FF
:10254000704700002DE9F84F4FF000090446CDF820
:1025500000900D4694F85820DFF8EC8361694F46EF
:102560004846012A0AD00126F84A84F8586041B149
:10257000296A012905D0A36EEBB129E00220BDE84C
:10258000F88F6868092838D1A96A4FF4785041B1AA
:102590002B6801F07C0100EA53400843E96A0843D4
:1025A00002E0296800EA51402368D96C11400143D8
:1025B000D964606621E0C4E91971A96A286A31B159
:1025C00001F07C01401E0843E96A084300E0401E18
:1025D00029682B79C1F3846103F01F0399400143FB
:1025E000A06E401EA066636E43EA0103636604D1D9
:1025F0002168C86C10401843C864206803F054F97F
:1026000058B995F8250098B12068C16895F826203A
:1026100021F4401141EA4251C160206803F04CF9B5
:102620008246206803F040F95AEA00000DD0FCE031
:1026300095F8260095F82410400540EA01512068DD
:10264000C26822F440121143E6E7A86A30B1E86A92
:1026500020B195F8250001285ED003E095F825000B
:10266000012804D02068C16821F0007103E02068CF
:10267000C16841F00071C16095F83000012852D066
:102680002068016921F002010161AA6829682068B7
:10269000B2F1004F38D003F02AF92068416921F0E7
:1026A0000041416120686969C268C2F3C1025200F9
:1026B00091402A69042A45D000EB82002B68026E03
:1026C000DFF88CC203F0F84302EA0C020B431A4312
:1026D00042F00041016620682A69A96900EB820086
:1026E000026E22F080720A430266297F22682869FE
:1026F000012924D05FF0000102EB8000026E22F07D
:1027000000720A43026690E0002203F0F0F82068AD
:10271000416941F00041C4E7E06D40F02000E06510
:102720004FF00109A8E7D5E90D01084321680A69BE
:1027300022F4FF7242F0020210430861A5E74FF055
:102740000071D9E7002103F0A5F8400320684FF09D
:10275000000172D003F09EF890FAA0F0B0FA80F178
:10276000286842036ED090FAA0F0B0FA80F081425F
:1027700004D100221146206803F0D0F8012120681E
:1027800003F088F8400320684FF001015DD003F0AA
:1027900081F890FAA0F0B0FA80F12868420359D08D
:1027A00090FAA0F0B0FA80F0814204D10022012119
:1027B000206803F0B3F80221206803F06BF84003AF
:1027C00020684FF0020148D003F064F890FAA0F0BE
:1027D000B0FA80F12868420344D090FAA0F0B0FA31
:1027E00080F0814204D100220221206803F096F893
:1027F0000321206803F04EF8400320684FF00301E6
:1028000033D003F047F890FAA0F0B0FA80F12868CE
:1028100042032FD090FAA0F0B0FA80F0814204D1A8
:1028200000220321206803F079F82068816811F004
:10283000010F22D0B5E000E004E003F02BF8C0F374
:1028400084618DE7C0F3846091E703F023F8C0F35F
:102850008461A2E7C0F38460A6E703F01BF8C0F32D
:102860008461B7E7C0F38460BBE703F013F8C0F3FB
:102870008461CCE7C0F38460D0E72A7B296850F8F4
:10288000B03FC1F3120C23EA0C0302F0180C314ADA
:1028900022FA0CF20A4013430360E96841457DD1F6
:1028A000286841031BD090FAA0F1B1FA81F1491CCC
:1028B00001F01F0109294FEA403131D8002911D018
:1028C00090FAA0F1B1FA81F101F1010101F01F01CB
:1028D00006FA01F609D100BFC0F3846109E0C0F334
:1028E0008461E4E7C0F38461EEE790FAA0F1B1FA05
:1028F00081F101F1010101F01F0146EA816102D17C
:10290000C0F3846003E090FAA0F0B0FA80F000F128
:10291000010000F01F0000EB400041EA00513AE0E6
:1029200000290ED090FAA0F1B1FA81F101F1010174
:1029300001F01F0106FA01F60ED100BFC0F3846159
:102940000EE0C0F38461F1E700007F400040100416
:1029500000F0FF03FFFF070090FAA0F1B1FA81F148
:1029600001F1010101F01F0146EA816102D1C0F3CA
:10297000846003E090FAA0F0B0FA80F000F101006A
:1029800000F01F003A4A00EB400002EB005041EA21
:10299000000141F00071AA68206800E001E002F047
:1029A000A6FF34482B6803425ED022684FF0A04C4B
:1029B0003148324E324D624501D0AA4201D1014622
:1029C00000E031468968DFF8BC8001F0E0714345E2
:1029D00003D0DFF8B480434520D15FEA01281DD43D
:1029E000624505D0294B9A423ED1AA4200D03046DA
:1029F00041F40001826822F0E0720A4382602448B8
:102A000024490068B0FBF1F0801C00EB400080001E
:102A100000E0401E00900028FBD125E0DFF8788020
:102A200043450FD15FEAC1180CD4AA4202D11B4B17
:102A30009A4219D0624502D0AA4200D0304641F0F5
:102A400080710CE0DFF8588043450DD14B020BD468
:102A5000AA4209D0624500D0304641F48001826824
:102A600022F0E0720A43826084F85870484686E596
:102A7000000020FE00000880000300500007005006
:102A800000010050000021C31000C090000600505B
:102A90004C000020400D0300000052C7000500500C
:102AA000000084CB0249884201D1FEF785B9704706
:102AB000500600200068A1F580710F390ED0B1F5E5
:102AC000837F08D0B1F5037F02D0D0F88000704733
:102AD000D0F88C007047D0F888007047D0F8840098
:102AE000704770472DE9F041044600684FF0A0455B
:102AF0003E4FA84201D0B84201D13D4900E03D49D6
:102B0000896801F01F0602F0CFFE08BB2168C86883
:102B1000C96C00F0004011F4C07F00D190B194F86E
:102B20005800012814D0012084F858002046FDF7F1
:102B3000F9FE01004FF000020CD084F8582008463E
:102B4000BDE8F081E06D40F02000E0650120F7E78E
:102B50000220F5E7E06DC00504D5206E20F00800E6
:102B6000206600E02266E06D42F20103984340F4E3
:102B70008050E0652068204BDFF880C0B84201D16A
:102B8000AE4604E0984201D1E64600E0864686451E
:102B900000D02EB9D4F85CE02EF4801EC4F85CE0BE
:102BA0004FF0600EC0F800E084F858202068B8426A
:102BB00004D0984201D1654600E00546854209D01F
:102BC00046B1062E06D0072E04D0E06D40F48010EA
:102BD000E065B4E7C26812F0007FB0D18268084BAC
:102BE0001A4042F008028260A9E70000000100508C
:102BF0000003005000070050000500500004005082
:102C0000C0FFFF7F2DE9F041044600684FF0A0456A
:102C10004C4FA84201D0B84201D14B4900E04B498A
:102C2000896801F01F0602F03FFE08BB2168C868F2
:102C3000C96C00F0004011F4C07F00D190B194F84D
:102C40005800012814D0012084F858002046FDF7D0
:102C500069FE01004FF000020CD084F858200846AD
:102C6000BDE8F081E06D40F02000E0650120F7E76D
:102C70000220F5E7E06DC00504D5206E20F00800C5
:102C8000206600E02266E06D42F20103984340F4C2
:102C90008050E06520682E4BDFF8B8C0B84201D103
:102CA000AE4604E0984201D1E64600E086468645FD
:102CB00000D02EB9D4F85CE02EF4801EC4F85CE09D
:102CC0004FF0600EC0F800E084F858202068C26819
:102CD000920203D5426842F480624260A0690828EB
:102CE0002068426807D022F04002426020684268B3
:102CF00042F0200206E022F0200242602068426892
:102D000042F0400242602068B84204D0984201D1AB
:102D1000654600E00546854209D046B1062E06D03C
:102D2000072E04D0E06D40F48010E06597E7C2689C
:102D300012F0007F93D18268074B1A4042F00802DC
:102D400082608CE700010050000300500007005033
:102D50000005005000040050C0FFFF7F70B504461E
:102D600090F85800012809D0012084F85800022169
:102D70002046FDF72DFD050002D014E0022070BDB5
:102D8000206802F099FD18B1E06D20F4805009E050
:102D90002046FDF78FFD050005D1E06D20F4885039
:102DA00040F00100E065002084F85800284670BD1E
:102DB00070B5044690F85800012809D0012084F825
:102DC000580002212046FDF703FD050002D019E05E
:102DD000022070BD2068416821F48C614160206848
:102DE00002F06AFD18B1E06D20F4805009E0204641
:102DF000FDF760FD050005D1E06D20F4885040F03E
:102E00000100E065002084F85800284670BD704736
:102E1000704700002DE9F04F044690F858009BB031
:102E20000F464FF0000B012812D0012084F8580003
:102E300000261796189620684FF0A048DFF81C91DE
:102E4000DFF81CA1474D404506D12846009508E013
:102E500002201BB0BDE8F08F48450AD15046CDF89E
:102E600000A002F029FD0090206802F025FD40B18D
:102E700009E0E06D40F02000E06584F85860012032
:102E8000E7E7009850B1E06D40F02000E0654FF0BA
:102E9000010B00BF84F858605846DAE720684146C5
:102EA000884201D0A84201D12F4800E02F48D7F82E
:102EB00000C02F4B40F61F72BCF1000F2DD0D0F890
:102EC00008C094F838802CF4604C4CEA483CD7F8A1
:102ED00004804CEA080CC0F808C0D4F800C08C4547
:102EE00001D0AC4504D18968AB6801F0010109E06B
:102EF000D9F80810DAF8085001F0010105F00105D1
:102F00009B68294303F001031943C3D1BB683968A7
:102F100019438368934319431DE0876827F460478A
:102F2000876027688F4201D0AF4204D18968AB68BF
:102F300001F0010109E0D9F80810DAF8085001F0B1
:102F4000010105F001059B68294303F001031943C2
:102F5000A0D18168914381609CE70000000400508B
:102F60000005005000010050000300500007005011
:102F7000000600502DE9F84F00270446009790F80E
:102F80005800DFF81C840D46B946012811D00126EF
:102F900084F85860206802F08BFC60B1E06D40F06E
:102FA0002000E0655FF0010784F858903846BDE8DE
:102FB000F88F0220FBE7D5E900210C23206803EA03
:102FC00091131844036B01F01F014FF01F0C0CFA12
:102FD00001FCC2F3846223EA0C038A4013430363B7
:102FE000206802F065FC8246206802F059FC5AEA2B
:102FF00000003CD1AA6829682068B2F1004F37D0A0
:1030000002F066FC2068416921F0004141612068BE
:103010006969C268C2F3C102520091402A69042A58
:1030200031D000EB82002B68026EDFF878C303F02A
:10303000F84302EA0C020B431A4342F000410166D6
:1030400022682869A96902EB8000026E22F0807272
:103050000A430266297F22682869012910D00021CD
:1030600002EB8000026E22F000720A4302667DE0ED
:10307000002202F02DFC2068416941F00041C5E7C3
:103080004FF00071ECE7002102F0FEFB40032068E6
:103090004FF0000172D002F0F7FB90FAA0F0B0FA06
:1030A00080F1286842036ED090FAA0F0B0FA80F068
:1030B000814204D100221146206802F027FC012140
:1030C000206802F0E1FB400320684FF001015DD071
:1030D00002F0DAFB90FAA0F0B0FA80F1286842031F
:1030E00059D090FAA0F0B0FA80F0814204D10022C9
:1030F0000121206802F00AFC0221206802F0C4FBD2
:10310000400320684FF0020148D002F0BDFB90FA66
:10311000A0F0B0FA80F12868420344D090FAA0F001
:10312000B0FA80F0814204D100220221206802F02E
:10313000EDFB0321206802F0A7FB400320684FF05D
:10314000030133D002F0A0FB90FAA0F0B0FA80F1B6
:10315000286842032FD090FAA0F0B0FA80F08142A4
:1031600004D100220321206802F0D0FB206881688E
:1031700011F0010F22D0ACE000E004E002F084FB8B
:10318000C0F384618DE7C0F3846091E702F07CFBBB
:10319000C0F38461A2E7C0F38460A6E702F074FB89
:1031A000C0F38461B7E7C0F38460BBE702F06CFB57
:1031B000C0F38461CCE7C0F38460D0E72A7B296840
:1031C00050F8B03FC1F3120C23EA0C0302F0180CC4
:1031D000754A22FA0CF20A4013430360E96841453C
:1031E00077D1286841031CD090FAA0F1B1FA81F19F
:1031F000491C01F01F0109294FEA403132D800294A
:1032000012D000BF90FAA0F1B1FA81F101F10101F1
:1032100001F01F0106FA01F609D100BFC0F3846175
:1032200009E0C0F38461E3E7C0F38461EEE790FA5C
:10323000A0F1B1FA81F101F1010101F01F0146EAAB
:10324000816102D1C0F3846003E090FAA0F0B0FA8B
:1032500080F000F1010000F01F0000EB400041EAA7
:10326000005132E000290ED090FAA0F1B1FA81F1BC
:1032700001F1010101F01F0106FA01F606D100BFBC
:10328000C0F3846106E0C0F38461F1E790FAA0F135
:10329000B1FA81F101F1010101F01F0146EA8161FA
:1032A00002D1C0F3846003E090FAA0F0B0FA80F09D
:1032B00000F1010000F01F003C4A00EB400002EB6F
:1032C000005041EA000141F00071AA68206802F054
:1032D000FFFA37482B6803423FF466AE21684FF08F
:1032E000A04C3448344E354D614501D0A94201D13E
:1032F000024600E032469268DFF8C48002F0E072D5
:10330000434503D0DFF8BC80434521D15FEA022862
:103310001ED4614506D02C4B99427FF445AEA9429C
:1033200000D0304642F40001826822F0E0720A4385
:103330008260264826490068B0FBF1F0401C00EB93
:103340004000800000E0401E00900028FBD12BE6EA
:10335000DFF8808043450FD15FEAC2180CD4A94240
:1033600002D11D4B9942F2D0614502D0A94200D052
:10337000304642F080710CE0DFF860804345E6D1D2
:103380005302E4D4A942E2D0614500D0304642F471
:103390008001826822F0E0720A43826004E6000045
:1033A00000007F4000F0FF03FFFF0700000020FE49
:1033B000000008800003005000070050000100508A
:1033C000000021C31000C090000600504C000020F7
:1033D000400D0300000052C700050050000084CBE0
:1033E000704770470068006C704700002DE9F84F87
:1033F00004460068066845684FF0A048DFF89092E0
:10340000404501D0484501D1A24800E0A24880686B
:1034100000F01F07B0070ED5A8070CD5E06DC00659
:1034200003D4E06D40F40060E0652046FFF788F8C3
:10343000216802200860DFF864B2DFF864A2700738
:1034400001D5680703D430073FD528073DD5E06D87
:10345000C00603D4E06D40F40070E065206802F01F
:103460002FFA60B32068484501D1424604E0584530
:1034700001D1524600E00246824208D03FB1052FFA
:1034800005D0092F03D0484503D1414606E0C16865
:1034900005E0584501D1514600E00146C96889045C
:1034A0000DD4016809070AD502F002FA58B3E06D9D
:1034B00040F01000E065206E40F0010020662046DC
:1034C000FFF78EFF21680C200860B00601D5A80622
:1034D00003D470065FD568065DD5E06DC00603D4E1
:1034E000E06D40F40050E0652068C16C11F4C07FCD
:1034F0001AD00021009102F0E3F902462068484505
:1035000014D1434617E02068416821F00C01416066
:10351000E06D20F48070E065E06DC004CFD4E06D14
:1035200040F00100E065CAE70121E3E7584501D119
:10353000534600E00346834208D03FB1062F05D032
:10354000072F03D0484503D1414606E0C16805E096
:10355000584501D1514600E00146C968009BA3B11E
:103560008B0102D58AB18A040FD4026852060CD5A9
:1035700089020AD402F094F9F0B3E06D40F0100033
:10358000E065206E40F0010020662046FFF78AFAD1
:1035900021686020086030060BD5280609D5E06D4B
:1035A00040F48030E065204600F094F921688020E6
:1035B0000860F0050CD5E8050AD5E06D40F4003050
:1035C000E0652046FFF723FC21684FF48070086017
:1035D000B0050CD5A8050AD5E06D40F48020E06563
:1035E0002046FFF715FC21684FF400700860F006D4
:1035F00031D5E8062FD500E009E0E06BE8B120689E
:10360000EFB3404501D0484512D1224811E020686F
:10361000416821F060014160E06D20F48050E06578
:10362000E06DC005B1D4E06D40F00100E065ACE7AD
:103630001948806800F4604050B1E06D40F480604B
:10364000E065206E40F0020020662046FFF7C9FECC
:10365000216810200860700517D5680515D5E06D44
:1036600040F48040E065206E40F00800206621684C
:103670004FF4806008602046BDE8F84F00E001E0AC
:10368000FFF72FBAC068C007D6E7BDE8F88F000083
:1036900000010050000300500007005000050050DA
:1036A00000040050F8B54FF0000504002E460095C8
:1036B00002D0E06D10B107E00120F8BD204600F017
:1036C0000BF9266684F8586020688168C1F3407160
:1036D00019B18168734A1140816020688168C1F323
:1036E000007189B98168704A114041F08051816050
:1036F0006E486F490068B0FBF1F04000801C00E0AC
:10370000401E00900028FBD120688168C1F3007141
:1037100041B9E16D41F01001E165216E41F0010117
:103720002166012502F0C4F8E16DC90600D430B16C
:10373000E06D40F01000E06501252846F8BDE06D21
:1037400020F4807040F00200E0652068816811F08C
:10375000010F27D14FF0A043564A984201D0904222
:1037600004D19968966801F001010AE0524989681C
:10377000524E01F00101B66806F001063143504E89
:10378000B66806F0010631430CD1984201D0904250
:1037900001D14C4800E04C486168826822F47C12F8
:1037A0000A438260E168E06B627F0843A16841EAF6
:1037B0004231084394F8241040EA0140012904D121
:1037C000218D424A02EB41410843E16A29B101F4EB
:1037D0007871226B014342EA01002268D1683C4BB8
:1037E00019400143D16020680169626B21F040619A
:1037F00011430161206802F053F870BB207F94F8F8
:1038000038102268800340EA4100D16844F2020384
:1038100099430143D16020690028206801690AD0DA
:1038200041F480310161206850F8C01F22696FF3B4
:103830000D01114307E021F480310161206850F847
:10384000C01F6FF30D01016094F8400001280CD0F7
:103850002068016921F00101016160690128206887
:10386000016B21F00F0111D013E0D4E911010843DD
:10387000D4E913121143084321680A6940F2FC732A
:103880009A43104340F001000861E6E7226A521EA5
:1038900011430163E06D20F0020040F00100E0659B
:1038A0004BE70000C0FFFF5FC0FFFF7F4C00002020
:1038B000400D0300000100500004005000050050BE
:1038C0000006005000030050000700500000FEFFFB
:1038D0000740F0FF7047000070B59CB0054614210A
:1038E00015A8FCF7E1FC54216846FCF7DDFC2868CC
:1038F0004FF0A046B04202D02549884245D1254923
:10390000254C0868401C0860012811D1C0030090B4
:1039100040031190684600F029FC08B1FDF761FDF5
:10392000E06C40F40050E064E06C00F400501A9049
:10393000E06C40F00400E064E06C00F004001A90D9
:10394000E06C40F00100E064E06C032100F0010055
:103950001A902A680020B24207D1CDE91610082239
:10396000159215A94FF0904005E0CDE916100E22F2
:10397000159215A9094800F0C9F900220221122068
:1039800000F05CFB122000F04BFB1CB070BD00008F
:1039900000010050580000200010024000080048BC
:1039A0002DE9F041044600684FF0A045444FA8427D
:1039B00001D0B84201D1434900E04349896801F090
:1039C0001F0601F075FF18B102210846BDE8F0811D
:1039D00094F8580001280CD0012084F858002046A3
:1039E000FCF7A0FF01004FF0000204D084F858203B
:1039F000EBE70220EAE7E06D40F60163984340F40C
:103A00008070E0652068314BDFF8C4C0B84201D156
:103A1000AE4604E0984201D1E64600E0864686457F
:103A200000D02EB9D4F85CE02EF4801EC4F85CE01F
:103A3000D4F85CE05FEACE4E06D5D4F860E02EF014
:103A4000060EC4F860E000E022664FF01C0EC0F8DD
:103A500000E084F858202068B84201D12A4604E0EA
:103A6000984201D1624600E0024682420ED06EB119
:103A7000052E0BD0092E09D0E26D42F48012E265CA
:103A8000B84213D0984210D165460FE0C268920147
:103A900005D5E26D22F4005242F48052E26582685C
:103AA0000C4B1A40121D82608FE70546E8688001C2
:103AB0008BD5E06D20F4005040F48050E06584E741
:103AC00000010050000300500007005000050050A6
:103AD00000040050C0FFFF7F10B5044690F8580066
:103AE000012808D0012084F8580003212046FCF763
:103AF0006FFE10B10BE0022010BD2046FCF7DAFE8D
:103B000028B9E16D21F4885141F00101E1650021FE
:103B100084F8581010BD70B5040004D094F821004A
:103B2000002510B106E0012070BD84F82050204629
:103B300000F00CF865626560A560E5602561012014
:103B4000656184F82100002070BD000008B50068A0
:103B50000649884208D10648816C41F00801816419
:103B6000806C00F00800009008BD0000000C0240CE
:103B700000100240F0B4016C0C6801680D6890F808
:103B8000442002F01F06042202FA06F3234211D059
:103B90006B070FD50B689B0603D40B6823F0040357
:103BA0000B6090F8441001F01F018A40016C4A60DC
:103BB000016B1DE0022303FA06F727424FF0000CC9
:103BC0004FF0010218D0AF0716D50C68A40605D433
:103BD0000C6824F00A040C6080F8252090F844104A
:103BE00001F01F018B40016C4B6080F824C0C16A5A
:103BF00000291AD0F0BC08470823B340234214D050
:103C00002B0712D50B6823F00E030B6090F84410BD
:103C1000036C01F01F0102FA01F15960C26380F8E0
:103C2000252080F824C0416BE2E7F0BC704700001B
:103C300070B504000CD02B4A21681420914209D29F
:103C4000294A0A44B2FBF0F08000606427480AE089
:103C5000012070BD234A52420A44B2FBF0F08000BA
:103C60006064204808382064022084F825000A682F
:103C700047F6F0708243D4E902031843D4E90435CF
:103C80002B431843A3691843E3691843236A184375
:103C9000104308602046FDF76DFBA0680025B0F5D5
:103CA000804F00D16560A16C20790860D4E91301D0
:103CB00041606068401E032808D82046FDF77AFB63
:103CC000606D0560D4E91601416002E06565A56597
:103CD000E565E563012084F8250084F82450002080
:103CE00070BD000008040240F8FFFDBF0000024064
:103CF000FDF704BA044910B50A68024202D0086010
:103D0000FFF7F6FF10BD0000140401402DE9F04F4D
:103D1000DFF82092002301260324A9F1040B85B0CB
:103D20000F2709F1040AABF1040EFAE006FA03F5D5
:103D30002A407CD091F804C00CF0030CBCF1010FB8
:103D400002D0BCF1020F26D1D0F808C0CDF800C0D7
:103D50004FEA430C04FA0CF8CDF810C0DDF800C0AF
:103D60002CEA080CCDF800C0D1F80C80DDF810C0AA
:103D700008FA0CF8DDF800C048EA0C08C0F8088022
:103D8000D0F804C02CEA050C0D79C5F300159D4050
:103D900045EA0C0545600D79ED43AD070ED0C568C9
:103DA0004FEA430804FA08FC25EA0C05D1F808C0DC
:103DB0000CFA08FC4CEA050CC0F80CC00D7905F0B3
:103DC0000305022D16D1DD0800EB850CCDF808C0E7
:103DD000DCF820805D074FEAD56C07FA0CF528EA7D
:103DE00005080D6905FA0CF5DDF808C045EA080577
:103DF000CCF8205005684FEA430CCDF808C004FA0F
:103E00000CFC25EA0C0591F804C00CF00308DDF861
:103E100008C008FA0CF848EA0508C0F800804D68A8
:103E200015F4403F7CD0444DD5F860C000E077E009
:103E30004CF0010CC5F860C02D6E23F0030C05F0AA
:103E4000010500953D4D65440295AD684FEA837CC0
:103E50004FEA1C7807FA08FC25EA0C05B0F1904FF0
:103E600006D0DFF8DCC0604505D14FF0010C20E042
:103E70004FF0000C1DE0DFF8CCC0604502D14FF0E0
:103E8000020C16E0DFF8C0C0604502D14FF0030C11
:103E90000FE0DFF8B8C0604502D14FF0040C08E035
:103EA000DFF8ACC0604502D14FF0050C01E04FF0E7
:103EB000060C0CFA08FC4CEA050C029DC5F808C07B
:103EC000D9F80050CC46D1F8048095435FEAC82861
:103ED00000D51543CCF80050DAF80050D446D1F89C
:103EE000048095435FEA882800D51543CCF800503C
:103EF000DBF80050DC46D1F8048095435FEA88384F
:103F000000D51543CCF80050DEF80050F446D1F847
:103F1000048095435FEAC83800D51543CCF80050BB
:103F20005B1C0A6832FA03F57FF400AF05B0BDE808
:103F3000F08F000008040140001002400000014022
:103F40000004004800080048000C00480010004829
:103F5000001400480069084000D0012070470AB1F1
:103F60008161704781627047014880687047000036
:103F70004000002002488168426811448160704717
:103F80004000002010B50024032000F077F8042042
:103F900000F008F808B1012401E000F025F82046FF
:103FA00010BD000070B50E4E05460024706898B133
:103FB0004FF47A71B1FBF0F00A490968B1FBF0F0F7
:103FC00000F09EFD40B9102D06D200222946501E59
:103FD00000F034F8356000E00124204670BD000098
:103FE000400000204C0000200C4808B5016E41F054
:103FF00001010166016E01F001010091816D41F046
:1040000080518165806D00F080500090042000F0A8
:1040100035F8BDE8084000F0A1B8000000100240EB
:10402000002809DB00F01F020121914040098000B7
:1040300000F1E020C0F8001170470000F0B40E4B12
:104040001B680C46C3F30223C3F10705042D00D9F6
:104050000425191D072901D2002300E0DB1E0126DB
:1040600006FA05F1491E214099409E40761E1640F1
:104070003143F0BC02F09FBD0CED00E0064900F0BA
:10408000070208684FF6FF03184040EA0220034A7F
:1040900010430860704700000CED00E00000FA05D6
:1040A0002B492C4B0A6832214A432B4940B1B0F5C9
:1040B000007F086829D020F4C06040F480602CE0C4
:1040C0000868C0F34120022804D051F8800F20F482
:1040D000807022E0D1F8800020F48070C1F8800068
:1040E000086820F4C06040F400700860B2FBF3F090
:1040F000401C00E0401E4A69520501D50028F9D154
:10410000486940050AD503207047C0F341200228C2
:1041100006D051F8800F40F480700860002070478E
:10412000D1F8800040F48070C1F88000086820F465
:10413000C06040F400700860B2FBF3F0401C00E087
:10414000401E4A695205DBD50028F9D1D8E70000A6
:104150004C00002040420F0000700040024881687F
:1041600041F4804181607047007000402DE9F843C0
:10417000044600680026BB4D00035ED5A86D0027ED
:10418000C00008D4A86D40F08050A865A86D012734
:1041900000F080500090DFF8D092D9F8001041F480
:1041A0008071C9F80010FFF7DFFE804606E000BF0F
:1041B000FFF7DAFEA0EB080002282BD8D9F80000A0
:1041C000C005F5D5D5F8900010F4407014D0216DDD
:1041D000814211D0D5F89000D5F8901020F44070AD
:1041E00041F48031C5F89010D5F8901021F4803159
:1041F000C5F89010C5F89000C00711D0FFF7B4FEC5
:10420000804641F2883907E0FFF7AEFEA0EB0801D7
:10421000494501D903260BE0D5F890008007F3D576
:10422000D5F89000216D20F440700843C5F8900047
:104230001FB1A86D20F08050A8652078C00707D076
:10424000D5F88800616820F003000843C5F88800AD
:104250002078800707D5D5F88800A16820F00C00E9
:104260000843C5F888002078400707D5D5F88800AE
:10427000E16820F030000843C5F888002078000786
:1042800007D5D5F88800216920F0C0000843C5F89B
:1042900088002078C00607D5D5F88800616920F429
:1042A00040700843C5F888002078800607D5D5F807
:1042B0008800A16920F440600843C5F88800207890
:1042C000400607D5D5F88800E16920F4405008433E
:1042D000C5F888002078000607D5D5F88800216A3F
:1042E00020F440400843C5F888002088C00507D561
:1042F000D5F88800616A20F440300843C5F888008A
:104300002068800307D5D5F89C00A16A20F003003F
:104310000843C5F89C002088800507D5D5F888009B
:10432000E16A20F440200843C5F888002088400551
:104330000FD5D5F88800216B20F440100843C5F84C
:104340008800206BB0F5801F03D1E86840F480102E
:10435000E860208800050FD5D5F88800616B20F44F
:1043600040000843C5F88800606BB0F5800F03D1AA
:10437000E86840F48010E8602088C0040FD5D5F8C4
:104380008800A16B20F040700843C5F88800A06B3E
:10439000B0F1807F03D1E86840F48010E8602088A5
:1043A0004FF0006180040ED5D5F88800E26B20F054
:1043B00040601043C5F88800E06B884203D1E8688C
:1043C00040F48010E860208840040ED5D5F88800BD
:1043D000226C20F040601043C5F88800206C8842B1
:1043E00003D1E86840F48010E860208800040FD50D
:1043F000D5F88800616C20F040500843C5F888006B
:10440000606CB0F1805F03D1E86840F48030E86010
:104410002068C0030FD5D5F88800A16C20F040407B
:104420000843C5F88800A06CB0F1804F03D1E8685C
:1044300040F48030E860206840030FD5D5F89C0038
:10444000E16C20F440100843C5F89C00E06CB0F526
:10445000001F03D1E86840F48010E8603046BDE8F2
:10446000F883000000100240007000402DE9F04782
:104470000E4605004FF0000725D0DFF8AC81D8F8D4
:10448000000000F00F00B0420CD2D8F8001021F06C
:104490000F013143C8F80010D8F8000000F00F00F9
:1044A000B04210D12968614CC80741F2883A5AD00D
:1044B0006868DFF87C91032808D0022820682DD096
:1044C000400500282CDB0120BDE8F0872068800132
:1044D000F9D5E06800F00302E068C0F30310401C67
:1044E000032A19D0534A00BFB2FBF0F0E268C2F3CE
:1044F00006225043E268C2F34162521C5200B0FBF4
:10450000F2F0484517D9A06810F0F00F0CD08807DA
:1045100011D5A86840B10EE0474AE5E78003D0E72F
:1045200000F0B6F8484506D9A06820F0F00040F049
:104530008000A0608027A068696820F0030008431D
:10454000A060FFF711FD814606E000BFFFF70CFDFC
:10455000A0EB090151453AD8A068696800F00C0049
:10456000B0EB810FF2D12868810714D5400703D53D
:10457000A06840F4E060A0602878000705D5A06836
:1045800020F4605040F4E060A060A068A96820F0CA
:10459000F000084304E0802F03D1A06820F0F00071
:1045A000A060D8F80010404601F00F01B14216D9C2
:1045B000016821F00F0131430160FFF7D5FC074688
:1045C00007E000BFFFF7D0FCC11B514501D9032014
:1045D0007AE7D8F8000000F00F00B042F2D1287856
:1045E000400705D5A068E96820F4E0600843A060B2
:1045F0002878000706D5A068296920F4605040EAB1
:10460000C100A06000F044F8A1680C4AC1F3031196
:10461000515C01F01F01C840094908600948006861
:10462000BDE8F047FFF7BEBC00200240001002408A
:1046300000B4C4040024F40000127A00BA93000805
:104640004C000020400000200548064900688968A9
:10465000054AC1F30221515C01F01F01C8407047B7
:104660004C00002000100240CA930008054806498B
:1046700000688968054AC1F3C221515C01F01F013D
:10468000C84070474C00002000100240CA93000848
:10469000184910B58868C0F381021748012A0BD069
:1046A0008A684310C2F38102022A06D08A68C2F3E4
:1046B0008102032A03D0002010BD184610BDCA682D
:1046C00002F00304CA68C2F30312521C032C02D086
:1046D000B0FBF2F001E0B3FBF2F0CA68C968C2F3C4
:1046E00006225043C1F34161491C4900B0FBF1F07F
:1046F00010BD0000001002400024F4002DE9F84332
:1047000004007AD02078F84DC00747D0A868E9683F
:1047100000F00C0001F003010C2802D0082817D08B
:1047200001E0032914D06068B0F5803F17D0B0F5E0
:10473000A02F286817D020F480302860286820F443
:10474000802028606068E0B1FFF70EFC064614E0A8
:104750002868800322D560680028D2D01EE028682F
:1047600040F48030EDE740F480202860F7E700BF98
:10477000FFF7FAFB801B642870D828688003F7D500
:104780000CE0FFF7F1FB064605E000BFFFF7ECFB8E
:10479000801B6428F0D828688003F7D4207880072D
:1047A0004CD5A868E96800F00C0001F003010C2862
:1047B00002D004280DD001E002290AD0E0680028C8
:1047C00028682BD040F480702860FFF7CDFB0646A8
:1047D00019E02868400502D5E068002891D0686893
:1047E000217C20F0FE4040EA01606860BF4800681C
:1047F000FFF7D8FB002800D120E072E1FFF7B4FBFF
:10480000801B0228B8D828684005F7D56868217C45
:1048100020F0FE4040EA016068600FE020F4807004
:104820002860FFF7A1FB064605E000BFFFF79CFBF1
:10483000801B0228A0D828684005F7D420780007FC
:1048400029D560690028D5F8940013D040F0010004
:10485000C5F89400FFF788FB064606E090E000BF2D
:10486000FFF782FB801B022886D8D5F894008007CA
:10487000F6D510E020F00100C5F89400FFF774FBB6
:10488000064604E0FFF770FB801B022878D8D5F8B5
:1048900094008007F6D42078400761D5A86D0026E3
:1048A000C00008D4A86D40F08050A865A86D01260E
:1048B00000F0805000908E480168C90511D401684D
:1048C000804641F480710160FFF74EFB074604E02B
:1048D000FFF74AFBC01B022852D8D8F80000C005D9
:1048E000F6D5A068012815D00528D5F8900016D077
:1048F00020F00100C5F89000D5F8900020F00400E9
:10490000C5F89000A06841F28838B8B1FFF72CFBD9
:1049100007460EE0D5F8900040F00100F0E740F0C7
:104920000400C5F89000F5E7FFF71EFBC11B4145E9
:1049300026D8D5F890008007F6D50CE0FFF714FBD9
:10494000074604E0FFF710FBC11B414518D8D5F816
:1049500090008007F6D41EB1A86D20F08050A865A5
:104960002078800629D5A0690028D5F8980013D0B2
:1049700040F00100C5F89800FFF7F6FA064606E099
:1049800075E000BFFFF7F0FA801B02286FD8D5F85A
:1049900098008007F6D510E020F00100C5F89800D7
:1049A000FFF7E2FA064604E0FFF7DEFA801B022872
:1049B0005DD8D5F898008007F6D4E069F0B3A9680F
:1049C000C1F3810103295DD00228286820F080709E
:1049D000286003D0FFF7C8FA04464BE0FFF7C4FA9B
:1049E000064604E0FFF7C0FA801B02283FD828687B
:1049F0008001F7D4F4E908016FF00F0202EB011116
:104A00000843218A5204490802EB4151A26841EA55
:104A100002210843217D4FF07E42490802EB4161AB
:104A20000843217B40EAC160E968324A11400843EB
:104A3000E860286840F08070286000E05EE0E86888
:104A400040F08070E860FFF78FFA044605E000BF91
:104A5000FFF78AFA001B022809D828688001F7D5D9
:104A60004CE000BFFFF780FA001B022802D90320A8
:104A7000BDE8F88328688001F4D4E8681E4908403E
:104A8000E8603BE00128F3D0E868226A00F0030107
:104A9000914226D1616A00F0F00209011039914279
:104AA0001FD1A26A00F4FE41B1EB022F19D194F894
:104AB0002C2000F07841B1EBC26F12D1218E00F4AE
:104AC000C00249084905A1F50011914209D194F8A5
:104AD000341000F0C06049084906A1F1007181421C
:104AE0000CD00120C4E7000000100240400000206C
:104AF000007000400C809F01FCFFEEFE0020B7E735
:104B000010B5401EB0F1807F01D3012010BD4FF0E1
:104B1000E02460610F21601702F04DF80020A061D1
:104B200007202061002010BD7047704770470000CB
:104B300030B590F83C20012A45D0012280F83C2075
:104B4000CA688B6822F440721A434B6822F4806270
:104B50001A430B6822F400621A430B6922F4805254
:104B60001A434B6922F400521A430B6B22F4804221
:104B70001A430B8B22F4702242EA0342CB6922F0E3
:104B800080521A43114D03680024AB4205D0104DEA
:104B9000AB4202D00F4DAB4210D10D8D22F470020A
:104BA00042EA05520D6A22F080722A434D6A22F0D1
:104BB00000722A43C96A22F000520A435A6480F8FC
:104BC0003C40002030BD022030BD0000002C0140E0
:104BD00000340140005001407047704770470000AA
:104BE000F0B590F83C20012A43D0012580F83C50D4
:104BF000022280F83D2003685A689C681E4E1F4FB1
:104C0000DFF87CC0B34203D0BB4201D0634504D17E
:104C100022F4700E4A6842EA0E02DFF868E002EA07
:104C20000E02D1F800E04EEA020EC3F804E002687A
:104C3000B24212D0B2F1804F0FD0134B9A420CD037
:104C4000124B9A4209D0124B9A4206D0BA4204D073
:104C5000104B9A4201D0624504D1896824F0800348
:104C60001943916080F83D50002180F83C100846BF
:104C7000F0BD0220F0BD0000002C014000340140D6
:104C8000005001408FFFFFFD00040040000800407D
:104C9000000C00400040014010B50446022249B11A
:104CA00004290ED0082913D094F84700012816D003
:104CB000012010BD94F844000128F9D184F8442063
:104CC0000FE094F845000128F2D184F8452008E06F
:104CD00094F846000128EBD184F8462001E084F8DE
:104CE00047200422206801F0A0FA2068416C41F4BA
:104CF0000041416413492068884214D0B0F1804FCC
:104D000011D0114988420ED0104988420BD0104969
:104D1000884208D00F49884205D00F49884202D006
:104D20000E49884207D181680D4A1140062906D0F4
:104D3000B1F5803F03D0016841F00101016000201E
:104D400010BD0000002C014000040040000800409D
:104D5000000C004000340140004001400050014080
:104D60000700010070B504460D460068002201F0FE
:104D70005CFA2068036A41F211110B4244F244428A
:104D800006D1036A134203D1436C23F40043436406
:104D90002068036A0B4206D1016A114203D10168FF
:104DA00021F00101016001203DB1042D08D0082D42
:104DB00009D084F84700002070BD84F84400FAE769
:104DC00084F84500F7E784F84600F4E7704710B52B
:104DD000040003D094F83D0010B107E0012010BD9D
:104DE000002084F83C00204600F022F8022084F8DD
:104DF0003D00211D206801F099F9012084F8480048
:104E000084F83E0084F83F0084F8400084F84100B4
:104E100084F8420084F8430084F8440084F8450094
:104E200084F8460084F8470084F83D00002010BD57
:104E300008B500680F4988421AD10F48016E41F445
:104E400000610166006E012200F400600090042100
:104E50001820FFF7F3F81820FFF7E2F800221146B8
:104E60001920FFF7EBF8BDE808401920FFF7D8B884
:104E700008BD0000002C01400010024090F83D10D9
:104E8000012901D001207047022180F83D100068FF
:104E90001249884214D0B0F1804F11D01049884295
:104EA0000ED0104988420BD00F49884208D00F49D4
:104EB000884205D00E49884202D00E49884207D167
:104EC00081680D4A1140062906D0B1F5803F03D014
:104ED000016841F00101016000207047002C014091
:104EE0000004004000080040000C00400034014075
:104EF00000400140005001400700010001680A6ABB
:104F000041F211131A4207D10A6A9B001A4203D1D7
:104F10000A6822F001020A60012180F83D10002099
:104F20007047000070B5044690F83C000025012849
:104F30001CD0012684F83C60022084F83D002268E1
:104F40009068334B184020F47F4090600868B0F5BB
:104F5000005F2ED016DC402849D009DCD0B11028E3
:104F600018D0202816D0302849D113E0022070BD77
:104F700050282AD0602830D070280FD0B0F5805F3C
:104F80003DD13DE010F00F0F39D10111A1F5803175
:104F9000072934D822680146104625E0CB68D1E9BC
:104FA0000121206801F04EF92068816841F0770105
:104FB00009E0CB68D1E90121206801F043F92068BC
:104FC000816841F4804181601AE0CA6849682068BC
:104FD00001F00CFB5021206806E0CA68496820688F
:104FE00001F015FB6021206801F036F908E0CA687D
:104FF0004968206801F0FAFA40212068F4E70125A9
:1050000084F83D60002084F83C00284670BD000014
:1050100088FFCEFF70472DE9F04104460068C6685E
:1050200005694FF00007A90713D5B10711D5F91E7F
:10503000016101202077206880698007204602D026
:10504000FFF7E8FF04E000F001F9204600F0C3F9A3
:105050002777680716D5700714D521686FF004000C
:105060000861022020772068806910F4407F204684
:1050700002D0FFF7CFFF04E000F0E8F8204600F090
:10508000AAF92777280715D5300713D521686FF0BF
:1050900008000861042020772068C0698007204646
:1050A00002D0FFF7B7FF04E000F0D0F8204600F090
:1050B00092F92777E80616D5F00614D521686FF027
:1050C00010000861082020772068C06910F4407F34
:1050D000204602D0FFF79EFF04E000F0B7F820461C
:1050E00000F079F92777E80708D0F00706D02168A3
:1050F0006FF001000861204600F054FA280601D440
:10510000A80408D5300606D521686FF4025008615E
:105110002046FFF70AFDE80508D5300606D52168C8
:105120006FF4807008612046FFF7FEFC680608D522
:10513000700606D521686FF040000861204600F037
:1051400032FAA80608D5B00606D521686FF020000F
:1051500008612046FFF7EAFCE80208D5F00206D510
:1051600021686FF4801008612046FFF736FDA80221
:1051700008D5B00206D521686FF4001008612046FA
:10518000FFF72AFD680208D5700206D521686FF482
:10519000800008612046FFF721FD28020AD5300271
:1051A00008D521686FF4000008612046BDE8F04191
:1051B000FFF70CBEBDE8F08170B586B0044614213F
:1051C0006846FBF771F81E492068884235D11D48B2
:1051D000C16C41F00201C164C16C01F00201059192
:1051E000C16C41F00101C164C06C022400F00100F7
:1051F00005904FF4C040CDE90004134E06250294FB
:1052000069463046CDE90345FEF780FDA003CDE9B0
:10521000000404200294CDE9034069463046FEF7BD
:1052200075FD4FF4E060CDE90004029469464FF04B
:105230009040CDE90345FEF769FD06B070BD000062
:10524000002C01400010024000040048704770B577
:10525000044690F83C0000260D4601280BD00120A2
:1052600084F83C000C2A4AD007DC82B1042A20D002
:10527000082A06D131E0022070BD102A53D0142A2A
:1052800063D00126002084F83C00304670BD2068C1
:1052900000F0ECFF2068816941F00801816120681D
:1052A000816921F004018161206881692A691143C3
:1052B00011E0206801F030F82068816941F4006154
:1052C00081612068816921F4806181612068816940
:1052D0002A6941EA02218161D4E7206801F06CF873
:1052E0002068C16941F00801C1612068C16921F0ED
:1052F0000401C1612068C1692A69114311E0206875
:1053000001F0AAF82068C16941F40061C161206818
:10531000C16921F48061C1612068C1692A6941EADB
:105320000221C161AEE7206801F0E6F82068016D56
:1053300041F0080101652068016D21F0040101655B
:105340002068016D2A69114311E0206801F010F90D
:105350002068016D41F4006101652068016D21F450
:10536000806101652068016D2A6941EA02210165B9
:1053700088E710B5040003D094F83D0010B107E0B1
:10538000012010BD002084F83C00204600F022F8E7
:10539000022084F83D00211D206800F0C7FE012096
:1053A00084F8480084F83E0084F83F0084F8400008
:1053B00084F8410084F8420084F8430084F84400F3
:1053C00084F8450084F8460084F8470084F83D00DE
:1053D000002010BD7047704770B50446022269B1C5
:1053E000042912D0082917D00C291CD0102921D04B
:1053F00094F84300012824D0012070BD94F83E00A9
:105400000128F9D184F83E201DE094F83F000128DE
:10541000F2D184F83F2016E094F840000128EBD147
:1054200084F840200FE094F841000128E4D184F88A
:10543000412008E094F842000128DDD184F84220A0
:1054400001E084F843200122206800F0E1FE1D49BC
:1054500020681D4A1D4B1E4D88420BD0904209D03A
:10546000984207D01B4EB04204D01B4EB04201D030
:10547000A84203D1466C46F4004646642068884240
:1054800011D0B0F1804F0ED0144988420BD014498E
:10549000884208D01349884205D0904203D09842F0
:1054A00001D0A84207D181680F4A1140062906D0D1
:1054B000B1F5803F03D0016841F001010160002097
:1054C00070BD0000002C014000340140004001404C
:1054D00000500140004401400048014000040040E9
:1054E00000080040000C00400700010030B50446F1
:1054F0000D460068002200F08BFE244B41F2111192
:1055000020688A0098420ED0214B98420BD0214B44
:10551000984208D0204B984205D0204B984202D0A8
:105520001F4B984209D1036A0B4206D1036A13420A
:1055300003D1436C23F4004343642068036A0B42A5
:1055400006D1016A114203D1016821F00101016015
:1055500001205DB1042D0CD0082D0DD00C2D0ED0E6
:10556000102D0FD084F84300002030BD84F83E0099
:10557000FAE784F83F00F7E784F84000F4E784F89E
:105580004100F1E784F84200EEE70000002C014002
:105590000034014000400140004401400048014007
:1055A000005001407047704790F88410012918D0CE
:1055B000012180F884102421C0F8881001680A684D
:1055C0000B6823F001030B6022F0005100224266B9
:1055D000036819602021C0F8881080F884201046E4
:1055E00070470220704770B5044690F88400012887
:1055F0001DD0012084F884002420C4F8880020688D
:105600000568026822F0010202602068826822F0C8
:1056100060620A438260204601F00CF82068056051
:105620002020C4F88800002084F8840070BD022087
:1056300070BD70B5044690F8840001281DD001208B
:1056400084F884002420C4F8880020680568026873
:1056500022F0010202602068826822F060420A4360
:105660008260204600F0E6FF206805602020C4F834
:105670008800002084F8840070BD022070BD10B541
:10568000040003D0D4F8880010B107E0012010BD59
:10569000002084F88400204600F026F82420C4F876
:1056A00088002068016821F001010160A06A10B142
:1056B000204600F0E1FF204601F0C2F80128E6D0C4
:1056C0002068416821F4904141602068816821F0A0
:1056D0002A0181602068016841F0010101602046D3
:1056E000BDE8104001F02CB8F0B59BB0064614217F
:1056F00015A8FAF7D9FD54216846FAF7D5FD3149C6
:10570000306888425CD101200024CDE9000468465D
:10571000FEF72CFD08B1FBF764FE2B48016E41F447
:1057200080410166016E01F480411A91C16C41F023
:105730000201C164C06C15A900F002001A90C020DB
:1057400015900220CDE916040720CDE918401F4826
:10575000FEF7DCFA1F4D1E48802728601820C5E997
:105760000104C5E903476C61AC61EC6128462C6219
:10577000FEF75EFA08B1FBF734FEC6F88050AE6261
:10578000144D13486035143028601920686005F105
:105790000801102081E891006C61AC61EC61284641
:1057A0002C62FEF745FA08B1FBF71BFEF5670122F4
:1057B00003212520AE62FEF741FC2520FEF730FCD8
:1057C0001BB0F0BD0038014000100240000400484A
:1057D00008000240900400202DE9F8430446D0F868
:1057E0008800984616460D46202802D00220BDE8C3
:1057F000F883A5B19EB10020C4F890002120C4F820
:1058000088001834FEF7B0FBA6878146E68754F877
:10581000100C2027183CB0F5805F02D003E0012077
:10582000E5E7206910B12E46002510E000260EE0C5
:105830008021204601F050F9C0B9DEB116F8010B05
:1058400021688862B4F85600401EA4F85600B4F8E7
:1058500056004B464FF00002CDF800800028E7D1FB
:105860004FF04001204601F037F940B1C4F888708C
:105870000320BCE735F8020BC0F30800E0E7C4F8EA
:1058800088700020B3E7FEE700EB8100006E00F0B7
:10589000F840704700EB8100006E00F0F840704760
:1058A0008068C0F3C00070478068C0F3C0007047D4
:1058B0008068C0F3800070478068C0F38000704744
:1058C000C06810F4406F01D000207047012070477D
:1058D000042303EAD15310B518444369C1F30451BA
:1058E00007248C40A3438A401343436110BD042323
:1058F00003EAD15310B518444369C1F30451072496
:105900008C40A3438A401343436110BD00EB8100E8
:10591000016E21F0004111430166704700EB8100E8
:10592000016E21F0004111430166704770B59AB0D5
:1059300000241794189420210FA81994FAF7B4FCA6
:105940003C216846FAF7B0FC35484FF0A0410425E9
:1059500001604FF44031C0E9011485610121C46048
:10596000C0E9044104774177016280F82440C462B1
:10597000046380F838400903C16380F84040FDF7B4
:1059800091FE08B1FBF72DFD7F212548FCF78EFD28
:1059900008B1FBF726FD17A921481794FDF73AFA3D
:1059A00008B1FBF71EFD1F480F900620109007203E
:1059B0007F26CDE91106CDE913540FA91848FDF74C
:1059C000D9FA08B1FBF70DFD1748009009200190A6
:1059D0000220CDE90206CDE90454089080208DF81C
:1059E00024408DF825400A900B908DF826408DF8C4
:1059F000304069460A48FCF7A5FD08B1FBF7F1FC09
:105A00000A48009040F20F10019069460448FCF7E4
:105A100099FD002801D0FBF7E4FC1AB070BD00002E
:105A2000E40500201000C0108000501D00018021FE
:105A300030B58FB03C216846FAF736FC30482F4924
:105A4000002401604FF44031C0E901140425856150
:105A50000121C460C0E9044104774477016280F801
:105A60002440C462046380F83840C46380F8404036
:105A7000FDF718FE08B1FBF7B4FC7F212048FCF7C6
:105A800015FD08B1FBF7ADFC1E4800900920019000
:105A9000022002907F200594CDE9030503200890A1
:105AA00080208DF824408DF825400A900B908DF8C9
:105AB00026408DF8304069461148FCF743FD08B197
:105AC000FBF78FFC1048009040F20F1001906946E0
:105AD0000B48FCF737FD08B1FBF783FC0B4800903F
